:10000000F8FF002011040000FB2A0000FB2A00007A
:10001000FB2A0000FB2A0000FB2A0000FB2A00004C
:10002000FB2A0000FB2A0000FB2A0000FB2A00003C
:10003000FB2A0000FB2A0000FB2A0000FB2A00002C
:10004000FB2A0000FB2A0000FB2A0000FB2A00001C
:10040000FFFFFFFFFFFFFFFFFFFFFFFFFEFFFFFFFD
:1004100062B605F0EBF9FEE710F00702DFF83C3CAE
:100420001B6819004FF6FF031940DFF8F43953EA4F
:1004300002231943DFF8243C1960704710B440B21E
:100440004109DFF85C2C012310F01F04A34042F89F
:10045000213010BC704740B2002809D540B210F0DE
:100460000F02DFF8FC3AD2180B0102F8043C04E05A
:1004700040B2DFF8302C0B018354704780B5012265
:100480000121612001F038F800220121822001F0D1
:1004900033F800220121842001F02EF800220121EE
:1004A000862001F029F800220121872001F024F89C
:1004B00001BD80B5302001F0EDF8102001F0EAF820
:1004C00001BD80B5002344F620620521002001F023
:1004D0003DFA002344F620620721002001F036FA9D
:1004E00001BD80B5012001F0EFFB022001F0ECFB23
:1004F00003210C2001F0C2FC03210D2001F0BEFC01
:1005000003210A2001F0BAFC03210B2001F0B6FC04
:1005100001BD0200914201DA080000E010007047BE
:1005200002008A4201DA080000E01000704738B586
:1005300004000D00E4B2002C0ED10121842001F052
:1005400032F80021872001F02EF8EDB22A000521B3
:10055000002001F047FB10E0E4B2012C0DD1002196
:10056000842001F020F80121872001F01CF8EDB271
:100570002A000521002001F035FB31BD38B504000B
:100580000D00E4B2002C0ED10021822001F00BF806
:100590000121862001F007F8EDB22A000721002092
:1005A00001F020FB10E0E4B2012C0DD101218220EA
:1005B00000F0F9FF0021862000F0F5FFEDB22A00DF
:1005C0000721002001F00EFB31BD10B400231A00FA
:1005D00092B23C2A12D20023190089B250290BD2C0
:1005E00089B292B25023DFF8904C03FB02430478A7
:1005F000CC54401C491CF0E7521CE9E700231A00C8
:1006000092B23C2A25D20023190089B250291ED269
:1006100089B292B25023DFF8604C03FB0243CB5CFB
:10062000FF2B09D189B292B25023DFF84C4C03FB67
:1006300002430124CC5408E089B292B25023DFF87F
:10064000384C03FB02430024CC54491CDDE7521C08
:10065000D6E710BC704778B400ABDFF86C4D258846
:100660001D801400621E002C3AD00C782300491C17
:10067000DBB2DC1100AD645D0470401CC3F3801478
:10068000E4B200AD645D0470401CC3F34014E4B2F6
:1006900000AD645D0470401CC3F30014E4B200AD0F
:1006A000645D0470401CC3F3C004E4B200AD645D3B
:1006B0000470401CC3F38004E4B200AD645D0470B8
:1006C000401CC3F34004E4B200AD645D0470401C00
:1006D000DBB213F0010400AD645D0470401CC0E7A0
:1006E00071BC70472DE9F04F83B000265FF0000B1E
:1006F0000024002500208DF8030000208DF8020062
:1007000000208DF8010000208DF800005FF0000946
:100710005FF0000A5FF00008002700208DF8050058
:1007200000208DF80400DFF8540BFFF74EFF3B204C
:100730000600B6B22E2EC0F0B080282083461FFAE5
:100740008BFBBBF14F0F1ED21FFA8BFBB6B25020B2
:10075000DFF8241B00FB06101BF8000001280FD156
:100760001FFA8BFBB6B25020DFF80C1B00FB061003
:100770001BEB00004078002802D15846050002E03B
:100780001BF1010BDBE71FFA8BFBBBF14F0F01D312
:1007900050200500B6B2DFF8E80A35542820834619
:1007A0001FFA8BFBBBF1010F1FD31FFA8BFBB6B2F5
:1007B0005020DFF8C41A00FB06101BF800000128C7
:1007C00010D11FFA8BFBB6B25020DFF8AC1A00FB39
:1007D00006101BEB000010F8010C002802D158464F
:1007E000040002E0BBF1010BDAE71FFA8BFBBBF15F
:1007F000010F01D201200400B6B2DFF8880A345498
:10080000B6B2DFF8800A305CB6B2DFF8741A715CF9
:100810000818022190FBF1F0B6B2DFF868197054A5
:10082000B6B2372E37D2B6B2DFF8580A305CB6B25D
:10083000DFF8501A711811F8011C091D88422ADAD4
:10084000B6B2DFF8400A301810F8010CB6B2DFF883
:10085000341A715C491D88421DDAB6B2DFF8200AED
:10086000305CB6B2DFF8181A711811F8011C491D76
:10087000884210DAB6B2DFF8080A301810F8010C16
:10088000B6B2DFF8FC19715C091D884203DADFF8A3
:10089000F809067001E0761E4BE7B6B2012EC0F0F3
:1008A0008081EDB2AB464F21EDB215F10A00FFF7A2
:1008B00030FE1FFA8BFB834520DA1FFA8BFBB6B2A2
:1008C0005020DFF8B41900FB06101BF800000128C7
:1008D00011D11FFA8BFBB6B25020DFF89C1900FB38
:1008E00006101BEB00004078002804D158468DF814
:1008F00003007F1C02E01BF1010BD4E7EDB2AB4615
:100900000021EDB2B5F10A00FFF70AFE1FFA8BFBDA
:10091000584522DA1FFA8BFBB6B25020DFF858197F
:1009200000FB06101BF80000002813D11FFA8BFBF8
:10093000B6B25020DFF8401900FB06101BEB000098
:1009400010F8010C012805D158468DF8020018F165
:10095000010802E0BBF1010BD2E757EA0800C0B280
:1009600000280ED1502005009DF80400401C8DF891
:1009700004009DF80400062803D3DFF8740A06700B
:100980000FE15FFA88F8B8F1010F1BD1FFB2012F18
:1009900018D19DF802009DF8031051FA80F0EDB2D5
:1009A000B0EB450F07DA9DF80300050000200700B3
:1009B0000020804606E09DF80200050000200700A8
:1009C000002080465FFA88F8B8F1010F09D1FFB224
:1009D000002F06D19DF8020005000020070000202E
:1009E0008046FFB2012F0BD15FFA88F8B8F1000FF3
:1009F00006D19DF803000500002007000020804676
:100A0000B6B2DFF87C083554E4B2A3460021E4B264
:100A1000B4F10A00FFF784FD1FFA8BFB584522DA78
:100A20001FFA8BFBB6B25020DFF84C1800FB061003
:100A30001BEB000010F8010C002811D11FFA8BFBF2
:100A4000B6B25020DFF8301800FB06101BF800008B
:100A5000012805D158468DF8000019F1010902E07E
:100A6000BBF1010BD2E7E4B2A3464F21E4B214F18B
:100A70000A00FFF74EFD1FFA8BFB834522DA1FFAAF
:100A80008BFBB6B25020DFF8F01700FB06101BF806
:100A90000000012813D11FFA8BFBB6B25020DFF8FB
:100AA000D81700FB06101BEB000010F8010C002803
:100AB00005D158468DF801001AF1010A02E01BF138
:100AC000010BD2E75AEA0900C0B200280ED101207A
:100AD00004009DF80500401C8DF805009DF80500F8
:100AE000062803D3DFF8080906705AE05FFA89F98F
:100AF000B9F1010F1DD15FFA8AFABAF1010F18D1CD
:100B00009DF800009DF8011051FA80F0E4B2B0EBBE
:100B1000440F07DA9DF80100040000208146002000
:100B2000824606E09DF80000040000208146002077
:100B300082465FFA89F9B9F1010F0BD15FFA8AFA9F
:100B4000BAF1000F06D19DF8000004000020814694
:100B5000002082465FFA89F9B9F1000F0BD15FFAE4
:100B60008AFABAF1010F06D19DF8010004000020B5
:100B7000814600208246B6B2DFF808073454B6B288
:100B8000DFF80007305CB6B2DFF8F416715C0818C5
:100B9000022190FBF1F0B6B2DFF8E8157054761E32
:100BA0007BE6BDE8F78F10B500200400E4B2062C08
:100BB00080F08880E4B2002C26D10321102000F0C0
:100BC00070FEDFF8301808600321302000F069FE65
:100BD000DFF824180860DFF82408DFF8181809681F
:100BE0000160DFF81C08DFF80C1809680160DFF805
:100BF0001408DFF8041809680160DFF80C08DFF852
:100C0000F817096801605BE00321102000F049FE3D
:100C1000DFF8F81708600321302000F042FEDFF80B
:100C2000F0170860DFF8CC070068DFF8E017096804
:100C30000818DFF8C0170860DFF8BC070068DFF8A5
:100C4000D01709680818DFF8B0170860DFF8AC079C
:100C50000068DFF8B8170968884206D2DFF89C07F9
:100C6000DFF8A817096801600DE0DFF8A007006849
:100C7000DFF88C170968884205D2DFF88407DFF8AF
:100C80008C1709680160DFF87C070068DFF88017BF
:100C90000968884206D2DFF86C07DFF87417096824
:100CA00001600DE0DFF868070068DFF85C1709688D
:100CB000884205D2DFF85007DFF854170968016051
:100CC000641C73E7DFF82C070068DFF83017096849
:100CD000401ADFF82C170968401A8008DFF82C1733
:100CE0000860DFF814070068DFF818170968401A71
:100CF000DFF814170968401A8008DFF81417086035
:100D000010BD30B5DFF80407006801F0F7F8010006
:100D1000DFF80007006801F011F9DFF8FC16096838
:100D200001F080F9DFF8F4160860DFF8E4060068E7
:100D300001F0E4F8DFF8E816096801F0FFF8DFF8E1
:100D4000E416096801F06EF9DFF8DC160860DFF8D8
:100D5000DC06006801F0D2F904000D00DFF8BC06E3
:100D60000068DFF8C816096801F0E8F85FF07E5106
:100D700001F058F9DFF8B816096801F0E7F9DFF873
:100D8000A816096801F060FA01F0B8F9DFF8A426A6
:100D9000DFF8A43601F09AFA22002B0001F068FB7C
:100DA00001F0DAFBDFF884160860DFF890060068CF
:100DB00001F0A4F904000D00DFF86C06006801F0F2
:100DC0009DF9DFF87026DFF8703601F07FFA220017
:100DD0002B0001F04DFB01F0BFFBDFF8601608604F
:100DE00030BD30B5DFF84406016891F00041DFF80E
:100DF0005006006801F016F90500DFF82C060168BE
:100E000091F00041DFF83C06006801F00BF9290081
:100E100001F01AFA0400DFF83006046030BD00006B
:100E20000000FA0538B5DFF8240600680400DFF892
:100E30002006006805002000002101F0D5FB06D245
:100E4000DFF81006210001F0FFF904000AE020009D
:100E5000002101F0DBFB05D2DFF8FC05210001F0E9
:100E6000F3F904002800002101F0BEFB06D2DFF8F0
:100E7000E405290001F0E8F905000AE02800002156
:100E800001F0C4FB05D2DFF8D005290001F0DCF940
:100E900005002000DFF8C41501F0A6FB02D8DFF83A
:100EA000C00504002000DFF8BC1501F0AFFB02D242
:100EB000DFF8B00504002800DFF8A01501F094FB6E
:100EC00002D8DFF89C0505002800DFF8981501F02E
:100ED0009DFB02D2DFF88C0505002000002101F007
:100EE00083FB08D2200001F0A3FB0100C9B200205F
:100EF000FFF744FB12E02000002101F087FB0DD238
:100F0000DFF86405210001F08DF80400200001F0F5
:100F10008FFB0100C9B20120FFF730FB2800002140
:100F200001F062FB08D2280001F082FB0100C9B287
:100F30000020FFF7FCFA12E02800002101F066FB18
:100F40000DD2DFF82405290001F06CF80500280017
:100F500001F06EFB0100C9B20120FFF7E8FA31BDD4
:100F600018ED00E038B5DFF8E0040068DFF8FC14A5
:100F7000096800F0E3FFDFF8F814096801F064F98C
:100F80000400DFF8C4040068DFF8E014096800F02A
:100F9000D5FFDFF8DC14096800F0D0FF0500DFF8AA
:100FA000AC040460DFF8A8040560FFF73BFF31BD27
:100FB00070B5DFF8C0040068DFF8BC1409680818D1
:100FC000400800F09BFFDFF8B41408600020DFF851
:100FD000A8140860DFF89C140860DFF8A00400681B
:100FE00001F08CF8DFF84C24DFF8943401F06EF94E
:100FF00001F0B2FADFF884140860DFF888040068B2
:10100000DFF87814096800F099FF0400DFF878042D
:101010000068210001F006F80500DFF870040068A0
:10102000210000F0FFFF0600DFF8640400683100D3
:1010300001F00AF9DFF858140860DFF85804DFF807
:10104000581409680160DFF848040068290001F0BD
:10105000FBF8DFF84414086070BD00000CED00E000
:1010600010B5DFF834040068DFF82814096800F0D0
:1010700065FF0400DFF824040068401C00F034FF22
:10108000210000F0CFFFDFF8D81301F05FF8DFF8A0
:101090000414096801F0D8F8DFF8D013086010BD17
:1010A00000E100E000E400E0F0B500240025DFF8F6
:1010B000F00328210170DFF8E80300783149897FC7
:1010C000401A0400002C01D5012C3CDADFF8D403CF
:1010D0000078201A0500200000F006FFDFF8C81392
:1010E000096800F09FFF01F009F802000B00D148E9
:1010F000DFF8B81301F0EAF801F02EFA0700280033
:1011000000F0F2FEDFF8A813096800F08BFF00F092
:10111000F5FF02000B00C748DFF8901301F0D6F886
:1011200001F01AFA0600DFF87C030470DFF884038C
:10113000DFF88413096801603800310001F084F899
:10114000DFF874130860F0BD10B5DFF86C030068B9
:10115000DFF86013096800F0F1FE0400DFF85C03BB
:101160000068401C00F0C0FE210000F05BFFDFF8CB
:10117000501300F0EBFFCF49096801F065F8BC4956
:10118000086010BDA036FF1F10B572B60420FFF72F
:1011900043F900215720FFF75EF901214420FFF7B2
:1011A0005AF902210020FFF756F9FFF767F9FFF718
:1011B00080F9FFF786F9FFF794F9C24801F072FA57
:1011C0000FF20921672001F080FB0FF2253110207A
:1011D00001F07BFB4FF47A7001F0BEFB032130205D
:1011E00000F05FFB00F08AFE8D49086000200400DB
:1011F000E4B2072C0ED20321302000F052FB80B263
:1012000000F07CFE8649096801F01EF884490860F8
:10121000641CEDE7824800685FF0824100F096FFB1
:101220007F490860A84800684FF47A7148434FF43A
:101230007A7190FBF1F1002001F09AFB0FF24D0161
:10124000542001F042FB4420FFF7F8F862B601F0A9
:101250008BFA4FF416729B490848FFF7FCF9FFF729
:1012600041FA6B48026869480168984801F0BEFB82
:101270000A2001F071FBEAE76823FF1FA810FF1F97
:101280002836FF1F6436FF1FBC37FF1F80B590480C
:10129000006850F001008E4908608E480078401CBC
:1012A0008C4908707D480068401C7C490860FFF745
:1012B000D7FE82480068401C80490860FFF744FF61
:1012C00084480078052845D1824800210170824871
:1012D0000068401C8049086080480078401C7F49B5
:1012E00008707E480078042812D1012000F06FFDBC
:1012F00060490860022000F06AFD5F490860012033
:1013000000F07BFD022000F078FD744800210170A0
:10131000714800684FF47A71884254D36E484FF494
:101320007A7101605748006800F0E8FE414A424B7C
:1013300001F09EF801F010F9524908605148006828
:101340006749096801F050F93DD84E486449096879
:10135000016038E05F480078012808D1FFF723FCDE
:10136000FFF7CFFCFFF73DFDFFF7FCFD2BE05948F1
:101370000078022811D15B480068401C5949086078
:101380005848006814281EDBFFF712FE554800215C
:10139000016042480021016015E04E4800780328B2
:1013A00011D151480068401C4F4908604E48006800
:1013B000022808DBFFF778FE4B48002101603F4818
:1013C00000210160FFE701BD2220000038B50024A4
:1013D0004648056845485FF0FF3101601D20040064
:1013E0000120A040054201D001F092F931BD00007A
:1013F000BD37FF1F2837FF1F2C37FF1F1837FF1F70
:101400001C37FF1F2037FF1F2437FF1F3037FF1FF8
:101410003437FF1F300CFF1F3C0CFF1FF036FF1F3F
:10142000340CFF1F400CFF1FF436FF1FF836FF1F60
:10143000380CFF1F7B14AE47E17A743FFC36FF1F68
:10144000440CFF1F480CFF1F4037FF1F4437FF1F8E
:101450004837FF1F00003442000034C20100C84278
:101460000000C8420000C8C2000080BF4C37FF1F08
:101470005037FF1F5837FF1F5C37FF1F0037FF1F14
:10148000E17A943FDC36FF1F4C0CFF1F3837FF1FFB
:101490000437FF1F0837FF1F0C37FF1FE036FF1F01
:1014A000C037FF1FC137FF1F500CFF1FE17A843F79
:1014B0003C37FF1F1037FF1F1437FF1FE836FF1F91
:1014C00000002041500EFF1F6837FF1FDC5C00004A
:1014D0000C710340BF37FF1F5437FF1FBE37FF1F7C
:1014E0002C0CFF1FE436FF1FEC36FF1FA0900440BA
:1014F00080B501F02FF901BD70B504000D00160094
:101500004FF480712000C0B200F096FC6DB2002D47
:1015100011D1E4B260115D4951F82000E4B26111CB
:101520005A4A52F821104969012214F01F039A40C7
:101530009143416136E0E4B26011544951F8200012
:10154000E4B26111514A52F821104969012214F0A4
:101550001F039A4011434161F6B2002E11D1E4B24B
:1015600060114A4951F820000068012114F01F025F
:1015700091408843E4B26111444A52F82110086056
:1015800010E0E4B26011414951F8200000680121E7
:1015900014F01F0291400843E4B261113B4A52F833
:1015A0002110086070BD38B504000D00E4B2601170
:1015B000364951F82000406914F01F01C840C007A7
:1015C00003D46321324801F038FAEDB2002D11D175
:1015D000E4B260112D4951F820000068012114F097
:1015E0001F0291408843E4B26111284A52F8211049
:1015F000086010E0E4B26011244951F8200000684E
:10160000012114F01F0291400843E4B261111F4A06
:1016100052F82110086031BD10B50400E4B2601129
:101620001A4951F82000406914F01F01C840C00752
:1016300003D47B21164801F000FAE4B2601113498B
:1016400051F82000012114F01F029140C16010BD2B
:1016500010B50400E4B260110C4951F82000406953
:1016600014F01F01C840C00703D58C21084801F0C1
:10167000E4F9E4B26011054951F82000006914F062
:101680001F01C84010F0010010BD0000A40BFF1F97
:10169000C459000038B5040064B26511EDB2002DE4
:1016A00002D0012D11D021E0A348006850F0006065
:1016B000A1490860A148006830F090009F49086087
:1016C0009E489E490968016014E09D48006850F0FA
:1016D00000609B4908609948006830F410409749C1
:1016E0000860964895490968016003E033219548F0
:1016F00001F0A3F964B22000002800F089800128DD
:1017000000F08680032800F0838008284ED0092846
:1017100051D00A2854D00B2857D00C285AD00D2865
:101720005DD00E2860D00F2863D0102870D011280B
:1017300064D0122867D013286AD0142868D01A28D9
:1017400066D01D2864D01E2862D0202861D02128B0
:101750005FD023285DD024285CD025285FD02628A0
:1017600062D0272865D0282868D029286BD02A285D
:101770006ED02B2871D02C2874D02D2877D02E280D
:101780007AD02F287DD0302800F0858031287DD078
:10179000322800F0808033287DD034287BD03A284E
:1017A00079D03D2877D03E2875D075E000212020E3
:1017B00000F042FB74E00021212000F03DFB6FE0CF
:1017C0000021072000F038FB6AE00021082000F02B
:1017D00033FB65E00021222000F02EFB60E00021B9
:1017E000232000F029FB5BE00021402000F024FBD7
:1017F00056E00021412000F01FFB51E0002198201D
:1018000000F01AFB4CE00021992000F015FB47E0A6
:1018100046E045E00021802000F00EFB40E0002182
:10182000812000F009FB3BE00021822000F004FB56
:1018300036E00021832000F0FFFA31E00021202073
:1018400000F0FAFA2CE00021212000F0F5FA27E060
:101850000021242000F0F0FA22E00021252000F0F1
:10186000EBFA1DE00021262000F0E6FA18E0002146
:10187000272000F0E1FA13E000212A2000F0DCFA32
:101880000EE000212B2000F0D7FA09E00021112002
:1018900000F0D2FA04E003E09A212A4801F0CDF8E2
:1018A00031BDF8B504000D0064B2661100272900AF
:1018B00049B2200040B200F01CF876B2224850F83D
:1018C000260000680006F8D576B21F4850F82600BA
:1018D0000069070076B21C4850F82600006830F016
:1018E000800076B2184951F826100860380080B29E
:1018F000F2BD30B440B2421110F01F0352B2124C8C
:1019000054F8224049B28D0015F00C0555F05005F1
:10191000A56052B20C4C54F822400425E56052B246
:10192000094C54F82240DBB213F01F0555F0400576
:10193000256030BC704700003C80044018800440A3
:1019400030800440685A0000900BFF1F2DE9F84FCB
:1019500004000D0016001F0064B2002C0DD064B20C
:10196000012C02D064B2022C02D16DB2022D04DB34
:101970002E21DFF8B00401F060F8DFF8AC04006855
:101980004FF47A7148434010B04204D22F21DFF85F
:10199000940401F052F864B2002C03D0022C66D0FB
:1019A00049D380E0DFF88404006850F08070DFF8ED
:1019B0007C1408606DB2002D0BD0022D15D00ED313
:1019C000042D1ED017D3062D27D020D3072D2AD0C3
:1019D0002FE04FF48061412000F02EFA2AE04FF40E
:1019E0004071042000F028FA24E04FF440710520F3
:1019F00000F022FA1EE04FF44071062000F01CFABD
:101A000018E04FF44071072000F016FA12E04FF48E
:101A10008061652000F010FA0CE04FF480616620D0
:101A200000F00AFA06E04FF48061672000F004FA43
:101A300000E0D5E037E0DFF8F403006850F0007014
:101A4000DFF8E81308606DB2002D02D0012D06D03A
:101A50000BE04FF440710C2000F0EEF906E04FF47B
:101A600040710D2000F0E8F900E0B9E01BE0DFF87C
:101A7000C003006850F08070DFF8B41308606DB2E6
:101A8000002D02D0012D06D00BE04FF440710A204A
:101A900000F0D2F906E04FF440710B2000F0CCF9D1
:101AA00000E09DE0FFE7DFF8800300684FF47A7103
:101AB0004843401080465FEA1840B0FBF6F081468C
:101AC000002082461FFA89F959FA0AF0012802DB40
:101AD0001AF1010AF6E75FFA8AFABAF1080F05D39C
:101AE0004FF48671DFF83C0300F0A7FF38FA0AF0E4
:101AF000B0FBF6F0814664B2002C03D0022C17D064
:101B00000BD320E01FFA89F919F1010000FB07F05F
:101B10006421B0FBF1F0834615E01FFA89F919F151
:101B2000010000FB07F06421B0FBF1F083460AE0FE
:101B30001FFA89F919F1010000FB07F06421B0FBDD
:101B4000F1F08346FFE76DB264B2DFF8E80250F8C7
:101B5000240010EBC5006DB264B2DFF8D81251F862
:101B6000241011EBC501C96831F00401C1606DB2E8
:101B700064B2DFF8C00250F8240010EBC500282141
:101B8000C16064B2DFF8AC0250F824005FFA8AFA50
:101B90001AF0070151F02801016064B2DFF89402E5
:101BA00050F824001FFA89F9C0F8089064B2DFF8F1
:101BB000840250F824000021C1646DB264B2DFF8E1
:101BC000740250F8240010EBC5001FFA8BFBC0F81C
:101BD00010B064B2DFF85C0250F8240000214160CC
:101BE000BDE8F18F2DE9F04104000D0016005FF013
:101BF000000864B2002C0ED064B2012C02D064B292
:101C0000022C02D16DB2022D05DB40F24711DFF844
:101C1000140200F012FF64B2002C03D0022C13D087
:101C200009D31AE0652E05D34FF4A671DFF8F4014D
:101C300000F003FF11E0652E05D34FF4A871DFF823
:101C4000E40100F0FAFE08E0652E05D34FF4AA7116
:101C5000DFF8D00100F0F1FEFFE764B2DFF8D40155
:101C600050F8240080688046B8F1000FF5D064B2C7
:101C7000002C03D0022C13D009D31AE018F1010074
:101C800000FB06F06421B0FBF1F0070011E018F151
:101C9000010000FB06F06421B0FBF1F0070008E052
:101CA00018F1010000FB06F06421B0FBF1F0070021
:101CB000FFE76DB264B2DFF87C0150F8240010EB4E
:101CC000C5000761BDE8F08110B5040064B2012CC5
:101CD00007D064B2022C04D04FF43571514800F0A3
:101CE000ACFE64B22000012802D0022811D021E00D
:101CF0004E48006850F000704C4908604FF4E061B5
:101D00000C2000F099F84FF4E0610D2000F094F8F9
:101D100015E04748006850F08070454908604FF46E
:101D2000C0610A2000F088F84FF4C0610B2000F079
:101D300083F804E04FF447713A4800F07EFE64B245
:101D40003C4850F82400406D50F0040064B239491A
:101D500051F82410486564B2364850F82400D0F891
:101D6000800050F0080064B2324951F82410C1F8E4
:101D7000800064B22F4850F824000021C16464B28E
:101D80002C4850F824004FF6FF71816064B2294856
:101D900050F82400D0F8800050F0010064B22549CA
:101DA00051F82410C1F8800064B2224850F8240091
:101DB000406D50F0010064B21E4951F8241048658E
:101DC00064B21C4850F824000021416010BD38B5B1
:101DD000040064B2012C07D064B2022C04D040F29B
:101DE0003931104800F029FE64B2124850F824003E
:101DF00040680500280000B232BD10B5040064B28E
:101E0000012C07D064B2022C04D040F247310548BF
:101E100000F013FE64B2074850F82400002141602E
:101E200010BD0000D05A00006837FF1F3C800440FE
:101E300030800440980BFF1F10B4294A12684FF4F9
:101E40000073C0B24409A3401A43254B1A60C0B2C4
:101E50004211244B53F82220012310F01F04A34009
:101E6000C2F8A030C0B210F01F02C0B243111D4C26
:101E700054F8233043F8221010BC704710B4184AAD
:101E800012684FF40073C0B24409A3401A43144BC4
:101E90001A60C0B24211134B53F82220012310F0F4
:101EA0001F04A340C2F8A03031F4E061C0B210F0CA
:101EB0001F02C0B243110B4C54F8233053F82220B8
:101EC00012F4E0621143C0B210F01F02C0B243111D
:101ED000044C54F8233043F8221010BC7047000023
:101EE00038800440000CFF1F002840F10980F446B0
:101EF000404200F005F850F000406047002800BF65
:101F00000AD0B0FA80F18840D1F19D01C9050206DE
:101F100072F1004241EB1020704750F8041B61B190
:101F200050F8042BD30744BFA9F101039A180023EA
:101F300042F8043B091FFAD1EFE7704790EA010F1E
:101F400044BF81F0004100F087B900BF431A4FF051
:101F500000423EBF5340C01AC91800BFD3095FEA10
:101F6000D05C13EB400F34BFB3EB410F40E07CEB90
:101F7000D1530CD342EA012122D8D1EB402009D31E
:101F8000400A28BF5FEA500140EBCC507047401A2E
:101F900015D04002B0FA80F2521C9040400A4FEA3D
:101FA0003C23B3EB026384BF00EB730007E040F413
:101FB00000001A16DB07C2F10102D0401843704737
:101FC000182BFCDC31FA03F202FA03F3591A38BF7A
:101FD00042F00102D2EB40203CBF4000ACF1010CCA
:101FE0005FEACC5CC20572F100414CEB50207047B7
:101FF00013EB400F0FD24B0009D0ACEBD153022BA7
:1020000003DB4902172BDDDD70479143401A430083
:10201000D5D10020704713EB410FD0D36FF00000F3
:102020007047FF00FF2212EAD05C1DBF12EAD153B5
:10203000944593422BE09C44D30780EA01021A4066
:1020400043EA002043EA0121A1FB0030410038BFF0
:1020500040007CF17F010BDBFE294ADA5B0842EA93
:10206000C15153EA006373F1004C51EB10207047EB
:10207000D1F1080CDCF120012FDB5B0810FA01F133
:102080000B4373F1004120FA0CF050417047944526
:102090001CBF02EAD153934280EA010202F00042DF
:1020A0001DD0400019D0490017D05BB9634514D04A
:1020B0000902B1FA81F39940BCEB030CC00140F076
:1020C0000040C1E70002B0FA80FC10FA0CF0B3EB5C
:1020D0000C0CC90141F00041B6E710007047400008
:1020E0000AD0490008D010F1807F94BF11F1807FA1
:1020F00002E042F0FF407047D04370475FF0FF0CB2
:102100001CEAD05114BF614506E0C110400721F020
:10211000E04101F16051704779B900F000410002DF
:102120000AD0B0FA80FC00FA0CF001F16051A1EB8A
:102130000C5101EBD0214005704741020CBF40F427
:10214000E0016FF0000100207047000010B5FF2390
:1021500013EAD0541DBF13EAD1529C429A4239E08F
:10216000A41ADA0780EA0103134042EA012142EA95
:102170000020421A3CBF641E01EB4202090AB2FB76
:10218000F1FE01FB1E221202B2FBF1F001FB102254
:102190006EF30F201202B2FBF1FE4EEA00207F34F4
:1021A00006DDFE2C24DA53EA500050EBC45010BD7B
:1021B000D4F1020401FB1E2240F08071192C1DDCB9
:1021C00021FA04F0C4F12004A140114371F100424E
:1021D000584110BD9C421ABF03EAD1529A420FE007
:1021E00080EA010E0EF00043400004D0490016D1F1
:1021F00043F0FF4010BD490008BFD343180010BD95
:102200009C4205D1D21AF7D001F00041484010BDE0
:102210004A0212BF0846484000F0004010BD4AB9CB
:102220000902B1FA81F2914044B1A418C00140F012
:1022300000409EE7C90141F0004152420002B0FA5D
:1022400080F4A040141B94E790EA010F44BF81F092
:102250000041FFF77BBE00BF421A3CBF801A8918BD
:102260004FF0004CC0F3C752FF2A24D0C1F3C7532C
:1022700013B3D21AD2F1190327DD4CEA01214CFA2B
:1022800003F321EA0303D140C20D4CEA00204018B9
:1022900034BF20EA0C004CEA5000D20553EA006338
:1022A00073EB0C0C52EB1020420012F1807F38BF10
:1022B0007047C00DC0057047490212BF9A4200EB3B
:1022C0005120F8E7D2F11703D9D57047B0B581EAAC
:1022D000030C0CF0004C40F2FF7515EA11541DBFC1
:1022E00015EA1357AC42AF4239E0E41923EA4553EB
:1022F00043F48013C90241F0004141EA505EC70235
:102300001100A7FB020200284FF00000EEFB0120A5
:102310004FF00001E3FB072118BF42F00102401813
:1023200000214941E3FB0E01A4F580640F0302D2B2
:1023300052004041494154F101046CDD470872F1FB
:10234000004250F1000051EB0451A1F580115CBF37
:1023500041EA0C01B0BD4CEA05510020B0BD05EAD0
:102360001357AC4214BFAF4241E050EA410E1CBFCC
:1023700052EA430E02E061460020B0BD24423C44D4
:102380001BD15FEA070EF6D0090302BF0146002009
:10239000AEF1140EB1FA81F7AEEB070401FA07FEB5
:1023A0000C37C7F1200100FA07F7C8404EEA000ECB
:1023B00023EA455343F48013A2E733F00043B3FA12
:1023C00083F704BFB2FA82FE77440B3FE41BB7F1F8
:1023D000200E2FBF02FA0EF3BB40C7F1200E22FAE7
:1023E0000EFE38BF43EA0E03BA40641C82E750EA8F
:1023F000410E14BF52EA430E6FF000014FF4001774
:1024000017EB430F8ABF194617EB410FB5E74CEAAC
:1024100005510020B0BDD4F10104B4F120070FDA5A
:10242000C4F12007520828BF42F0010210FA07F554
:1024300001FA07F7E1BF2A43E0403843E1400FE0EB
:10244000352C98DCC7F1200452EA400220FA07F24A
:1024500018BF42F0010231FA07F0A1400A430021FF
:1024600072F1004250F1000051EB0C01B0BD0000D0
:1024700070B44FF0004591EA030C44BF6B4000F08C
:1024800065BB00BF841A71EB030603D2001BB14188
:10249000121973414FF4001C1CEB410F34BF7CEB4D
:1024A000430443E00C0DA4EB1356352E50DC45EAF3
:1024B000C323DB0A45EAC121C912B6F120050DDDAF
:1024C00063FA05F6EB4086EA0305124218BF45F0B1
:1024D0000105C01851F100010CD213E062FA06F5B3
:1024E000F2405540F3415A40B340F3405A408018FF
:1024F000594107D349085FEA30005FEA350528BF34
:1025000045F0010501F58011420875F1004250F1D6
:10251000000041EB045170BC4FF4001C1CEB410F58
:1025200038BF70470020090D090570471CEB410FAB
:1025300010D252EA43060BD0BCEB410F05D80C0D6C
:10254000AB43661E342EB5DD02E0AB438018594123
:1025500070BC704770BC70474FEAF17CBCF1E04C36
:102560002CBFBCF5001F11E05FEA4C0C34BFBCF17E
:102570007F5F2EE05FEA9C0C4FEA0C1C4FEA3C0C9C
:10258000C10071F100414CEB50707047C90241EA43
:102590005051C00218BF41F0010141F000414FEA23
:1025A0006C50C0F10900212810D240EACC7CCCF15B
:1025B000200C11FA0CF070F10040CCF1200C21FA43
:1025C0000CF00CF0004C40EB0C0070474FEACC7064
:1025D0007047490011F5001F04D84FEACC10FF30B6
:1025E000C0057047C81770474FF0807C1CEB400F48
:1025F00094BF1CEB410F05E040EA010C5FEA4C0C74
:1026000001D28142704718BF884270474FF0807CEA
:102610001CEB400F94BF1CEB410F05E040EA010C9E
:102620005FEA4C0C01D28842704718BF8142704764
:102630004100090E7F3915D4D1F11F0114D4400097
:1026400007D2C00140F00040C84048BF6FF00040D2
:102650007047C00140F00040C8404CBF4FF0004000
:10266000404270470020704700424FF0004058BF82
:10267000C043704710B440B24109784A012310F0BA
:102680001F04A34042F8213010BC704710B440B280
:102690004109734A012310F01F04A34042F821307E
:1026A00010BC704710B504006E48046000F07DF85F
:1026B0000028FBD000F002F8002010BDE0B501209A
:1026C00002904FF416700190002000901B23654883
:1026D00002686549002000F0EFFA6448006840088D
:1026E0004000624908605720FFF7D0FF604800684B
:1026F00050F001005E4908600020FFF7BBFF5D4914
:102700001B20FFF799FB5C491D20FFF795FB07BDD8
:1027100080B55A4890F90000042814D15748032185
:1027200001705720FFF7B2FF55485FF0006101606C
:102730004E48006850F001004C4908605148494932
:102740000968016005E05720FFF7A0FF4B48022110
:10275000017001BD4948012101704548006850F0F1
:10276000010043490860704780B544480421017066
:1027700043485FF0FF3101605720FFF77BFF3F4880
:1027800090F9000001280FD03C4890F90000022881
:10279000F5D13A480421017039485FF0FF310160FA
:1027A0005720FFF767FFEAE701BD10B582B00024AC
:1027B00000208DF8000000F0B8FB8021122000F00E
:1027C000C7FC002804D1304800F010F9002043E095
:1027D000322000F0C1F80B22012100A800F0F0FC2B
:1027E000002804D1294800F001F9002034E09DF8C8
:1027F0000010274800F0FAF826480178264800F033
:10280000F5F89DF80000212825D10020040021487A
:102810000078A4B280B2844218D2A4B21F4810EB50
:1028200044004178A4B21D4810F8140080B200F0B2
:102830008FFC002808D1A4B2184810F814101848CA
:1028400000F0D4F8002007E0641CE0E7154800F031
:10285000CDF8012000E0002016BD000000E100E0FE
:1028600080E100E04C0EFF1F50F00F400C80004054
:102870002480004003010200130109001C0BFF1F0C
:10288000A0900440109000401C5C0000BC5C000064
:10289000845B0000840BFF1FFC5B0000200BFF1F0C
:1028A000345C0000A85B000010B504004FF4007019
:1028B00094FBF0F101FB1041002903D01E210B48CD
:1028C00000F0BBF80A48046010BD38B504000D00E4
:1028D000074800680749884203D03021034800F0C8
:1028E000ACF864B2034840F8245031BD045B0000EA
:1028F00008ED00E00000FF1F30B4134C246854F0D2
:102900008074114D2C60114C246854F001040F4D5B
:102910002C600F4C246821000E4C24684FF47A750B
:1029200094FBF5F404FB00F423005C1822008A42B7
:1029300003D2074C2468A242FBD3054C246894427E
:10294000FBD330BC70470000FCED00E0001000E05D
:10295000041000E06037FF1F10B504002000441E83
:10296000002804D04FF47A70FFF7C6FFF6E710BDD9
:1029700038B504000D00002D03D12421174800F0C4
:102980005CF81748006850F40000154908601548C5
:102990000021016064B2200113496A1E425064B2F2
:1029A000114810EB0410C06850F0010064B20E49E9
:1029B00011EB0411C86064B20B4810EB041080687E
:1029C0004008400064B2084911EB0411886064B209
:1029D000054810EB04100321816031BD345A00001A
:1029E0003C80044000700340007103400EB400B509
:1029F00082B003A9009100AB02460121034878444C
:102A00000A3000F037FC06BC5DF810FB793200009C
:102A1000DFF800F0BD0CFF1FDFF800F0E50CFF1F32
:102A2000BFF34F8F3C48006810F4E0603B49084317
:102A300039490860BFF34F8FFEE738B504000D0039
:102A40002A0021003648FFF7D1FFFEE738B5040021
:102A50000D00210049B2042001F099FB200032BD95
:102A600010B50024042001F0ABFB042001F0DEFBD4
:102A7000002841D1002001F0F1FB042001F0D6FB39
:102A8000012801D101200400002001F004FC2548A8
:102A9000FFF7ACFF4FF4FA70FFF75EFFE4B2012CD2
:102AA000EBD1042001F0C2FB0028E6D1042001F0A4
:102AB000BDFB002806D1002001F0EDFB6420FFF7EC
:102AC0004BFFF3E7042001F0B1FB012806D1002001
:102AD00001F0E1FB3220FFF73FFFF3E71248FFF779
:102AE00085FFFFF795FF6420FFF736FF0020FFF713
:102AF00093FFFFF795FFC0E710BD10B50B480478B2
:102B0000E4B20F200A4900FB0412E4B22100094894
:102B1000FFF76CFF10BD00000CED00E00400FA05AB
:102B2000605B0000A85C0000DC5B000004ED00E0DE
:102B30001404FF1F5059000070B44FF0004591EA93
:102B4000030F44BF6B40FFF79DBC00BF841A71EBBD
:102B5000030604D26E40001BB141121973414FF4B9
:102B6000001C1CEB410F34BF7CEB430684E00C0DD2
:102B7000A4EB1356362E7DDC012E43DC45EAC3233D
:102B800043EA525312BFD20292025B08240545EA7F
:102B9000C12141EA5051D2EBC020994125D407D13F
:102BA000B0FA80F610FA06F164D00020203608E072
:102BB000B1FA81F6B140C6F1200220FA02F21143C7
:102BC000B0404FEAF474B4EB465434F001064FEAD7
:102BD00074040AD8D6F50016760D04F00044F040CF
:102BE00061FA06F25040F1404840C00A40EA4150C4
:102BF00021F0004128BF5FEA500550F1000044EB8E
:102C0000D12137E045EAC323DB0A45EAC121C90ADD
:102C1000B6F120050EDD42EA0242120CC5F1200693
:102C200003FA06F6EB4042EA06056D42984161F16F
:102C300000010DE062FA06F5F240554063FA06FC29
:102C400082EA0C02F3405A406D42904161EB03016D
:102C500011F4801F05D1641E620502D06D00404151
:102C6000494121F48011430875F1004350F10000FF
:102C700041EB045170BC70471CEB410F15D223F09F
:102C8000004352EA43060BD04FEA4C0CBCEB410F19
:102C900004D80C0D661E342EB7DDEBE7801A99417F
:102CA00050EA410608BF0021E4E708BF1CEB430FD0
:102CB00028BF6FF00001DDE72DE9F44F82B004007A
:102CC0000D001E009DF93070DDF834807FB2002FBA
:102CD00002D15FF0010A0DE07FB2012F02D15FF057
:102CE000020A07E07FB2022F02D15FF0040A01E07E
:102CF0005FF0100A7FB2002F05D17848854202D3D9
:102D00007748A8421DD27FB2012F09D1734885426E
:102D100006D37448A84203D315F00300032810D14A
:102D20007FB2022F09D16D48854206D36E48A84272
:102D300003D315F00300002803D041216B48FFF7AF
:102D40007CFEB8F5004F03D343216848FFF775FEBA
:102D50006748006850F002006549086065480068EF
:102D600050F002006349086064B260016249455056
:102D700064B2600100F1804010F5104002990161D9
:102D800064B2600100F1804010F5104000218180A4
:102D900064B2600100F1804010F510405FFA8AFAD9
:102DA000A0F814A07FB2380210F4E0607FB217F0F0
:102DB0000701084364B2610101F1804111F510413E
:102DC000C88064B2600100F1804010F510404146B7
:102DD0004904490CC18264B2600100F1804010F5E1
:102DE000104041464904490CC1834448006830F012
:102DF00080004249086064B2600100F1804010F533
:102E000010405FFA8AFAC0F808A064B2600100F1CD
:102E1000804010F510400021C1600E98C00702D418
:102E2000D8F1000000E0002064B2610101F18041AE
:102E300011F51041886164B2600100F1804010F525
:102E400010404CF20A018183F6B27009313050F023
:102E5000800064B22A4960542A493000C0B2FEF7AB
:102E6000EBFFA80910F00700C0B24001834628001C
:102E7000103810F03F00C0B2C0008DF800009DF87F
:102E8000000010EB0B0B5FFA8AFA1BEBCA00401E26
:102E900081465FFA89F95FFA8BFBD9450ED3002290
:102EA00000215846C0B2FEF727FB4FF48171584607
:102EB000C0B2FEF7C1FF1BF1010BEAE71248006840
:102EC0000121A14088431049086010480068012191
:102ED000A14008430D490860BDE8F78F10F00F408E
:102EE00013F10F4012F10F4010F10F409C5A0000F7
:102EF000408004403C80044000900040008000403E
:102F000000100240000101000C80004024800040BD
:102F100001B4BDF80000002805D0BDF80000401E37
:102F2000ADF80000F5E701B0704780B5012201213E
:102F30001A20FEF7E1FA012201211920FEF7DCFA3E
:102F400023211A20FEF79AFF23211920FEF796FF6E
:102F500001BD80B57A48012101607A4801210160F4
:102F60004FF4C870FFF7D4FF77480021016077481D
:102F70000068002804D1744801210160002016E097
:102F80007148012101606E48002101604FF4C87052
:102F9000FFF7BEFF6B48002101606C480068002805
:102FA00004D0694801210160002000E0012002BD39
:102FB00080B56448002101606148002101604FF440
:102FC000C870FFF7A5FF5F48012101604FF4C8708A
:102FD000FFF79EFF5A48012101604FF4C870FFF7C8
:102FE00097FF01BD80B55748002101604FF4C870BC
:102FF000FFF78EFF5248002101604FF4C870FFF7C1
:1030000087FF5048012101604FF4C870FFF780FF2F
:103010004C48002101604FF4C870FFF779FF01BDF3
:1030200080B54848002101604FF4C870FFF770FF79
:103030004348012101604FF4C870FFF769FF414820
:10304000012101604FF4C870FFF762FF3D48002185
:1030500001604FF4C870FFF75BFF01BD80B53948D0
:10306000002101603848002101604FF4C870FFF76B
:103070004FFF3448012101604FF4C870FFF748FF4B
:1030800032480068002807D02F48012101602D48F0
:1030900000210160002006E02B4801210160294841
:1030A00000210160012002BD38B505000824200080
:1030B000441EC0B2002818D0280603D5204801219C
:1030C000016002E01E48002101606D004FF4C870ED
:1030D000FFF71EFF1B48012101604FF4C870FFF786
:1030E00017FF184800210160E1E731BD38B5082419
:1030F00000251548002101602000441EC0B20028B0
:1031000015D06D000F48002101604FF4C870FFF723
:10311000FFFE0C48012101604FF4C870FFF7F8FE74
:103120000A4800680028E7D055F00105E4E70648A2
:1031300001210160034800210160EDB2280032BD89
:103140006400FE436800FE43E402FE436402FE4363
:1031500070B504000D0000262900C9B2200080B21D
:1031600000F00AF8002805D1761CF6B2142EF3D12F
:10317000002000E0012070BD38B504000D00FFF70D
:10318000E8FE002801D1002019E04220FFF78CFF63
:10319000FFF764FF002803D1FFF70AFF00200EE0CD
:1031A0002000C0B2FFF780FFFFF758FF2800C0B231
:1031B000FFF77AFFFFF752FFFFF7FAFE012032BD5B
:1031C000F8B504000D00160000273200D2B2290025
:1031D00089B2200000F00AF8002805D17F1CFFB258
:1031E0001E2FF2D1002000E00120F2BD70B50400D6
:1031F0000D001600FFF7ADFE002801D1002037E0DA
:103200004220FFF751FFFFF729FF002803D1FFF706
:10321000CFFE00202CE03000C0B2FFF745FFFFF7E3
:103220001DFFFFF7C5FEFFF794FE002801D1002027
:103230001EE04320FFF738FFFFF710FF002803D1FF
:10324000FFF7B6FE002013E0ADB2002D0DD0FFF762
:103250004DFF2070ADB2012D02D1FFF7E1FE01E07C
:10326000FFF7C0FE641C6D1EEEE7FFF7A1FE012014
:1032700070BD00002DE9F04FA1B0804617461D46F5
:10328000029102AE0020706211AC6FF000490AE0BA
:1032900017F8011B0298C0470290002800F07C82BA
:1032A000706A401C7062387808B9706A76E2252826
:1032B000EED10020F06030617061B061F061306289
:1032C00001E040F0010017F8011F2029F9D023295F
:1032D0000ED02B2904D02D2906D030290CD00FE098
:1032E00040F0020080B2EEE740F0040080B2EAE76E
:1032F00040F0080080B2E6E740F0100080B2E2E75C
:103300002A290DD129680A1D2A600968F16200295D
:1033100004D54942F16240F0040080B27F1C11E004
:103320000021F16209E0F16A494505D001EB810312
:1033300002EB43013039F1627F1C3A78A2F130018F
:103340000A29F0D339782E291CBF4FF0FF31B16222
:103350001CD117F8011F2A2906D129680A1D2A60E5
:103360000968B1627F1C11E00021B16209E0B16A15
:10337000494505D001EB810302EB43013039B162CD
:103380007F1C3A78A2F130010A29F0D330863978CF
:103390000FF6CC3000F08AFF08B117F8010B8DF85A
:1033A0003A009DF83A00682804D1387868280AD194
:1033B000622005E06C2804BF38786C2803D17120A6
:1033C0008DF83A007F1C11A8B0603A781046253875
:1033D00025D01C3875D0001F022872D9133800F090
:1033E0009C8009386DD0801E00F03781401E00F0AF
:1033F000DD80401E022864D9001F00F0D780401FE6
:1034000034D0401E00F08980401E24D0C01E0CD055
:10341000801E00F08280C01E00F07F8026E1F068F0
:10342000411CF160252101552AE12868011D296010
:1034300000687060B26A002A03D500F043FF306173
:103440001EE1002100F05AFF00281ABF7168401ADF
:10345000B06A306114E12868011D2960006800210C
:10346000CDE9000111A870607821F2E09DF83A00E2
:10347000622818D0682806D06A280BD06C2819D08A
:10348000712807D016E02868011D2960716A00685C
:103490000180F5E02A68101D2860706AC117126863
:1034A000C2E90001ECE02868011D2960716A00682A
:1034B0000170E5E02868011D2960716A00680160FB
:1034C000DEE02868C01D20F007002860034603F1F5
:1034D00008002860D3E90001CDE90001002904D5E6
:1034E000F068411CF1602D210DE0308E810704D57C
:1034F000F068411CF1602B2105E0C00704D5F0689D
:10350000411CF16020210155F06811A9401870603C
:10351000114600A800F0D8F9B2E09DF83A306C2BC3
:1035200008BF286811D0712B08BF286802D06A2B09
:1035300028680AD1C01D20F00700286084460CF1DD
:1035400008002860DCE9000103E0011D2960006833
:103550000021CDE90001682B04BFDDE9000180B244
:103560000BD0622B04BFDDE90001C0B205D0742B83
:1035700018BF7A2B04D1DDE900010021CDE900015B
:1035800096F8300000075FD5DDE90001002908BF8B
:10359000002859D042F02000782855D1F068302119
:1035A0000155401C411CF16002554DE09DF83A0068
:1035B00062280CD0682810D06A281AD06C2824D031
:1035C000712816D0742820D07A280CD01DE02868E5
:1035D000011D296090F900001BE02868011D296089
:1035E000B0F9000015E02868011D2960006800217D
:1035F00010E02868C01D20F007002860034603F192
:1036000008002860D3E9000104E02868011D296052
:103610000068C117CDE90001DDE90001002904DAE5
:10362000F068411CF1602D210DE0308E810704D53A
:10363000F068411CF1602B2105E0C00704D5F0685B
:10364000411CF16020210155F06811A940187060FB
:10365000114600A800F0A5F812E0F068411CF160E6
:1036600029680A1D2A600968015509E0F068411CB3
:10367000F160252101551AB1F068411CF160025535
:103680007F1CF06AF168401AB169401A3169401A2A
:10369000F169401A7169401A316AA0EB010A96F883
:1036A0003000400711D420208DF84000BAF1010FFE
:1036B0000BDBD346012310AA00A9404600F038FCDA
:1036C000002869D1BBF1010BF4D1F36811AA00A95C
:1036D000404600F02DFC00285ED130208DF84000DF
:1036E000D6F818B0BBF1010F0ADB012310AA00A91C
:1036F000404600F01DFC00284ED1BBF1010BF4D177
:103700003369726800A9404600F012FC002843D1DA
:1037100030208DF84000D6F81CB0BBF1010F09DB5A
:10372000012310AA00A9404600F002FCA0BBBBF197
:10373000010BF5D1736930697168421800A94046E0
:1037400000F0F6FB40BB30208DF84000D6F820B0EA
:10375000BBF1010F09DB012310AA00A9404600F0CC
:10376000E7FBC8B9BBF1010BF5D196F83000400773
:103770007FF599AD20208DF84000BAF1010FFFF6DA
:1037800092AD012310AA00A9404600F0D1FB18B960
:10379000BAF1010AF5D186E54FF0FF3021B0BDE85E
:1037A000F08F2DE9FA4B86B005462F696F2908BFC7
:1037B000082605D041F02000782814BF0A261026DC
:1037C0003C24D5E9000181468B469DF81820642AE7
:1037D00018BF692A05D1002903DAD9F100096BEB7A
:1037E0004B0BBBF1000F08BFB9F1000F0CD1286BD8
:1037F00050B9082E44D195F83800000740D53B2435
:10380000302087F83B003BE0A4F101084446F01764
:10381000CDE9046048465946DDE9042300F09AFDED
:10382000CDE90201CDE9009BDDE90223DDE90401D8
:10383000A0FB029BDDE90001A0EB09003030C0B223
:103840003A2803D39DF818105139081808F80700D2
:10385000DDE9029BBBF1000F08BFB9F1000F03D0F7
:10386000E868E1198842CFD3082E09D195F83800CD
:10387000000705D5E05D302802D0641E3020E055F9
:10388000C4F13C00A861E119E960296B884207DABC
:10389000081A2862288F4FF6EF710840288710E039
:1038A00000290ED595F8381001F01401102908D11F
:1038B000696B6A69891A2A6A891A0C1A012CA8BFCD
:1038C0002C6208B0BDE8F08B2DE9F24F8EB00546B2
:1038D00004AFD5E90001CDE902019DF8380040F0C0
:1038E00020008DF8000061280BD0286B002848BF0D
:1038F000062005D404BF9DF80000672801D10120EF
:1039000028636968C1F30A5040F2FF7398421CD1E2
:10391000080304BF2868002809D10320A8619DF886
:10392000380061381A2837D30FF2486108E00320C5
:10393000A8619DF8380061381A282AD30FF22C614B
:103940000322E86800F07EFDBBE1010017D12846A4
:1039500000F0B3FD012812DB002400209DF80010C8
:10396000612920D1E968302201F8012B4A1CEA6064
:103970009DF83820612A0CBF782258220FE040F2CF
:10398000FE316A6861F31E526A60441A4FF0FF30DC
:10399000E4E70FF2D451D3E70FF2D451D0E70A7025
:1039A0006969891C696110B90026B0467FE19DF8FC
:1039B0000000612840F09780286B00284CBF21262A
:1039C000461C36B2771CD5E900ABDDE902010022C6
:1039D000002300F095FD3ABF8BF00040CDE902A036
:1039E000CDE902ABA4F104088DF810200DF1110906
:1039F000012F33DBDDE902010022002300F098FDF6
:103A00002CD21C2102A800F0ABFDDDE9020100F080
:103A100035FE0446FF1F012F09DB00F05BFE024666
:103A20000B46DDE90201FFF787F8CDE9020109F253
:103A30000700072104E004F00F0200F8012D241113
:103A4000012C01DB491EF6D5491E5CBF002200F89F
:103A5000012DF9D500F20709012FCBDA0DF1110084
:103A6000A9EB00010DF11107B142B8BF0E4636B205
:103A7000002E31D43046884206DA04A9411849782C
:103A8000082928BF0F2100D2002104AA821800E0D3
:103A9000761E401E12F801398B42F9D00F2904D14D
:103AA00004A941184A78521C4A70002803D504AF73
:103AB000761C08F1040836B2701E0DD4C1190A78BC
:103AC0003032D2B23A2A03D39DF838303A3B9A18B2
:103AD00001F80129401EF2D5286B002840F1E7804B
:103AE000701E2863E3E0DDE902010022002300F0FC
:103AF00007FD05D2DDE9020181F00041CDE90201B7
:103B000024B247F2975060436F4990FBF1F80FFAE7
:103B100088F8C8F107040027DFF8B091012C19DB01
:103B2000DDE902ABE00707D5504659463A464B4619
:103B3000FEF7CCFB82468B466410384649463A462F
:103B40004B46FEF7C3FB07468946002CEAD1CDE978
:103B500002AB21E064429246DFF874B114D0E00772
:103B600007D5504659463A464B46FEF7AFFB8246CC
:103B70008B466410384649463A464B46FEF7A6FB4C
:103B800007468946002CEAD1DDE9020152465B4630
:103B900000F0B8FDCDE902019DF8000066280CBFD9
:103BA00008F10A000620296B4618142EA8BF132618
:103BB00030208DF810000DF11104464F012E33DB3B
:103BC000DDE9020100F070FD04F1080104220A247D
:103BD000B0FBF4F303EB830EA0EB4E00303001F8A2
:103BE000010DB3FBF4F000EB8004A3EB440330338E
:103BF00001F8013D521EEAD101F10804083E012EF0
:103C0000DCDBDDE9020100F04FFD00F06DFD024656
:103C10000B46DDE90201FEF78FFF00223B46FEF76F
:103C200055FBCDE90201CBE70DF11100201A0DF192
:103C300011079DF81110302906D1401EA8F1010886
:103C400017F8011F3029F8D09DF80010662904BF2D
:103C50000FFA88F808F1010103D065290CBF012192
:103C600000212A6B8E1836B2B042B8BF064636B273
:103C7000002E1CD43146814204DAC85D352828BFA5
:103C8000392000D23020CA19521E00E0761E491E8B
:103C900012F801398342F9D0392802D1C85D401C9D
:103CA000C855002903D57F1E761C08F101080FFABC
:103CB00088F0009033B23A469DF83810284600F05C
:103CC0000BF80FB0BDE8F08FA08601000000244083
:103CD0000000F03F84D797412DE9F04786B00646B3
:103CE0008A4690461C46BDF9385000F04CFE406AAA
:103CF00090F80090376B012C02DA01240FF278283B
:103D00004AF02000662807D067287AD16FF00301B7
:103D10008D427CDBBD427ADA6D1C66280AD096F8AB
:103D20003800000702D4BC42B8BF27462DB27F1B23
:103D300048BF0027F068B1692DB2012D21DA4A1C75
:103D400030230B54012F03DA96F83810090702D5F7
:103D500002F80090521CB261EF42B8BF7D422DB212
:103D600069427162EF19A742B8BF3C4624B2F461C0
:103D700022464146B369181800F064FB381BB06254
:103D8000BFE00818AC4216DA2246414600F05AFB62
:103D9000B1696118B161281B7062012F03DA96F8CE
:103DA0003800000705D5F06801F80090F069401C64
:103DB000F061B762A5E02A46414600F043FBB069D6
:103DC0002818B061641B012F03DA96F83810090730
:103DD00004D5411CB161F16800F8019024B2A742FA
:103DE000B8BF3C4624B2224605EB0801B069F3682F
:103DF000C01800F027FBB0692018B061381B706252
:103E00007FE0BAF1610F14D14FF0700A16E0BC42A6
:103E100004DA96F83810090758BF27467F1E48BFB6
:103E20000027BAF1670F14BF4FF0450A4FF0650A3B
:103E300004E0BAF1410F08BF4FF0500AB1694A1CC3
:103E4000F06818F8013B0B54012F03DA96F838108C
:103E5000090702D502F80090521CB261012F10DB55
:103E6000641E24B2A742B8BF3C4624B22246414653
:103E7000B369181800F0E6FAB0692018B061381B71
:103E80007062B069F16800EB010808F801AB002D21
:103E90005CBF2B2008F8010B03D52D2008F8010B7F
:103EA0006D42002402AF2DB2012D0EDB0A222946FD
:103EB00000A800F081FD019807F8010B009D641C2B
:103EC0002DB2012DF2DA022C06DA4AF02000652824
:103ED00004BF302008F8010B1CB9302008F8010B92
:103EE00009E0012C07DB641E02A8205C303008F8D2
:103EF000010B012CF7DAB069F1684018A8EB00005B
:103F0000F06196F8380000F0140010280DD17069A7
:103F1000B1690818716A0818F1690818B16A0818B7
:103F2000716B8842BCBF081A306206B0BDE8F087EA
:103F3000F8B504460D4616461F46002077B116F820
:103F4000011BA868A047A86030B1E86A401CE8627D
:103F500000207F1EF3D1F2BD4FF0FF30F2BD000014
:103F6000686A6C747A4C00006E616E004E414E00BF
:103F7000696E6600494E4600300000002DE9F843A6
:103F800004000D0064B2002C08D0022C2CD018D3F1
:103F9000042C4FD03BD3052C5FD071E0DFF8080232
:103FA000006850F48060DFF8001208604FF4407140
:103FB0006620FDF741FF4FF440716720FDF73CFF9D
:103FC0005EE0DFF8E401006850F40060DFF8D8112B
:103FD00008604FF440714320FDF72EFF4FF440710D
:103FE0004420FDF729FF4BE0DFF8BC01006850F4E6
:103FF0008050DFF8B41108604FF440716320FDF782
:104000001BFF4FF440716220FDF716FF38E0DFF828
:104010009801006850F40050DFF88C1108604FF4EC
:1040200040715020FDF708FF4FF440715120FDF71B
:1040300003FF25E0DFF87401006850F48060DFF8CA
:104040006C1108604FF440719920FDF7F5FE4FF4B4
:1040500040719820FDF7F0FE12E0DFF85001006893
:1040600050F40060DFF8441108604FF4407189207B
:10407000FDF7E2FE4FF440718820FDF7DDFEFFE71B
:1040800064B2DFF82C0150F82400C07810F0F3007F
:1040900064B2DFF81C1151F82410C87064B24448AF
:1040A00050F8240064B2424951F824108978817094
:1040B00064B2002C02D064B2012C06D13D480068E5
:1040C0004FF47A714843814605E03B4800684FF45D
:1040D0007A71484381462801B9FBF0F00600B6B278
:1040E000B6F5005F02D341F6FF700600B9FBF5F0AC
:1040F000B6B2B0EB06100700BFB2202F04D340F2D7
:1041000003112E48FEF799FC64B2294850F82400A8
:10411000007810F0E0008046B6B2300A10F01F00C0
:1041200050EA080064B2224951F82410087064B2C1
:104130001F4850F82400467064B21D4850F824000F
:10414000807A10F0E000804664B2194850F82400EC
:1041500017F01F0151EA0801817264B2144850F847
:104160002400007C50F0880064B2114951F82410FA
:10417000087464B20E4850F82400C07850F00C0067
:1041800064B20B4951F82410C870BDE8F18340B205
:10419000074A52F8202012791206F8D540B2044A94
:1041A00052F82020D17170473480044028800440A8
:1041B000140CFF1F6037FF1F6837FF1FFC590000FA
:1041C00010B5040064B2082C0DDA0022002164B29C
:1041D0002148205CFDF790F9032164B21E48205C61
:1041E000FDF74CFE14E0082004002000441E40B2FD
:1041F00000280DD00022002164B21748205CFDF792
:104200007BF9032164B21448205CFDF737FEECE72C
:1042100010BD10B5040064B20F48205CFDF718FA19
:10422000002801D1002000E0012010BD10B50400DD
:10423000200040B2FFF7EDFF00280AD10A20FEF768
:104240008BFB200040B2FFF7E4FF002801D10020E3
:1042500000E0012010BD0000880BFF1F10B5040016
:1042600064B2042C07DA0122012164B20E48205CFA
:10427000FDF742F90EE0042004002000441E40B285
:10428000002807D00122012164B20748205CFDF715
:1042900033F9F2E710BD10B5040064B20248205CA7
:1042A000FDF7BAF910BD00001004FF1F0278C9B273
:1042B0008A421AB11CBF10F8012FF9E718BF00207D
:1042C0007047000000F10103810704D010F8011BC2
:1042D00089B18107FAD10268B2F10131914311F03D
:1042E000803F04BF50F8042FF6E710F8011B11B10E
:1042F00010F8011BFBE7C01A70470000C9B2830722
:1043000006D0521E22D310F8013B9942F7D11FE08C
:10431000083A13D302F1040241EA012141EA0141C2
:1043200050F8043B121F21BF4B40A3F1013C2CEA83
:10433000030C1CF0803FF3D0C9B2001F083210F804
:10434000013B521E28BF91EA030FF8D818BF012085
:10435000401E70471B4213D1094236D12AB1844610
:10436000B0FBF2F002FB10C2704700F02DBBFCD393
:104370000022002370470B0002000021002070473C
:10438000904271EB030CF6D370B5B1FA81F4B3FA35
:1043900083F52C1BA340C4F1200532FA05F6334304
:1043A000A2405FF00046E64002E05B085FEA3202AE
:1043B000841A71EB030524BF204629467641F4D3C5
:1043C00002000B003000002170BD012ACFD970B56A
:1043D000140C20D0B1FA81F4B2FA82F5C4F12004B1
:1043E0006419B4F12006D6D3B2405FF00044F44023
:1043F000002502E052085FEA3303C61A71EB020E91
:1044000024BF3046714664416D41F3D302000B0076
:104410002000290070BD0C46B1FBF2F102FB1145F2
:104420002D0445EA1045B5FBF2F402FB145580B2A9
:1044300040EA0545B5FBF2F002FB105240EA0440A9
:1044400070BD000062B38B0708D0521E11F8013B0B
:1044500000F8013B00F024808B07F6D1830740F081
:10446000208000BF103A07D330B4B1E83810103ABA
:10447000A0E83810F9D230BC530724BFB1E80810C7
:10448000A0E8081044BF51F8043B40F8043BD207B1
:1044900024BF31F8022B20F8022B44BF0B780370A5
:1044A0007047083A07D3B1E80810083A40F8043BCF
:1044B00040F804CBF7D25307E4E730B4416801F089
:1044C0000042012143681B031B0B436004BF0368C8
:1044D000002B0ED003684468DD0F45EA44044460B5
:1044E0005B000360491EE302F4D543681B031B0B0A
:1044F000436043681A434260084630BC704700007E
:104500004FF4001C1CEB410F94BF1CEB430F09E060
:1045100041EA030C50EA4C0C52EA0C0C03D29942CB
:1045200008BF9042704714BF8B4282427047000020
:104530004FF4001C1CEB410F94BF1CEB430F09E030
:1045400041EA030C50EA4C0C52EA0C0C03D28B42A9
:1045500008BF8242704714BF9942904270470000E2
:1045600070B504460D466068C0F30A5040F2FF7211
:10457000904207D16068000304BF2068002818D06B
:10458000022070BD010004D12046FFF796FF0128EC
:1045900067DA012D0FDB40F2FF71091A8D420AD351
:1045A0006068002847BF00202F4900202F49C4E938
:1045B0000001012070BD4142A942616806DA2C4A1F
:1045C0001140401941EA0050606053E001F00041A1
:1045D00062681203120B42F480126260401E451999
:1045E00005F13500352803D361600020206070BDDF
:1045F000002215F11F0F05DA20352268606820605F
:1046000000206060684213D0521E9241D243C0F134
:10461000200325689D4055EAD2722568C54066682A
:1046200006FA03F32B432360636823FA00F060600B
:10463000606808436060B2F1004F03D80BD1207866
:10464000C00708D52068401C2060206818B9606841
:10465000401C60600EE06068884204BF206800284B
:10466000F8D1002070BD00000000F0FF0000F07FD6
:10467000FFFF0F804FF0FF3070BD0000F446400D8B
:1046800040EAC120490006D200F014F8004248BFB9
:104690006FF00040604700F00DF84FF00041884295
:1046A0008CBF084640426047400D40EAC1204900A7
:1046B00080F00D8040F00040490DA1F58061491C5B
:1046C00005D4D1F11F0154BFC840C01770474FF047
:1046D00000007047010040F10980F446404200F0BC
:1046E00005F851F000416047010000BF09D0B0FA61
:1046F00080F18840C91CC1F58461090501EBD02116
:1047000040057047F0B540F2FF7581EA030C0CF0EC
:10471000004C15EA11541DBF15EA1357AC42AF42C5
:10472000E5E0BC41C1F31301C3F31303801A9941BF
:1047300043F4801304D2641E40004941801859415B
:10474000C90241EA5051B1FBF3F603FB1611A2FB7B
:104750000675D7EBC020A94102D2761E80185941B8
:10476000C90241EA5051B1FBF3FE03FB1E11A2FB4B
:104770000E75D7EBC020A94103D2AEF1010E80180F
:104780005941890241EA9051760546EA8E2EB1FBE5
:10479000F3F603FB1611A2FB0675D7EB8020A941A7
:1047A00002D2761E80185941C90241EA50514EEAA0
:1047B000060EB1FBF3F603FB1611A2FB0675D7EB51
:1047C000C020A94102D2761E80185941C90241EA8F
:1047D0005051B1FBF3F703FB1711A2FB0735D3EBE5
:1047E000C020A94167F100070CBF004247F0010754
:1047F00066F3D5274FEA1E31B80814F5806412DD40
:10480000BD0775F1004250EB0E5051EB045111F50C
:10481000801F5CBF41EA0C01F0BD4CF07F6141F0AC
:10482000E0410020F0BDBD076D0840EA0E5041F4A4
:104830008011D4F10104B4F120060ADAC4F1200693
:104840000200E04001FA06F3E1401843B24015438C
:104850000EE0342C13DCC6F1200445EA40056D0857
:1048600020FA06F2154321FA06F0A1400D4300217B
:1048700075F1004250F1000051EB0C01F0BD002039
:104880005FEA0C01F0BDCFB992185B41B3FA83F730
:1048900004BFB2FA82F6BF190B3FB7F120062FBF53
:1048A00002FA06F3BB40C7F1200622FA06F638BF2B
:1048B0003343BA401CB1E419641E33E77F4231F040
:1048C0000041B1FA81F404BFB0FA80F6A4190B3CA0
:1048D000B4F120062FBF00FA06F1A140C4F1200672
:1048E00020FA06F638BF3143A0403C1B1AE7AC4221
:1048F0001ABF05EA1357AF4212E050EA41061CBF47
:1049000052EA4306BFE750EA4107304661461CBF02
:1049100041EA0551F0BD52EA430C08BFC143F0BD66
:1049200000204FF4001616EB410F98BF16EB430F13
:1049300008BF16EB410F24BFC14305E016EB430F40
:104940000CBF61464CEA0551F0BD000080B513482C
:1049500000F03BF80FF24801016041608160C160E6
:104960000161416181610FF23C0242628162C16278
:10497000016341630FF2300282630FF23402C263BB
:104980000164416401BD10B5044800F01EF80446FE
:10499000206808B9FFF7DAFF204610BDC437FF1FB3
:1049A000000000002E00000066616C7365000000CE
:1049B000747275650000000091FBF2F303FB1211A5
:1049C000C0E9003170470000704770473435363712
:1049D00000000000000000000000000000000000D7
:1049E00000000000000000000000000000004E6F0A
:1049F0006E4D61736B61626C65000000004861720E
:104A0000644661756C740000000000004D656D4DDA
:104A1000616E6167656D656E740000427573466115
:104A2000756C7400000000000000557361676546F6
:104A300061756C74000000000000000000000000C0
:104A40000000000000000000000000000000000066
:104A50000000000000000000000000000000000056
:104A60000000000000000000000000000000000046
:104A70000000000000535643616C6C000000000011
:104A80000000000044656275674D6F6E69746F7257
:104A90000000000000000000000000000000000016
:104AA000000050656E6453560000000000000000D6
:104AB000005379735469636B00000000000000002C
:104AC000444D4130000000000000000000000044A0
:104AD0004D41310000000000000000000000444D86
:104AE00041320000000000000000000000444D4181
:104AF000330000000000000000000000444D41347D
:104B00000000000000000000000000444D4135009E
:104B100000000000000000000000444D413600008D
:104B2000000000000000000000444D41370000007C
:104B30000000000000000000444D4138000000006B
:104B400000000000000000444D413900000000005A
:104B5000000000000000444D413130000000000022
:104B60000000000000444D41313100000000000011
:104B700000000000444D4131320000000000000000
:104B8000000000444D4131330000000000000000EF
:104B90000000444D413134000000000000000000DE
:104BA00000444D41313500000000000000000000CD
:104BB000444D415F4572726F720000000000004D6D
:104BC000434D0000000000000000000000004654BB
:104BD000464C00000000000000000000005265612B
:104BE000645F436F6C6C6973696F6E004C56445F11
:104BF0004C565700000000000000004C4C570000CD
:104C00000000000000000000000057617463686449
:104C10006F6700000000000000524E4700000000D7
:104C20000000000000000000493243300000000096
:104C30000000000000000049324331000000000085
:104C40000000000000005350493000000000000048
:104C50000000000000535049310000000000000037
:104C60000000000053504932000000000000000026
:104C700000000043414E305F4F525F4D425F62750E
:104C8000660043414E305F4275735F4F66660000B9
:104C90000043414E305F4572726F720000000000A9
:104CA00043414E305F54785F5761726E696E67435F
:104CB000414E305F52785F5761726E696E67434153
:104CC0004E305F57616B655F557000000052657331
:104CD00065727665643531000000000052657365C9
:104CE000727665643532000000000043414E315F4A
:104CF0004F525F4D425F6275660043414E315F42E5
:104D000075735F4F666600000043414E315F457228
:104D1000726F72000000000043414E315F54785FB3
:104D20005761726E696E6743414E315F52785F57CB
:104D300061726E696E6743414E315F57616B655FAB
:104D400055700000005265736572766564353900F0
:104D500000000000526573657276656436300000AD
:104D600000000055415254305F52585F54580000C3
:104D7000000055415254305F45525200000000007F
:104D80000055415254315F52585F545800000000A2
:104D900055415254315F4552520000000000005509
:104DA000415254325F52585F545800000000554140
:104DB0005254325F455252000000000000554152EB
:104DC00054335F52585F545800000000554152540C
:104DD000335F4552520000000000005541525434E8
:104DE0005F52585F54580000000055415254345FE0
:104DF00045525200000000000055415254355F52A8
:104E0000585F54580000000055415254355F4552D8
:104E10005200000000000041444330000000000048
:104E20000000000000004144433100000000000089
:104E30000000000000434D50300000000000000062
:104E400000000000434D5031000000000000000051
:104E5000000000434D503200000000000000000040
:104E6000000046544D30000000000000000000002B
:104E70000046544D3100000000000000000000001A
:104E800046544D32000000000000000000000043C6
:104E90004D540000000000000000000000005254CB
:104EA0004300000000000000000000000052657395
:104EB0006572766564383300000000005049543054
:104EC00000000000000000000000005049543100C4
:104ED00000000000000000000000504954320000B3
:104EE00000000000000000000050495433000000A2
:104EF00000000000000000005044423000000000AC
:104F00000000000000000055534230000000000087
:104F100000000000000055534244434400000000DC
:104F20000000000000454E45545F313538385F546D
:104F3000696D6572454E45545F5472616E736D695B
:104F4000740000454E45545F52656365697665009F
:104F50000000454E45545F4572726F7200000000BC
:104F60000049325330000000000000000000000043
:104F700053444843000000000000000000000044CB
:104F800041433000000000000000000000004441E8
:104F900043310000000000000000000000545349AD
:104FA0003000000000000000000000004D434700FA
:104FB00000000000000000000000004C5054696D2B
:104FC0006572000000000000000052657365727693
:104FD000656431303200000000504F5254410000EF
:104FE0000000000000000000504F5254420000003A
:104FF00000000000000000504F5254430000000029
:10500000000000000000504F525444000000000017
:105010000000000000504F52544500000000000006
:1050200000000000526573657276656431303800A7
:105030000000005265736572766564313039000096
:10504000000052657365727665643131300000008E
:10505000005265736572766564313131000000007D
:10506000526573657276656431313200000000521A
:1050700065736572766564313133000000005265F6
:1050800073657276656431313400000000526573D7
:1050900065727665643131350000000052657365D4
:1050A00072766564313136000000005265736572B6
:1050B00076656431313700000000526573657276A1
:1050C00065643131380000000052657365727665A1
:1050D0006431313900000000010000000DC11100F1
:1050E00009030CD01240173F185019031A783200E8
:1050F000A00A63E0ACFF650C6600670029142C1E53
:105100002A007E0C7F16802A814E8261836F847B09
:105110008586868E879788A489AF8AC58BD78CE8C9
:105120008D204A00491347084B144C174605229915
:105130002303A6049B009CFFAB069E119F02000068
:10514000310000006A6E6B6C676D4E4F00B003401B
:1051500000B00B40008003400090034000800B40F3
:1051600000F00F4040F00F4080F00F40C0F00F40C3
:1051700000F10F40F0000A1D300018003200180145
:10518000600018186400181A6E00181F78001318B1
:105190007D00131A8200131C8C000E1296000E154F
:1051A000A0000E18AA000E1BB4000E1EC8000C1C96
:1051B000E1000B1EFA000A1F0001090800900440DC
:1051C00000A0044000B0044000C0044000D00440EF
:1051D00000A0064000B0064000C0064000D00640D7
:1051E00000A00E4000B00E40000000400068E746FE
:1051F00000D0E846000000409103C03B5839B43C61
:1052000000002041CDCC4C3E0000C842000070425E
:10521000020401016C37FF1FBC37FF1F6C37FF1FF3
:105220006C37FF1F6C37FF1F910CFF1F780CFF1F9F
:10523000000000000000000000000000000000006E
:10524000000000000000000000000000000000005E
:10525000DFF800F0FD0DFF1F40B2DFF8BC1331F89E
:10526000201040B20128C0F27D8140B2112880F2A6
:105270007981DFF8A8230023137089B2312904D281
:10528000DFF898230023537082E089B2612904D2A9
:10529000DFF88823012353707AE089B2912904D280
:1052A000DFF878230223537072E089B2C12904D257
:1052B000DFF86823032353706AE089B2F12904D22E
:1052C000DFF858230423537062E040F2211289B2C0
:1052D000914204D2DFF844230523537058E040F292
:1052E000511289B2914204D2DFF830230623537061
:1052F0004EE040F2811289B2914204D2DFF81C23C1
:105300000723537044E040F2B11289B2914204D2B3
:10531000DFF80823082353703AE040F2E11289B223
:10532000914204D2DFF8F4220923537030E040F2B6
:10533000112289B2914204D2DFF8E0220A2353708D
:1053400026E040F2412289B2914203D2B34A0B23B4
:1053500053701DE040F2712289B2914203D2AF4AEC
:105360000C23537014E040F2A12289B2914203D27F
:10537000AA4A0D2353700BE040F2D12289B2914228
:1053800003D2A64A0E23537002E0A44A0F2353709F
:1053900089B21A2903D2A14A002393706DE089B221
:1053A000332903D29D4A0123937066E089B24C29C8
:1053B00003D29A4A022393705FE089B2652903D22F
:1053C000964A0323937058E089B27E2903D2934A08
:1053D0000423937051E089B2972903D28F4A0523A1
:1053E00093704AE089B2B02903D28C4A06239370A5
:1053F00043E089B2C92903D2884A072393703CE06D
:1054000089B2E22903D2854A0823937035E089B234
:10541000FB2903D2814A092393702EE04FF48A724C
:1054200089B2914203D27D4A0A23937025E040F26B
:105430002D1289B2914203D2784A0B2393701CE05B
:1054400089B2B1F5A37F03D2744A0C23937014E0A0
:1054500040F25F1289B2914203D2704A0D239370D9
:105460000BE04FF4BC7289B2914203D26B4A0E2317
:10547000937002E0694A0F23937089B21A2903D20C
:10548000664A0023D3706DE089B2332903D2634AA0
:105490000123D37066E089B24C2903D25F4A02230C
:1054A000D3705FE089B2652903D25C4A0323D370CD
:1054B00058E089B27E2903D2584A0423D37051E0C0
:1054C00089B2972903D2554A0523D3704AE089B29D
:1054D000B02903D2514A0623D37043E089B2C929C7
:1054E00003D24E4A0723D3703CE089B2E22903D2AB
:1054F0004A4A0823D37035E089B2FB2903D2474AD0
:105500000923D3702EE04FF48A7289B2914203D2FC
:10551000424A0A23D37025E040F22D1289B291420B
:1055200003D23E4A0B23D3701CE089B2B1F5A37FAE
:1055300003D23A4A0C23D37014E040F25F1289B2CE
:10554000914203D2354A0D23D3700BE04FF4BC7265
:1055500089B2914203D2314A0E23D37002E02F4A1E
:105560000F23D370704710B50400200040B2FFF73E
:1055700073FE2B48007810F0FD0029490870284878
:10558000007850F01000264908702648B8210170B4
:1055900025480078C006FBD423480078C0F381007A
:1055A000C0B20228F8D11D48C3781C4882781B4835
:1055B00041781A480078FFF74BFE64B2164810EBAA
:1055C0008400807810F01F001849087064B21248F7
:1055D00010EB8400C07810F01F0050F04000144918
:1055E0000870114800788006FBD50F480078400607
:1055F000FBD50C48007810F03F000A4908700A48B3
:105600000078C0F38100C0B20328F8D164B2024828
:1056100030F82400C0B210BDB80BFF1FFC0BFF1FF9
:105620000140064000400640064006400440064057
:1056300005400640DFF800F03B2A00004B48F0210F
:1056400001704A4800780006FBD54848007871216F
:10565000084201D0002000E0012070474448006863
:1056600050F40020424908604248006850F400208D
:10567000404908603D4800780006FBD53B48F021D2
:105680000170704710B582B00400A4B24FF40060FE
:1056900000FB04F000903848092101709DF80200D9
:1056A000364908709DF801003549087035489DF865
:1056B00000100170FFF7C2FF002801D100200CE0AC
:1056C000A4B2002C08D17FF0010240F20C4120006E
:1056D00080B200F003F800E0012016BD7CB50400A4
:1056E0000D001600A4B24FF40060ADB200FB0450F0
:1056F0000190ADB2042095FBF0F101FB105100299F
:1057000003D0F5212048FFF795FF40F60100ADB228
:10571000854203D3F7211C48FFF78CFF9DF8060054
:10572000164908709DF805001549087015489DF840
:105730000410017000969DF80300144908709DF84C
:105740000200134908709DF80100124908701248C0
:105750009DF800100170084806210170FFF76EFFE8
:10576000002801D1002000E0012076BD00000240A9
:1057700004F0014008F0014007000240060002402A
:1057800005000240040002408C5900000B0002405A
:105790000A0002400900024008000240F0B4114E25
:1057A000366834000F4E366856F47F060D4F3E6063
:1057B0000E0616F0706656EA0076170517F47007A5
:1057C0003E431F0417F470273E43074F3E600026F8
:1057D0003500EDB29D4201D26D1CFAE7014E3460F6
:1057E000F0BC704700F001404480044080B500F0F8
:1057F0008FF800F025F800F005F8FDF731F9FBF718
:10580000C3FCFEE780B50E20FFF7ADFE324908600D
:10581000314800684FF47A714843304908602F4896
:1058200000682F490968C1F30361491CB0FBF1F01E
:105830002C4908605FF4E1310420FEF79FFB01BDB5
:105840002DE9F8432848294988420DD00020804698
:10585000B8F5826F08D22448244951F8281040F83E
:10586000281018F10108F3E71F48FDF71DF820483C
:1058700007002048060020480400A01B8046404640
:10588000B0F10108002804D030783870761C7F1CF5
:10589000F5E71A4881461A480500B5EB090080462D
:1058A0004046B0F10108002805D0002089F800002A
:1058B00019F10109F4E713481349144A531A984699
:1058C0004346B3F10108002B04D00B780370491C48
:1058D000401CF5E7BDE8F1836437FF1F6037FF1F09
:1058E000448004406837FF1F0000FF1F00000000D5
:1058F0001004FF1FCC490000505200004C0EFF1F47
:10590000C237FF1F940CFF1F34560000EC570000F5
:1059100080B500F009F80C4800884FF6FE71084089
:105920000949088001BD0000EFF3118072B60749F4
:105930004CF220520A8005494DF628120A80C0B266
:10594000002800D162B67047002005400E200540B7
:105950000A2A2A2A2A64656661756C745F69737203
:1059600020656E7465726564206F6E207665637461
:105970006F722025642A2A2A2A2A0D0A0A257320F2
:10598000496E74657272757074000000473A5CB1BC
:10599000C8C8FC5C32303134B7C9CBBCBFA8B6FB39
:1059A0005CB3CCD0F25C595A365F395C436869709D
:1059B0005C7372635C4D4B36305F666C6173682E4E
:1059C00063000000473A5CB1C8C8FC5C3230313437
:1059D000B7C9CBBCBFA8B6FB5CB3CCD0F25C595AFC
:1059E000365F395C436869705C7372635C4D4B363B
:1059F000305F6770696F2E6300000000473A5CB14A
:105A0000C8C8FC5C32303134B7C9CBBCBFA8B6FBC8
:105A10005CB3CCD0F25C595A365F395C436869702C
:105A20005C7372635C4D4B36305F756172742E63CC
:105A300000000000473A5CB1C8C8FC5C3230313429
:105A4000B7C9CBBCBFA8B6FB5CB3CCD0F25C595A8B
:105A5000365F395C436869705C7372635C4D4B36CA
:105A6000305F5049542E6300473A5CB1C8C8FC5CB3
:105A700032303134B7C9CBBCBFA8B6FB5CB3CCD095
:105A8000F25C595A365F395C436869705C737263C3
:105A90005C4D4B36305F6164632E6300473A5CB106
:105AA000C8C8FC5C32303134B7C9CBBCBFA8B6FB28
:105AB0005CB3CCD0F25C595A365F395C436869708C
:105AC0005C7372635C4D4B36305F646D612E6300B6
:105AD000473A5CB1C8C8FC5C32303134B7C9CBBC82
:105AE000BFA8B6FB5CB3CCD0F25C595A365F395CC8
:105AF000436869705C7372635C4D4B36305F6674EB
:105B00006D2E6300473A5CB1C8C8FC5C323031345A
:105B1000B7C9CBBCBFA8B6FB5CB3CCD0F25C595ABA
:105B2000365F395C436869705C7372635C6D69737E
:105B3000632E630010B5084979441C31074C7C443E
:105B40001A34A14206D0081D0A6851188847014638
:105B5000A142F8D110BD00BF740000008000000019
:105B6000417373657274696F6E206661696C6564F8
:105B700020696E202573206174206C696E65202574
:105B8000640A00000A476574204944207375636302
:105B9000657373A3AC53454E534F5220494420695B
:105BA00073203078257800000A4F56373732352079
:105BB000526567697374657220436F6E666967200A
:105BC0005375636365737321000000004FC3FFFFCB
:105BD000782900004C0EFF1F000000000ABDF8D01D
:105BE000D0BDE2CBF8B2D9D7F7A3ACC7EBD6D8D0AB
:105BF000C2CBA2C8EBB9CCBCFE0000000A436F6E5A
:105C0000666967205265676973746572204E756DA9
:105C10006265722069732025642000000ABEAFB857
:105C2000E63A53434342D0B4CAFDBEDDB4EDCEF3F1
:105C3000000000000ABEAFB8E63AD0B4BCC4B4E677
:105C4000C6F730782578CAA7B0DC000000F009F864
:105C5000002801D0FFF76EFF0020FBF795FA00F057
:105C600002F80120704700F001B8000007463846EE
:105C700000F002F8FBE7000001491820ABBEFBE78B
:105C80002600020038B504460D46284600F006F806
:105C9000A84218BF0024204632BD00000149FCF78D
:105CA000D5BE00BF540CFF1F0ABDF8C8EBCBC0D156
:105CB000ADBBB7B5C8B4FDA3A10000000ABEAFB824
:105CC000E63AB6C1C8A14944CAA7B0DC000000004A
:105CD000C046C046C046C046FFF7B8FF2564092548
:105CE000640A000000000000000000000000000046
:105CF00000000000000000000000000000000000A4
:105D0000FFFFFFFFFFFFFFFF00000000000000009B
:105D10000000000000000000000000000000000083
:105D2000000000000000000000000000FFFFFFFF77
:045D3000FFFF000071
:0400000500005CD1CA
:00000001FF
