:10000000F8FF002011040000BF3B0000BF3B0000D0
:10001000BF3B0000BF3B0000BF3B0000BF3B0000F8
:10002000BF3B0000BF3B0000BF3B0000BF3B0000E8
:10003000BF3B0000BF3B0000BF3B0000BF3B0000D8
:10004000BF3B0000BF3B0000BF3B0000BF3B0000C8
:10040000FFFFFFFFFFFFFFFFFFFFFFFFFEFFFFFFFD
:1004100062B604F065FEFEE72DE9F04FA1B080461C
:1004200017461D46029102AE0020706211AC6FF0BB
:1004300000490AE017F8011B0298C0470290002803
:1004400000F07C82706A401C7062387808B9706A6B
:1004500076E22528EED10020F06030617061B06155
:10046000F061306201E040F0010017F8011F20291F
:10047000F9D023290ED02B2904D02D2906D03029DC
:100480000CD00FE040F0020080B2EEE740F0040034
:1004900080B2EAE740F0080080B2E6E740F01000E2
:1004A00080B2E2E72A290DD129680A1D2A6009686D
:1004B000F162002904D54942F16240F0040080B2A3
:1004C0007F1C11E00021F16209E0F16A494505D085
:1004D00001EB810302EB43013039F1627F1C3A7872
:1004E000A2F130010A29F0D339782E291CBF4FF030
:1004F000FF31B1621CD117F8011F2A2906D12968E2
:100500000A1D2A600968B1627F1C11E00021B162F6
:1005100009E0B16A494505D001EB810302EB4301D3
:100520003039B1627F1C3A78A2F130010A29F0D348
:10053000308639780FF6CC3000F002FE08B117F89B
:10054000010B8DF83A009DF83A00682804D13878FC
:1005500068280AD1622005E06C2804BF38786C282E
:1005600003D171208DF83A007F1C11A8B0603A7851
:100570001046253825D01C3875D0001F022872D9A6
:10058000133800F09C8009386DD0801E00F0378150
:10059000401E00F0DD80401E022864D9001F00F0DC
:1005A000D780401F34D0401E00F08980401E24D0E8
:1005B000C01E0CD0801E00F08280C01E00F07F8024
:1005C00026E1F068411CF160252101552AE12868E7
:1005D000011D296000687060B26A002A03D500F02E
:1005E000BBFD30611EE1002100F0D2FD00281ABFE2
:1005F0007168401AB06A306114E12868011D2960F1
:1006000000680021CDE9000111A870607821F2E0B6
:100610009DF83A00622818D0682806D06A280BD0C6
:100620006C2819D0712807D016E02868011D2960B0
:10063000716A00680180F5E02A68101D2860706A00
:10064000C1171268C2E90001ECE02868011D2960A9
:10065000716A00680170E5E02868011D2960716A0F
:1006600000680160DEE02868C01D20F007002860F7
:10067000034603F108002860D3E90001CDE9000139
:10068000002904D5F068411CF1602D210DE0308E69
:10069000810704D5F068411CF1602B2105E0C007FB
:1006A00004D5F068411CF16020210155F06811A9C2
:1006B00040187060114600A800F0D8F9B2E09DF82B
:1006C0003A306C2B08BF286811D0712B08BF2868FE
:1006D00002D06A2B28680AD1C01D20F007002860CC
:1006E00084460CF108002860DCE9000103E0011DEC
:1006F000296000680021CDE90001682B04BFDDE915
:10070000000180B20BD0622B04BFDDE90001C0B252
:1007100005D0742B18BF7A2B04D1DDE9000100212C
:10072000CDE9000196F8300000075FD5DDE9000152
:10073000002908BF002859D042F02000782855D160
:10074000F06830210155401C411CF16002554DE01C
:100750009DF83A0062280CD0682810D06A281AD078
:100760006C2824D0712816D0742820D07A280CD078
:100770001DE02868011D296090F900001BE0286831
:10078000011D2960B0F9000015E02868011D2960ED
:100790000068002110E02868C01D20F007002860D4
:1007A000034603F108002860D3E9000104E028684B
:1007B000011D29600068C117CDE90001DDE90001D4
:1007C000002904DAF068411CF1602D210DE0308E23
:1007D000810704D5F068411CF1602B2105E0C007BA
:1007E00004D5F068411CF16020210155F06811A981
:1007F00040187060114600A800F0A5F812E0F068FB
:10080000411CF16029680A1D2A600968015509E048
:10081000F068411CF160252101551AB1F068411CB6
:10082000F16002557F1CF06AF168401AB169401A04
:100830003169401AF169401A7169401A316AA0EBB6
:10084000010A96F83000400711D420208DF84000AE
:10085000BAF1010F0BDBD346012310AA00A94046D1
:1008600000F038FC002869D1BBF1010BF4D1F3682A
:1008700011AA00A9404600F02DFC00285ED13020CE
:100880008DF84000D6F818B0BBF1010F0ADB012348
:1008900010AA00A9404600F01DFC00284ED1BBF173
:1008A000010BF4D13369726800A9404600F012FCD4
:1008B000002843D130208DF84000D6F81CB0BBF1A1
:1008C000010F09DB012310AA00A9404600F002FC39
:1008D000A0BBBBF1010BF5D1736930697168421897
:1008E00000A9404600F0F6FB40BB30208DF84000E8
:1008F000D6F820B0BBF1010F09DB012310AA00A933
:10090000404600F0E7FBC8B9BBF1010BF5D196F802
:10091000300040077FF599AD20208DF84000BAF1F6
:10092000010FFFF692AD012310AA00A9404600F086
:10093000D1FB18B9BAF1010AF5D186E54FF0FF30C5
:1009400021B0BDE8F08F2DE9FA4B86B005462F693E
:100950006F2908BF082605D041F02000782814BF71
:100960000A2610263C24D5E9000181468B469DF8D5
:100970001820642A18BF692A05D1002903DAD9F1A1
:1009800000096BEB4B0BBBF1000F08BFB9F1000F77
:100990000CD1286B50B9082E44D195F838000007C7
:1009A00040D53B24302087F83B003BE0A4F1010810
:1009B0004446F017CDE9046048465946DDE9042372
:1009C00000F012FCCDE90201CDE9009BDDE9022334
:1009D000DDE90401A0FB029BDDE90001A0EB0900B9
:1009E0003030C0B23A2803D39DF818105139081896
:1009F00008F80700DDE9029BBBF1000F08BFB9F161
:100A0000000F03D0E868E1198842CFD3082E09D13E
:100A100095F83800000705D5E05D302802D0641E47
:100A20003020E055C4F13C00A861E119E960296B70
:100A3000884207DA081A2862288F4FF6EF710840BB
:100A4000288710E000290ED595F8381001F0140120
:100A5000102908D1696B6A69891A2A6A891A0C1ADD
:100A6000012CA8BF2C6208B0BDE8F08B2DE9F24F35
:100A70008EB0054604AFD5E90001CDE902019DF82D
:100A8000380040F020008DF8000061280BD0286B62
:100A9000002848BF062005D404BF9DF80000672841
:100AA00001D1012028636968C1F30A5040F2FF7345
:100AB00098421CD1080304BF2868002809D10320EC
:100AC000A8619DF8380061381A2837D30FF24861C1
:100AD00008E00320A8619DF8380061381A282AD35D
:100AE0000FF22C610322E86800F0F6FBBBE1010085
:100AF00017D1284600F02BFC012812DB002400202F
:100B00009DF80010612920D1E968302201F8012BFD
:100B10004A1CEA609DF83820612A0CBF78225822CE
:100B20000FE040F2FE316A6861F31E526A60441AB7
:100B30004FF0FF30E4E70FF2D451D3E70FF2D45176
:100B4000D0E70A706969891C696110B90026B0464E
:100B50007FE19DF80000612840F09780286B002815
:100B60004CBF2126461C36B2771CD5E900ABDDE927
:100B700002010022002300F00DFC3ABF8BF0004080
:100B8000CDE902A0CDE902ABA4F104088DF8102054
:100B90000DF11109012F33DBDDE9020100220023F1
:100BA00000F010FC2CD21C2102A800F023FCDDE98F
:100BB000020100F0ADFC0446FF1F012F09DB00F02D
:100BC000D3FC02460B46DDE9020100F0E5FCCDE96D
:100BD000020109F20700072104E004F00F0200F807
:100BE000012D2411012C01DB491EF6D5491E5CBFE5
:100BF000002200F8012DF9D500F20709012FCBDA08
:100C00000DF11100A9EB00010DF11107B142B8BFC0
:100C10000E4636B2002E31D43046884206DA04A998
:100C200041184978082928BF0F2100D2002104AAC1
:100C3000821800E0761E401E12F801398B42F9D06E
:100C40000F2904D104A941184A78521C4A7000287F
:100C500003D504AF761C08F1040836B2701E0DD41B
:100C6000C1190A783032D2B23A2A03D39DF838300B
:100C70003A3B9A1801F80129401EF2D5286B00284A
:100C800040F1E780701E2863E3E0DDE90201002205
:100C9000002300F07FFB05D2DDE9020181F0004175
:100CA000CDE9020124B247F2975060436F4990FBAF
:100CB000F1F80FFA88F8C8F107040027DFF8B091BF
:100CC000012C19DBDDE902ABE00707D55046594698
:100CD0003A464B4600F020FD82468B46641038466B
:100CE00049463A464B4600F017FD07468946002C18
:100CF000EAD1CDE902AB21E064429246DFF874B15B
:100D000014D0E00707D5504659463A464B4600F006
:100D100003FD82468B466410384649463A464B46A8
:100D200000F0FAFC07468946002CEAD1DDE9020111
:100D300052465B4600F0C2FDCDE902019DF800007D
:100D400066280CBF08F10A000620296B4618142EED
:100D5000A8BF132630208DF810000DF11104464F66
:100D6000012E33DBDDE9020100F0E8FB04F10801AC
:100D700004220A24B0FBF4F303EB830EA0EB4E0035
:100D8000303001F8010DB3FBF4F000EB8004A3EB6D
:100D90004403303301F8013D521EEAD101F1080449
:100DA000083E012EDCDBDDE9020100F0C7FB00F0AC
:100DB000E5FB02460B46DDE9020100F0EDFB0022F7
:100DC0003B4600F0A9FCCDE90201CBE70DF1110093
:100DD000201A0DF111079DF81110302906D1401E7F
:100DE000A8F1010817F8011F3029F8D09DF800106C
:100DF000662904BF0FFA88F808F1010103D06529BC
:100E00000CBF012100212A6B8E1836B2B042B8BF48
:100E1000064636B2002E1CD43146814204DAC85D43
:100E2000352828BF392000D23020CA19521E00E0D0
:100E3000761E491E12F801398342F9D0392802D1B1
:100E4000C85D401CC855002903D57F1E761C08F1DB
:100E500001080FFA88F0009033B23A469DF8381036
:100E6000284600F00BF80FB0BDE8F08FA086010017
:100E7000000024400000F03F84D797412DE9F0475F
:100E800086B006468A4690461C46BDF9385000F0AA
:100E900056FE406A90F80090376B012C02DA01246C
:100EA0000FF278284AF02000662807D067287AD108
:100EB0006FF003018D427CDBBD427ADA6D1C66283F
:100EC0000AD096F83800000702D4BC42B8BF2746C3
:100ED0002DB27F1B48BF0027F068B1692DB2012DEC
:100EE00021DA4A1C30230B54012F03DA96F838100C
:100EF000090702D502F80090521CB261EF42B8BF58
:100F00007D422DB269427162EF19A742B8BF3C46DB
:100F100024B2F46122464146B369181800F0DCF9A6
:100F2000381BB062BFE00818AC4216DA22464146D0
:100F300000F0D2F9B1696118B161281B7062012F0C
:100F400003DA96F83800000705D5F06801F800903C
:100F5000F069401CF061B762A5E02A46414600F006
:100F6000BBF9B0692818B061641B012F03DA96F849
:100F70003810090704D5411CB161F16800F80190EF
:100F800024B2A742B8BF3C4624B2224605EB080172
:100F9000B069F368C01800F09FF9B0692018B0611B
:100FA000381B70627FE0BAF1610F14D14FF0700A04
:100FB00016E0BC4204DA96F83810090758BF2746F5
:100FC0007F1E48BF0027BAF1670F14BF4FF0450AD4
:100FD0004FF0650A04E0BAF1410F08BF4FF0500A24
:100FE000B1694A1CF06818F8013B0B54012F03DA71
:100FF00096F83810090702D502F80090521CB26129
:10100000012F10DB641E24B2A742B8BF3C4624B2B5
:1010100022464146B369181800F05EF9B0692018FD
:10102000B061381B7062B069F16800EB010808F824
:1010300001AB002D5CBF2B2008F8010B03D52D2040
:1010400008F8010B6D42002402AF2DB2012D0EDB1A
:101050000A22294600A800F08BFD019807F8010B31
:10106000009D641C2DB2012DF2DA022C06DA4AF042
:101070002000652804BF302008F8010B1CB930207F
:1010800008F8010B09E0012C07DB641E02A8205CB4
:10109000303008F8010B012CF7DAB069F16840181C
:1010A000A8EB0000F06196F8380000F0140010285A
:1010B0000DD17069B1690818716A0818F1690818CA
:1010C000B16A0818716B8842BCBF081A306206B05A
:1010D000BDE8F087F8B504460D4616461F460020C9
:1010E00077B116F8011BA868A047A86030B1E86A7C
:1010F000401CE86200207F1EF3D1F2BD4FF0FF30AC
:10110000F2BD0000686A6C747A4C00006E616E007B
:101110004E414E00696E6600494E4600300050F860
:10112000041B61B150F8042BD30744BFA9F101039C
:101130009A18002342F8043B091FFAD1EFE77047E1
:101140000278C9B28A421AB11CBF10F8012FF9E720
:1011500018BF00207047FF0000F10103810704D091
:1011600010F8011B89B18107FAD10268B2F101318F
:10117000914311F0803F04BF50F8042FF6E710F8B8
:10118000011B11B110F8011BFBE7C01A70470000EA
:10119000C9B2830706D0521E22D310F8013B9942F0
:1011A000F7D11FE0083A13D302F1040241EA01210A
:1011B00041EA014150F8043B121F21BF4B40A3F10B
:1011C000013C2CEA030C1CF0803FF3D0C9B2001F95
:1011D000083210F8013B521E28BF91EA030FF8D8DD
:1011E00018BF0120401E70471B4213D1094236D15F
:1011F0002AB18446B0FBF2F002FB10C2704700F047
:10120000BFBCFCD30022002370470B00020000216A
:1012100000207047904271EB030CF6D370B5B1FA21
:1012200081F4B3FA83F52C1BA340C4F1200532FAF4
:1012300005F63343A2405FF00046E64002E05B085B
:101240005FEA3202841A71EB030524BF2046294667
:101250007641F4D302000B003000002170BD012A5A
:10126000CFD970B5140C20D0B1FA81F4B2FA82F55E
:10127000C4F120046419B4F12006D6D3B2405FF063
:101280000044F440002502E052085FEA3303C61A26
:1012900071EB020E24BF3046714664416D41F3D3B9
:1012A00002000B002000290070BD0C46B1FBF2F1DA
:1012B00002FB11452D0445EA1045B5FBF2F402FB93
:1012C000145580B240EA0545B5FBF2F002FB10521E
:1012D00040EA044070BD000062B38B0708D0521E84
:1012E00011F8013B00F8013B00F024808B07F6D198
:1012F000830740F0208000BF103A07D330B4B1E834
:101300003810103AA0E83810F9D230BC530724BF87
:10131000B1E80810A0E8081044BF51F8043B40F8B9
:10132000043BD20724BF31F8022B20F8022B44BF24
:101330000B7803707047083A07D3B1E80810083AF1
:1013400040F8043B40F804CBF7D25307E4E730B44D
:10135000416801F00042012143681B031B0B4360FD
:1013600004BF0368002B0ED003684468DD0F45EA14
:10137000440444605B000360491EE302F4D5436803
:101380001B031B0B436043681A434260084630BC92
:10139000704700004FF4001C1CEB410F94BF1CEB86
:1013A000430F09E041EA030C50EA4C0C52EA0C0CE2
:1013B00003D2994208BF9042704714BF8B428242C9
:1013C000704700004FF4001C1CEB410F94BF1CEB56
:1013D000430F09E041EA030C50EA4C0C52EA0C0CB2
:1013E00003D28B4208BF8242704714BF9942904299
:1013F0007047000070B504460D466068C0F30A509F
:1014000040F2FF72904207D16068000304BF206879
:10141000002818D0022070BD010004D12046FFF73B
:1014200096FF012867DA012D0FDB40F2FF71091AE0
:101430008D420AD36068002847BF00202F49002052
:101440002F49C4E90001012070BD4142A9426168F1
:1014500006DA2C4A1140401941EA0050606053E01E
:1014600001F0004162681203120B42F480126260C4
:10147000401E451905F13500352803D36160002071
:10148000206070BD002215F11F0F05DA203522689B
:101490006068206000206060684213D0521E924154
:1014A000D243C0F1200325689D4055EAD2722568D9
:1014B000C540666806FA03F32B432360636823FA8A
:1014C00000F06060606808436060B2F1004F03D8CC
:1014D0000BD12078C00708D52068401C2060206808
:1014E00018B96068401C60600EE06068884204BF04
:1014F00020680028F8D1002070BD00000000F0FF37
:101500000000F07FFFFF0F804FF0FF3070BD000044
:10151000F446400D40EAC120490006D200F014F81C
:10152000004248BF6FF00040604700F00DF84FF0F8
:10153000004188428CBF084640426047400D40EA67
:10154000C120490080F00D8040F00040490DA1F518
:101550008061491C05D4D1F11F0154BFC840C01798
:1015600070474FF000007047010040F10980F446D9
:10157000404200F005F851F000416047010000BF13
:1015800009D0B0FA80F18840C91CC1F58461090511
:1015900001EBD0214005704770B44FF0004591EA4F
:1015A000030F44BF6B4000F0F7BA00BF841A71EB21
:1015B000030604D26E40001BB141121973414FF46F
:1015C000001C1CEB410F34BF7CEB430684E00C0D88
:1015D000A4EB1356362E7DDC012E43DC45EAC323F3
:1015E00043EA525312BFD20292025B08240545EA35
:1015F000C12141EA5051D2EBC020994125D407D1F5
:10160000B0FA80F610FA06F164D00020203608E027
:10161000B1FA81F6B140C6F1200220FA02F211437C
:10162000B0404FEAF474B4EB465434F001064FEA8C
:1016300074040AD8D6F50016760D04F00044F04084
:1016400061FA06F25040F1404840C00A40EA415079
:1016500021F0004128BF5FEA500550F1000044EB43
:10166000D12137E045EAC323DB0A45EAC121C90A93
:10167000B6F120050EDD42EA0242120CC5F1200649
:1016800003FA06F6EB4042EA06056D42984161F125
:1016900000010DE062FA06F5F240554063FA06FCDF
:1016A00082EA0C02F3405A406D42904161EB030123
:1016B00011F4801F05D1641E620502D06D00404107
:1016C000494121F48011430875F1004350F10000B5
:1016D00041EB045170BC70471CEB410F15D223F055
:1016E000004352EA43060BD04FEA4C0CBCEB410FCF
:1016F00004D80C0D661E342EB7DDEBE7801A994135
:1017000050EA410608BF0021E4E708BF1CEB430F85
:1017100028BF6FF00001DDE7B0B581EA030C0CF0E3
:10172000004C40F2FF7515EA11541DBF15EA13571E
:10173000AC42AF4239E0E41923EA455343F4801345
:10174000C90241F0004141EA505EC7021100A7FB07
:10175000020200284FF00000EEFB01204FF00001D4
:10176000E3FB072118BF42F0010240180021494164
:10177000E3FB0E01A4F580640F0302D25200404146
:10178000494154F101046CDD470872F1004250F107
:10179000000051EB0451A1F580115CBF41EA0C013E
:1017A000B0BD4CEA05510020B0BD05EA1357AC426C
:1017B00014BFAF4241E050EA410E1CBF52EA430E53
:1017C00002E061460020B0BD24423C441BD15FEAE8
:1017D000070EF6D0090302BF01460020AEF1140E39
:1017E000B1FA81F7AEEB070401FA07FE0C37C7F137
:1017F000200100FA07F7C8404EEA000E23EA4553DD
:1018000043F48013A2E733F00043B3FA83F704BF35
:10181000B2FA82FE77440B3FE41BB7F1200E2FBFD4
:1018200002FA0EF3BB40C7F1200E22FA0EFE38BFBB
:1018300043EA0E03BA40641C82E750EA410E14BF2B
:1018400052EA430E6FF000014FF4001717EB430FFD
:101850008ABF194617EB410FB5E74CEA0551002046
:10186000B0BDD4F10104B4F120070FDAC4F12007B0
:10187000520828BF42F0010210FA07F501FA07F7F3
:10188000E1BF2A43E0403843E1400FE0352C98DCCB
:10189000C7F1200452EA400220FA07F218BF42F0D2
:1018A000010231FA07F0A1400A43002172F100421F
:1018B00050F1000051EB0C01B0BD0000F0B540F25A
:1018C000FF7581EA030C0CF0004C15EA11541DBFA2
:1018D00015EA1357AC42AF42E5E0BC41C1F3130136
:1018E000C3F31303801A994143F4801304D2641E96
:1018F0004000494180185941C90241EA5051B1FBA9
:10190000F3F603FB1611A2FB0675D7EBC020A94125
:1019100002D2761E80185941C90241EA5051B1FBEA
:10192000F3FE03FB1E11A2FB0E75D7EBC020A941ED
:1019300003D2AEF1010E80185941890241EA90515B
:10194000760546EA8E2EB1FBF3F603FB1611A2FBD9
:101950000675D7EB8020A94102D2761E8018594126
:10196000C90241EA50514EEA060EB1FBF3F603FB01
:101970001611A2FB0675D7EBC020A94102D2761E34
:1019800080185941C90241EA5051B1FBF3F703FBFA
:101990001711A2FB0735D3EBC020A94167F100075F
:1019A0000CBF004247F0010766F3D5274FEA1E310E
:1019B000B80814F5806412DDBD0775F1004250EBE4
:1019C0000E5051EB045111F5801F5CBF41EA0C0130
:1019D000F0BD4CF07F6141F0E0410020F0BDBD075B
:1019E0006D0840EA0E5041F48011D4F10104B4F1C5
:1019F00020060ADAC4F120060200E04001FA06F3EC
:101A0000E1401843B24015430EE0342C13DCC6F11C
:101A1000200445EA40056D0820FA06F2154321FA34
:101A200006F0A1400D43002175F1004250F1000085
:101A300051EB0C01F0BD00205FEA0C01F0BDCFB905
:101A400092185B41B3FA83F704BFB2FA82F6BF196A
:101A50000B3FB7F120062FBF02FA06F3BB40C7F1D8
:101A6000200622FA06F638BF3343BA401CB1E41907
:101A7000641E33E77F4231F00041B1FA81F404BFC4
:101A8000B0FA80F6A4190B3CB4F120062FBF00FA7F
:101A900006F1A140C4F1200620FA06F638BF314312
:101AA000A0403C1B1AE7AC421ABF05EA1357AF42ED
:101AB00012E050EA41061CBF52EA4306BFE750EA73
:101AC0004107304661461CBF41EA0551F0BD52EA6C
:101AD000430C08BFC143F0BD00204FF4001616EBC5
:101AE000410F98BF16EB430F08BF16EB410F24BF01
:101AF000C14305E016EB430F0CBF61464CEA0551AC
:101B0000F0BD000080B5134800F0B0F80FF24801B6
:101B1000016041608160C1600161416181610FF2DA
:101B20003C0242628162C162016341630FF2300292
:101B300082630FF23402C2630164416401BD10B5D7
:101B4000044800F093F80446206808B9FFF7DAFF6C
:101B5000204610BD2824FF1F000000002E000000BA
:101B600066616C73650000007472756500000000AA
:101B700091FBF2F303FB1211C0E900317047000042
:101B80007047000070B44FF0004591EA030C44BF69
:101B90006B40FFF70BBD00BF841A71EB030603D245
:101BA000001BB141121973414FF4001C1CEB410F93
:101BB00034BF7CEB430443E00C0DA4EB1356352EED
:101BC00050DC45EAC323DB0A45EAC121C912B6F15C
:101BD00020050DDD63FA05F6EB4086EA03051242A7
:101BE00018BF45F00105C01851F100010CD213E0F7
:101BF00062FA06F5F2405540F3415A40B340F340D3
:101C00005A408018594107D349085FEA30005FEA1B
:101C1000350528BF45F0010501F58011420875F131
:101C2000004250F1000041EB045170BC4FF4001C25
:101C30001CEB410F38BF70470020090D09057047A4
:101C40001CEB410F10D252EA43060BD0BCEB410F04
:101C500005D80C0DAB43661E342EB5DD02E0AB4358
:101C60008018594170BC704770BC704770470000C5
:101C700010F00702DFF898381B6819004FF6FF03D1
:101C80001940DFF8903853EA02231943DFF880380F
:101C90001960704710B440B24109DFF87C28012375
:101CA00010F01F04A34042F8213010BC704740B22E
:101CB000002809D540B210F00F02DFF86038D218C2
:101CC0000B0102F8043C04E040B2DFF854280B0199
:101CD0008354704780B501220121612000F08CFC03
:101CE00000220121822000F087FC002201218420B3
:101CF00000F082FC00220121862000F07DFC002201
:101D00000121872000F078FC01BD80B5302000F073
:101D100041FD102000F03EFD01BD80B5002344F6DA
:101D200020620521002000F091FE002344F620628D
:101D30000721002000F08AFE01BD80B5012001F0DE
:101D400043F8022001F040F803210C2001F016F9BD
:101D500003210D2001F012F903210A2001F00EF9F0
:101D600003210B2001F00AF901BD38B504000D0074
:101D7000E4B2002C0ED10121842000F094FC00215B
:101D8000872000F090FCEDB22A000521002000F031
:101D9000A9FF10E0E4B2012C0DD10021842000F055
:101DA00082FC0121872000F07EFCEDB22A00052193
:101DB000002000F097FF31BD38B504000D00E4B2FB
:101DC000002C0ED10021822000F06DFC0121862024
:101DD00000F069FCEDB22A000721002000F082FF2C
:101DE00010E0E4B2012C0DD10121822000F05BFC57
:101DF0000021862000F057FCEDB22A0007210020C8
:101E000000F070FF31BD38B504000D002A0021003C
:101E1000042001F002FA31BD78B400ABDFF80447CA
:101E200025881D801400621E002C3AD00C782300F7
:101E3000491CDBB2DC1100AD645D0470401CC3F3CF
:101E40008014E4B200AD645D0470401CC3F3401420
:101E5000E4B200AD645D0470401CC3F30014E4B24E
:101E600000AD645D0470401CC3F3C004E4B200AD77
:101E7000645D0470401CC3F38004E4B200AD645D93
:101E80000470401CC3F34004E4B200AD645D047010
:101E9000401CDBB213F0010400AD645D0470401C13
:101EA000C0E771BC704710B500200400E4B2062CF6
:101EB00080F08880E4B2002C26D10321102000F0AD
:101EC00070FDDFF8641608600321302000F069FD22
:101ED000DFF858160860DFF85806DFF84C16096876
:101EE0000160DFF85006DFF8401609680160DFF88E
:101EF0004806DFF8381609680160DFF84006DFF8A9
:101F00002C16096801605BE00321102000F049FDF8
:101F1000DFF82C1608600321302000F042FDDFF8C6
:101F200024160860DFF800060068DFF81416096858
:101F30000818DFF8F4150860DFF8F0050068DFF82E
:101F4000041609680818DFF8E4150860DFF8E005F2
:101F50000068DFF8EC150968884206D2DFF8D00582
:101F6000DFF8DC15096801600DE0DFF8D4050068D2
:101F7000DFF8C0150968884205D2DFF8B805DFF838
:101F8000C01509680160DFF8B0050068DFF8B41516
:101F90000968884206D2DFF8A005DFF8A8150968AD
:101FA00001600DE0DFF89C050068DFF89015096816
:101FB000884205D2DFF88405DFF8881509680160DA
:101FC000641C73E7DFF860050068DFF864150968D2
:101FD000401ADFF860150968401A8008DFF86015BC
:101FE0000860DFF848050068DFF84C150968401AFA
:101FF000DFF848150968401A8008DFF848150860BE
:1020000010BD30B5DFF83805006801F041F9010076
:10201000DFF83405006801F04BF9DFF83015096886
:1020200001F0BAF9DFF828150860DFF81805006834
:1020300001F02EF9DFF81C15096801F039F9DFF815
:102040001815096801F0A8F9DFF810150860DFF825
:102050001005006801F00CFA04000D00DFF8F00430
:102060000068DFF8FC14096801F022F95FF07E5186
:1020700001F092F9DFF8EC14096801F021FADFF8B9
:10208000DC14096801F09AFA01F0F2F9DFF8D824BB
:10209000DFF8D834FFF740FB22002B00FFF772FD7A
:1020A00001F0CEFADFF8B8140860DFF8C404006865
:1020B00001F0DEF904000D00DFF8A004006801F073
:1020C000D7F9DFF8A424DFF8A434FFF725FB2200BA
:1020D0002B00FFF757FD01F0B3FADFF89414086006
:1020E00030BD30B5DFF87804016891F00041DFF8C9
:1020F0008404006801F050F90500DFF8600401680D
:1021000091F00041DFF87004006801F045F9290002
:1021100001F054FA0400DFF86404046030BD38B5FF
:10212000DFF85C0400680400DFF85804006805006C
:102130002000002101F0CCFA06D2DFF84C04210087
:1021400001F03CFA04000AE02000002101F0D2FA7C
:1021500005D2DFF83804210001F030FA040028002D
:10216000002101F0B5FA06D2DFF81C04290001F0C5
:1021700025FA05000AE02800002101F0BBFA05D28B
:10218000DFF80804290001F019FA05002000DFF843
:10219000001401F09DFA02D8DFF8F80304002000D3
:1021A000DFF8F41301F0A6FA02D2DFF8EC03040022
:1021B0002800DFF8DC1301F08BFA02D8DFF8D40333
:1021C00005002800DFF8D01301F094FA02D2DFF8FE
:1021D000C80305002000002101F07AFA08D220008F
:1021E00001F09AFA0100C9B20020FFF7E5FD12E004
:1021F0002000002101F07EFA0DD2DFF8A0032100BB
:1022000001F0CAF80400200001F086FA0100C9B20A
:102210000120FFF7D1FD2800002101F059FA08D272
:10222000280001F079FA0100C9B20020FFF79DFDF6
:1022300012E02800002101F05DFA0DD2DFF85C0306
:10224000290001F0A9F80500280001F065FA010055
:10225000C9B20120FFF789FD31BD38B5C748006814
:10226000CF49096801F024F8CE49096801F020F847
:102270000400C2480068CA49096801F019F8C94950
:10228000096801F015F80500BD480460BD48056007
:10229000FFF745FF31BD70B5C3480068C349096801
:1022A0000818400800F0F4FFC14908600020BF4949
:1022B0000860BD490860BE48006801F0D9F8AA4A24
:1022C000BC4BFFF729FA01F0BBF9B9490860B848DF
:1022D000006890F000400400B7480068210001F059
:1022E0005BF80500B5480068210001F055F80600CC
:1022F000B3480068310001F061F9B1490860B148A4
:10230000B14909680160AE480068290001F056F93A
:10231000AD49086070BD10B5AB480068A9490968AF
:1023200000F0C6FF0400A9480068401C00F0A6FFAA
:10233000210001F031F8974901F0C2F8A14909687C
:1023400001F03CF99649086010BD000010B572B666
:102350000420FFF78DFC00215720FFF7A8FC012186
:102360004420FFF7A4FC02210020FFF7A0FCFFF7A8
:10237000B1FCFFF7CAFCFFF7D0FCFFF7DEFC944886
:1023800001F004FA0FF26511672001F012FB0FF261
:102390006121102001F00DFB4FF47A7001F050FB29
:1023A0000321302000F0FDFA00F072FF6949086057
:1023B00000200400E4B2072C0ED20321302000F0EC
:1023C000F0FA80B200F064FF6249096801F0F6F8A3
:1023D00060490860641CEDE75E4800685FF0824178
:1023E00001F06EF85B4908607A4800684FF47A7132
:1023F00048434FF47A7190FBF1F1002001F02CFB7F
:102400000FF22D01542001F0D4FA4420FFF742FCD2
:1024100062B601F01DFA4FF416726D496E48FFF76F
:10242000FBFC4FF496516C48FFF7EDFCF1E7000020
:1024300080B56A48006850F0010068490860684843
:102440000078401C6649087060480068401C5F497D
:102450000860FFF760FF6248007805281FD16048D8
:10246000002101705F480078401C5E4908705D489B
:102470000078042839D1012000F029FD4A4908607C
:10248000022000F024FD49490860012000F035FDDC
:10249000022000F032FD53480021017025E0504831
:1024A0000078012808D1FFF7FEFCFFF7AAFDFFF72F
:1024B00018FEFFF7D2FE18E049480078022811D133
:1024C00049480068401C484908604748006814288B
:1024D0000BDBFFF7E0FE4448002101603B48002190
:1024E000016002E03E480078032801BD38B50024B1
:1024F0003E4805683D485FF0FF3101601D20040043
:102500000120A040054201D001F076F931BD000064
:102510000CED00E00000FA0500E100E018ED00E03D
:1025200000E400E0561100009823FF1F9C23FF1FCA
:102530008823FF1F8C23FF1F9023FF1F9423FF1F5F
:10254000A023FF1FA423FF1F2C0CFF1F380CFF1F0D
:102550006823FF1F300CFF1F3C0CFF1F6C23FF1F65
:102560007023FF1F340CFF1F7B14AE47E17A743FCA
:102570007423FF1F400CFF1F440CFF1FAC23FF1FE1
:10258000B023FF1FB423FF1F00003442000034C2F9
:102590000100C8420000C8420000C8C2000080BF5D
:1025A000B823FF1FBC23FF1FC023FF1FC423FF1F2F
:1025B0007823FF1FE17A943F480CFF1FA823FF1FD9
:1025C0007C23FF1F8023FF1F8423FF1F6023FF1F27
:1025D000480EFF1FD023FF1FA010FF1F0C710340E8
:1025E0002524FF1F2424FF1F6423FF1FA090044005
:1025F00080B501F023F901BD70B504000D0016008F
:102600004FF480712000C0B200F096FC6DB2002D36
:1026100011D1E4B260115D4951F82000E4B26111BA
:102620005A4A52F821104969012214F01F039A40B6
:102630009143416136E0E4B26011544951F8200001
:10264000E4B26111514A52F821104969012214F093
:102650001F039A4011434161F6B2002E11D1E4B23A
:1026600060114A4951F820000068012114F01F024E
:1026700091408843E4B26111444A52F82110086045
:1026800010E0E4B26011414951F8200000680121D6
:1026900014F01F0291400843E4B261113B4A52F822
:1026A0002110086070BD38B504000D00E4B260115F
:1026B000364951F82000406914F01F01C840C00796
:1026C00003D46321324801F01AFAEDB2002D11D182
:1026D000E4B260112D4951F820000068012114F086
:1026E0001F0291408843E4B26111284A52F8211038
:1026F000086010E0E4B26011244951F8200000683D
:10270000012114F01F0291400843E4B261111F4AF5
:1027100052F82110086031BD10B50400E4B2601118
:102720001A4951F82000406914F01F01C840C00741
:1027300003D47B21164801F0E2F9E4B26011134999
:1027400051F82000012114F01F029140C16010BD1A
:1027500010B50400E4B260110C4951F82000406942
:1027600014F01F01C840C00703D58C21084801F0B0
:10277000C6F9E4B26011054951F82000006914F06F
:102780001F01C84010F0010010BD0000A40BFF1F86
:10279000B852000038B5040064B26511EDB2002DE6
:1027A00002D0012D11D021E0A348006850F0006054
:1027B000A1490860A148006830F090009F49086076
:1027C0009E489E490968016014E09D48006850F0E9
:1027D00000609B4908609948006830F410409749B0
:1027E0000860964895490968016003E033219548DF
:1027F00001F085F964B22000002800F089800128EA
:1028000000F08680032800F0838008284ED0092835
:1028100051D00A2854D00B2857D00C285AD00D2854
:102820005DD00E2860D00F2863D0102870D01128FA
:1028300064D0122867D013286AD0142868D01A28C8
:1028400066D01D2864D01E2862D0202861D021289F
:102850005FD023285DD024285CD025285FD026288F
:1028600062D0272865D0282868D029286BD02A284C
:102870006ED02B2871D02C2874D02D2877D02E28FC
:102880007AD02F287DD0302800F0858031287DD067
:10289000322800F0808033287DD034287BD03A283D
:1028A00079D03D2877D03E2875D075E000212020D2
:1028B00000F042FB74E00021212000F03DFB6FE0BE
:1028C0000021072000F038FB6AE00021082000F01A
:1028D00033FB65E00021222000F02EFB60E00021A8
:1028E000232000F029FB5BE00021402000F024FBC6
:1028F00056E00021412000F01FFB51E0002198200C
:1029000000F01AFB4CE00021992000F015FB47E095
:1029100046E045E00021802000F00EFB40E0002171
:10292000812000F009FB3BE00021822000F004FB45
:1029300036E00021832000F0FFFA31E00021202062
:1029400000F0FAFA2CE00021212000F0F5FA27E04F
:102950000021242000F0F0FA22E00021252000F0E0
:10296000EBFA1DE00021262000F0E6FA18E0002135
:10297000272000F0E1FA13E000212A2000F0DCFA21
:102980000EE000212B2000F0D7FA09E000211120F1
:1029900000F0D2FA04E003E09A212A4801F0AFF8EF
:1029A00031BDF8B504000D0064B26611002729009E
:1029B00049B2200040B200F01CF876B2224850F82C
:1029C000260000680006F8D576B21F4850F82600A9
:1029D0000069070076B21C4850F82600006830F005
:1029E000800076B2184951F826100860380080B28D
:1029F000F2BD30B440B2421110F01F0352B2124C7B
:102A000054F8224049B28D0015F00C0555F05005E0
:102A1000A56052B20C4C54F822400425E56052B235
:102A2000094C54F82240DBB213F01F0555F0400565
:102A3000256030BC704700003C8004401880044092
:102A4000308004405C530000900BFF1F2DE9F84FCD
:102A500004000D0016001F0064B2002C0DD064B2FB
:102A6000012C02D064B2022C02D16DB2022D04DB23
:102A70002E21DFF8B00401F042F8DFF8AC04006862
:102A80004FF47A7148434010B04204D22F21DFF84E
:102A9000940401F034F864B2002C03D0022C66D008
:102AA00049D380E0DFF88404006850F08070DFF8DC
:102AB0007C1408606DB2002D0BD0022D15D00ED302
:102AC000042D1ED017D3062D27D020D3072D2AD0B2
:102AD0002FE04FF48061412000F02EFA2AE04FF4FD
:102AE0004071042000F028FA24E04FF440710520E2
:102AF00000F022FA1EE04FF44071062000F01CFAAC
:102B000018E04FF44071072000F016FA12E04FF47D
:102B10008061652000F010FA0CE04FF480616620BF
:102B200000F00AFA06E04FF48061672000F004FA32
:102B300000E0D5E037E0DFF8F403006850F0007003
:102B4000DFF8E81308606DB2002D02D0012D06D029
:102B50000BE04FF440710C2000F0EEF906E04FF46A
:102B600040710D2000F0E8F900E0B9E01BE0DFF86B
:102B7000C003006850F08070DFF8B41308606DB2D5
:102B8000002D02D0012D06D00BE04FF440710A2039
:102B900000F0D2F906E04FF440710B2000F0CCF9C0
:102BA00000E09DE0FFE7DFF8800300684FF47A71F2
:102BB0004843401080465FEA1840B0FBF6F081467B
:102BC000002082461FFA89F959FA0AF0012802DB2F
:102BD0001AF1010AF6E75FFA8AFABAF1080F05D38B
:102BE0004FF48671DFF83C0300F089FF38FA0AF0F1
:102BF000B0FBF6F0814664B2002C03D0022C17D053
:102C00000BD320E01FFA89F919F1010000FB07F04E
:102C10006421B0FBF1F0834615E01FFA89F919F140
:102C2000010000FB07F06421B0FBF1F083460AE0ED
:102C30001FFA89F919F1010000FB07F06421B0FBCC
:102C4000F1F08346FFE76DB264B2DFF8E80250F8B6
:102C5000240010EBC5006DB264B2DFF8D81251F851
:102C6000241011EBC501C96831F00401C1606DB2D7
:102C700064B2DFF8C00250F8240010EBC500282130
:102C8000C16064B2DFF8AC0250F824005FFA8AFA3F
:102C90001AF0070151F02801016064B2DFF89402D4
:102CA00050F824001FFA89F9C0F8089064B2DFF8E0
:102CB000840250F824000021C1646DB264B2DFF8D0
:102CC000740250F8240010EBC5001FFA8BFBC0F80B
:102CD00010B064B2DFF85C0250F8240000214160BB
:102CE000BDE8F18F2DE9F04104000D0016005FF002
:102CF000000864B2002C0ED064B2012C02D064B281
:102D0000022C02D16DB2022D05DB40F24711DFF833
:102D1000140200F0F4FE64B2002C03D0022C13D095
:102D200009D31AE0652E05D34FF4A671DFF8F4013C
:102D300000F0E5FE11E0652E05D34FF4A871DFF831
:102D4000E40100F0DCFE08E0652E05D34FF4AA7123
:102D5000DFF8D00100F0D3FEFFE764B2DFF8D40162
:102D600050F8240080688046B8F1000FF5D064B2B6
:102D7000002C03D0022C13D009D31AE018F1010063
:102D800000FB06F06421B0FBF1F0070011E018F140
:102D9000010000FB06F06421B0FBF1F0070008E041
:102DA00018F1010000FB06F06421B0FBF1F0070010
:102DB000FFE76DB264B2DFF87C0150F8240010EB3D
:102DC000C5000761BDE8F08110B5040064B2012CB4
:102DD00007D064B2022C04D04FF43571514800F092
:102DE0008EFE64B22000012802D0022811D021E01A
:102DF0004E48006850F000704C4908604FF4E061A4
:102E00000C2000F099F84FF4E0610D2000F094F8E8
:102E100015E04748006850F08070454908604FF45D
:102E2000C0610A2000F088F84FF4C0610B2000F068
:102E300083F804E04FF447713A4800F060FE64B252
:102E40003C4850F82400406D50F0040064B2394909
:102E500051F82410486564B2364850F82400D0F880
:102E6000800050F0080064B2324951F82410C1F8D3
:102E7000800064B22F4850F824000021C16464B27D
:102E80002C4850F824004FF6FF71816064B2294845
:102E900050F82400D0F8800050F0010064B22549B9
:102EA00051F82410C1F8800064B2224850F8240080
:102EB000406D50F0010064B21E4951F8241048657D
:102EC00064B21C4850F824000021416010BD38B5A0
:102ED000040064B2012C07D064B2022C04D040F28A
:102EE0003931104800F00BFE64B2124850F824004B
:102EF00040680500280000B232BD10B5040064B27D
:102F0000012C07D064B2022C04D040F247310548AE
:102F100000F0F5FD64B2074850F82400002141603C
:102F200010BD0000C4530000D023FF1F3C800440AC
:102F300030800440980BFF1F10B4294A12684FF4E8
:102F40000073C0B24409A3401A43254B1A60C0B2B3
:102F50004211244B53F82220012310F01F04A340F8
:102F6000C2F8A030C0B210F01F02C0B243111D4C15
:102F700054F8233043F8221010BC704710B4184A9C
:102F800012684FF40073C0B24409A3401A43144BB3
:102F90001A60C0B24211134B53F82220012310F0E3
:102FA0001F04A340C2F8A03031F4E061C0B210F0B9
:102FB0001F02C0B243110B4C54F8233053F82220A7
:102FC00012F4E0621143C0B210F01F02C0B243110C
:102FD000044C54F8233043F8221010BC7047000012
:102FE00038800440000CFF1F2DE9F84304000D0059
:102FF00064B2002C08D0022C2CD018D3042C4FD053
:103000003BD3052C5FD071E0DFF85802006850F424
:103010008060DFF8501208604FF440716620FFF7BF
:103020008BFF4FF440716720FFF786FF5EE0DFF80B
:103030003402006850F40060DFF8281208604FF492
:1030400040714320FFF778FF4FF440714420FFF7B1
:1030500073FF4BE0DFF80C02006850F48050DFF89B
:10306000041208604FF440716320FFF765FF4FF4CE
:1030700040716220FFF760FF38E0DFF8E801006888
:1030800050F40050DFF8DC1108604FF4407150201C
:10309000FFF752FF4FF440715120FFF74DFF25E03D
:1030A000DFF8C401006850F48060DFF8BC110860EC
:1030B0004FF440719920FFF73FFF4FF44071982083
:1030C000FFF73AFF12E0DFF8A001006850F400605B
:1030D000DFF8941108604FF440718920FFF72CFF4E
:1030E0004FF440718820FFF727FFFFE764B2DFF855
:1030F0007C0150F82400C07810F0F30064B2DFF8CF
:103100006C1151F82410C87064B2DFF8600150F8F7
:10311000240064B2DFF8541151F8241089788170CA
:1031200064B2002C02D064B2012C07D1DFF8400158
:1031300000684FF47A714843814605E04D480068C5
:103140004FF47A71484381462801B9FBF0F006003C
:10315000B6B2B6F5005F02D341F6FF700600B9FBC8
:10316000F5F0B6B2B0EB06100700BFB2202F04D3C3
:1031700040F20311404800F0C2FC64B23B4850F8F2
:103180002400007810F0E0008046B6B2300A10F05B
:103190001F0050EA080064B2344951F82410087046
:1031A00064B2324850F82400467064B22F4850F898
:1031B0002400807A10F0E000804664B22B4850F87A
:1031C000240017F01F0151EA0801817264B22748F8
:1031D00050F82400007C50F0880064B2234951F874
:1031E0002410087464B2214850F82400C07850F0CC
:1031F0000C0064B21D4951F82410C870BDE8F18379
:1032000040B21A4A52F8202012791206F8D540B27C
:10321000164A52F82020D171704770B504000E0094
:1032200015002800451E002817D03078FF2802D14D
:103230000120307001E000203070317807A000F0EC
:10324000DDFC761CA020B5FBF0F100FB115000283E
:10325000E7D103A000F0D2FCE3E770BD25640000D5
:103260000A0A00003480044028800440140CFF1F28
:10327000C823FF1FD023FF1FF0520000002840F199
:103280000980F446404200F005F850F000406047E5
:10329000002800BF0AD0B0FA80F18840D1F19D012A
:1032A000C905020672F1004241EB10207047000090
:1032B00090EA010F44BF81F0004100F087B900BFE0
:1032C000431A4FF000423EBF5340C01AC91800BF16
:1032D000D3095FEAD05C13EB400F34BFB3EB410F6F
:1032E00040E07CEBD1530CD342EA012122D8D1EB50
:1032F000402009D3400A28BF5FEA500140EBCC5080
:103300007047401A15D04002B0FA80F2521C90402B
:10331000400A4FEA3C23B3EB026384BF00EB730027
:1033200007E040F400001A16DB07C2F10102D040AA
:1033300018437047182BFCDC31FA03F202FA03F34E
:10334000591A38BF42F00102D2EB40203CBF400086
:10335000ACF1010C5FEACC5CC20572F100414CEBB0
:103360005020704713EB400F0FD24B0009D0ACEB4D
:10337000D153022B03DB4902172BDDDD704791434C
:10338000401A4300D5D10020704713EB410FD0D332
:103390006FF0000070470000FF2212EAD05C1DBFF2
:1033A00012EAD153944593422BE09C44D30780EA20
:1033B00001021A4043EA002043EA0121A1FB003048
:1033C000410038BF40007CF17F010BDBFE294ADA67
:1033D0005B0842EAC15153EA006373F1004C51EBC0
:1033E00010207047D1F1080CDCF120012FDB5B08C5
:1033F00010FA01F10B4373F1004120FA0CF0504137
:10340000704794451CBF02EAD153934280EA0102FF
:1034100002F000421DD0400019D0490017D05BB91E
:10342000634514D00902B1FA81F39940BCEB030C57
:10343000C00140F00040C1E70002B0FA80FC10FA81
:103440000CF0B3EB0C0CC90141F00041B6E71000E1
:10345000704740000AD0490008D010F1807F94BF27
:1034600011F1807F02E042F0FF407047D043704787
:103470005FF0FF0C1CEAD05114BF614506E0C1109B
:10348000400721F0E04101F16051704779B900F047
:10349000004100020AD0B0FA80FC00FA0CF001F101
:1034A0006051A1EB0C5101EBD02140057047410266
:1034B0000CBF40F4E0016FF00001002070470000F5
:1034C00010B5FF2313EAD0541DBF13EAD1529C421A
:1034D0009A4239E0A41ADA0780EA0103134042EA6B
:1034E000012142EA0020421A3CBF641E01EB420265
:1034F000090AB2FBF1FE01FB1E221202B2FBF1F03F
:1035000001FB10226EF30F201202B2FBF1FE4EEA15
:1035100000207F3406DDFE2C24DA53EA500050EB05
:10352000C45010BDD4F1020401FB1E2240F0807192
:10353000192C1DDC21FA04F0C4F12004A140114330
:1035400071F10042584110BD9C421ABF03EAD152AA
:103550009A420FE080EA010E0EF00043400004D0D2
:10356000490016D143F0FF4010BD490008BFD343C6
:10357000180010BD9C4205D1D21AF7D001F00041CD
:10358000484010BD4A0212BF0846484000F00040C3
:1035900010BD4AB90902B1FA81F2914044B1A418B0
:1035A000C00140F000409EE7C90141F00041524295
:1035B0000002B0FA80F4A040141B94E790EA010FD7
:1035C00044BF81F00041FFF77BBE00BF421A3CBF01
:1035D000801A89184FF0004CC0F3C752FF2A24D03C
:1035E000C1F3C75313B3D21AD2F1190327DD4CEA42
:1035F00001214CFA03F321EA0303D140C20D4CEA46
:103600000020401834BF20EA0C004CEA5000D205DC
:1036100053EA006373EB0C0C52EB1020420012F1E2
:10362000807F38BF7047C00DC0057047490212BF88
:103630009A4200EB5120F8E7D2F11703D9D5704731
:103640004FEAF17CBCF1E04C2CBFBCF5001F11E04F
:103650005FEA4C0C34BFBCF17F5F2EE05FEA9C0C4C
:103660004FEA0C1C4FEA3C0CC10071F100414CEBDD
:1036700050707047C90241EA5051C00218BF41F072
:10368000010141F000414FEA6C50C0F109002128CE
:1036900010D240EACC7CCCF1200C11FA0CF070F185
:1036A0000040CCF1200C21FA0CF00CF0004C40EB67
:1036B0000C0070474FEACC707047490011F5001FAD
:1036C00004D84FEACC10FF30C0057047C8177047C8
:1036D0004FF0807C1CEB400F94BF1CEB410F05E0CA
:1036E00040EA010C5FEA4C0C01D28142704718BFDE
:1036F000884270474FF0807C1CEB400F94BF1CEB5E
:10370000410F05E040EA010C5FEA4C0C01D288420F
:10371000704718BF814270474100090E7F3915D4A8
:10372000D1F11F0114D4400007D2C00140F0004085
:10373000C84048BF6FF000407047C00140F00040F3
:10374000C8404CBF4FF000404042704700207047D7
:1037500000424FF0004058BFC043704710B440B221
:103760004109784A012310F01F04A34042F8213098
:1037700010BC704710B440B24109734A012310F0E5
:103780001F04A34042F8213010BC704710B504005C
:103790006E48046000F07DF80028FBD000F002F8CD
:1037A000002010BDE0B5012002904FF4167001908A
:1037B000002000901B23654802686549002000F046
:1037C0002FFA6448006840084000624908605720AA
:1037D000FFF7D0FF6048006850F001005E490860C4
:1037E0000020FFF7BBFF5D491B20FFF7A5FB5C49ED
:1037F0001D20FFF7A1FB07BD80B55A4890F90000D6
:10380000042814D15748032101705720FFF7B2FF55
:1038100055485FF0006101604E48006850F00100BB
:103820004C490860514849490968016005E0572042
:10383000FFF7A0FF4B480221017001BD494801215B
:1038400001704548006850F0010043490860704726
:1038500080B544480421017043485FF0FF310160A6
:103860005720FFF77BFF3F4890F9000001280FD059
:103870003C4890F900000228F5D13A480421017033
:1038800039485FF0FF3101605720FFF767FFEAE733
:1038900001BD10B582B0002400208DF8000000F0BA
:1038A000F8FA8021122000F007FC002804D13048EB
:1038B00000F0A4F9002043E0322000F0C1F80B2210
:1038C000012100A800F030FC002804D1294800F0B4
:1038D00095F9002034E09DF80010274800F08EF99B
:1038E00026480178264800F089F99DF80000212833
:1038F00025D10020040021480078A4B280B284427F
:1039000018D2A4B21F4810EB44004178A4B21D485D
:1039100010F8140080B200F0CFFB002808D1A4B248
:10392000184810F81410184800F068F9002007E053
:10393000641CE0E7154800F061F9012000E0002078
:1039400016BD000000E100E080E100E0440EFF1F32
:1039500050F00F400C800040248000400301020022
:10396000130109001C0BFF1FA090044010900040A1
:1039700010550000B055000078540000840BFF1F64
:10398000F0540000200BFF1F285500009C5400003D
:1039900010B504004FF4007094FBF0F101FB1041EE
:1039A000002903D01E210B4800F0A9F80A48046042
:1039B00010BD38B504000D0007480068074988426B
:1039C00003D03021034800F09AF864B2034840F86D
:1039D000245031BDF853000008ED00E00000FF1F47
:1039E00030B4134C246854F08074114D2C60114C89
:1039F000246854F001040F4D2C600F4C2468210002
:103A00000E4C24684FF47A7594FBF5F404FB00F433
:103A100023005C1822008A4203D2074C2468A24289
:103A2000FBD3054C24689442FBD330BC70470000A4
:103A3000FCED00E0001000E0041000E0C823FF1FD0
:103A400010B504002000441E002804D04FF47A7002
:103A5000FFF7C6FFF6E710BD38B504000D00002DD6
:103A600003D12421174800F04AF81748006850F4A1
:103A700000001549086015480021016064B220016A
:103A800013496A1E425064B2114810EB0410C0681A
:103A900050F0010064B20E4911EB0411C86064B229
:103AA0000B4810EB041080684008400064B20849DD
:103AB00011EB0411886064B2054810EB0410032177
:103AC000816031BD285300003C80044000700340F9
:103AD00000710340DFF800F0B50CFF1FDFF800F0C5
:103AE000DD0CFF1FBFF34F8F3C48006810F4E0600F
:103AF0003B49084339490860BFF34F8FFEE738B5AB
:103B000004000D002A002100364800F077F8FEE797
:103B100038B504000D00210049B20420FFF770FB06
:103B2000200032BD10B50024042000F057FB042013
:103B300000F08AFB002841D1002000F09DFB04200A
:103B400000F082FB012801D101200400002000F0D8
:103B5000B0FB254800F052F84FF4FA70FFF770FF01
:103B6000E4B2012CEBD1042000F06EFB0028E6D17A
:103B7000042000F069FB002806D1002000F099FB2A
:103B80006420FFF75DFFF3E7042000F05DFB0128F0
:103B900006D1002000F08DFB3220FFF751FFF3E744
:103BA000124800F02BF8FFF795FF6420FFF748FF5D
:103BB0000020FFF793FFFFF795FFC0E710BD10B59A
:103BC0000B480478E4B20F200A4900FB0412E4B267
:103BD0002100094800F012F810BD00000CED00E0D3
:103BE0000400FA05545400009C550000D054000015
:103BF00004ED00E01404FF1F445200000EB400B5B1
:103C000082B003A9009100AB024601210348784429
:103C10000A30FCF701FC06BC5DF810FB5D190000E2
:103C20002DE9F44F82B004000D001E009DF93070A4
:103C3000DDF834807FB2002F02D15FF0010A0DE081
:103C40007FB2012F02D15FF0020A07E07FB2022F9C
:103C500002D15FF0040A01E05FF0100A7FB2002F8A
:103C600005D17848854202D37748A8421DD27FB259
:103C7000012F09D17348854206D37448A84203D363
:103C800015F00300032810D17FB2022F09D16D482F
:103C9000854206D36E48A84203D315F003000028DE
:103CA00003D041216B48FFF72AFFB8F5004F03D33B
:103CB00043216848FFF723FF6748006850F002007F
:103CC000654908606548006850F002006349086073
:103CD00064B260016249455064B2600100F1804005
:103CE00010F510400299016164B2600100F180405A
:103CF00010F510400021818064B2600100F1804025
:103D000010F510405FFA8AFAA0F814A07FB23802CA
:103D100010F4E0607FB217F00701084364B261015C
:103D200001F1804111F51041C88064B2600100F1D9
:103D3000804010F5104041464904490CC18264B2EC
:103D4000600100F1804010F5104041464904490CE3
:103D5000C1834448006830F080004249086064B282
:103D6000600100F1804010F510405FFA8AFAC0F857
:103D700008A064B2600100F1804010F510400021FD
:103D8000C1600E98C00702D4D8F1000000E0002006
:103D900064B2610101F1804111F51041886164B2A2
:103DA000600100F1804010F510404CF20A0181835F
:103DB000F6B27009313050F0800064B22A49605484
:103DC0002A493000C0B2FFF7B7F8A80910F0070081
:103DD000C0B2400183462800103810F03F00C0B246
:103DE000C0008DF800009DF8000010EB0B0B5FFA8F
:103DF0008AFA1BEBCA00401E81465FFA89F95FFA16
:103E00008BFBD9450ED3002200215846C0B2FEF7E5
:103E1000F3FB4FF481715846C0B2FFF78DF81BF1E8
:103E2000010BEAE7124800680121A14088431049CC
:103E30000860104800680121A14008430D4908604E
:103E4000BDE8F78F10F00F4013F10F4012F10F4053
:103E500010F10F4090530000408004403C8004402B
:103E6000009000400080004000100240000101006E
:103E70000C8000402480004001B4BDF80000002800
:103E800005D0BDF80000401EADF80000F5E701B018
:103E9000704780B5012201211A20FEF7ADFB0122F7
:103EA00001211920FEF7A8FB23211A20FFF766F84D
:103EB00023211920FFF762F801BD80B57A4801215E
:103EC00001607A48012101604FF4C870FFF7D4FF08
:103ED00077480021016077480068002804D17448C1
:103EE00001210160002016E07148012101606E4847
:103EF000002101604FF4C870FFF7BEFF6B4800213E
:103F000001606C480068002804D069480121016004
:103F1000002000E0012002BD80B56448002101605E
:103F20006148002101604FF4C870FFF7A5FF5F48AA
:103F3000012101604FF4C870FFF79EFF5A4801212C
:103F400001604FF4C870FFF797FF01BD80B5574877
:103F5000002101604FF4C870FFF78EFF5248002126
:103F600001604FF4C870FFF787FF504801210160DE
:103F70004FF4C870FFF780FF4C48002101604FF4F8
:103F8000C870FFF779FF01BD80B548480021016086
:103F90004FF4C870FFF770FF4348012101604FF4F0
:103FA000C870FFF769FF4148012101604FF4C870F4
:103FB000FFF762FF3D48002101604FF4C870FFF732
:103FC0005BFF01BD80B53948002101603848002100
:103FD00001604FF4C870FFF74FFF344801210160C2
:103FE0004FF4C870FFF748FF32480068002807D038
:103FF0002F48012101602D4800210160002006E0CA
:104000002B4801210160294800210160012002BDE7
:1040100038B5050008242000441EC0B2002818D07E
:10402000280603D520480121016002E01E48002136
:1040300001606D004FF4C870FFF71EFF1B4801219F
:1040400001604FF4C870FFF717FF184800210160A6
:10405000E1E731BD38B5082400251548002101608D
:104060002000441EC0B2002815D06D000F4800216A
:1040700001604FF4C870FFF7FFFE0C48012101609A
:104080004FF4C870FFF7F8FE0A4800680028E7D030
:1040900055F00105E4E706480121016003480021CD
:1040A0000160EDB2280032BD6400FE436800FE43AB
:1040B000E402FE436402FE4370B504000D000026D6
:1040C0002900C9B2200080B200F00AF8002805D10A
:1040D000761CF6B2142EF3D1002000E0012070BD52
:1040E00038B504000D00FFF7E8FE002801D10020DC
:1040F00019E04220FFF78CFFFFF764FF002803D18F
:10410000FFF70AFF00200EE02000C0B2FFF780FF9B
:10411000FFF758FF2800C0B2FFF77AFFFFF752FF02
:10412000FFF7FAFE012032BDF8B504000D001600BD
:1041300000273200D2B2290089B2200000F00AF82C
:10414000002805D17F1CFFB21E2FF2D1002000E015
:104150000120F2BD70B504000D001600FFF7ADFEA2
:10416000002801D1002037E04220FFF751FFFFF780
:1041700029FF002803D1FFF7CFFE00202CE03000FC
:10418000C0B2FFF745FFFFF71DFFFFF7C5FEFFF7C2
:1041900094FE002801D100201EE04320FFF738FFE5
:1041A000FFF710FF002803D1FFF7B6FE002013E051
:1041B000ADB2002D0DD0FFF74DFF2070ADB2012D37
:1041C00002D1FFF7E1FE01E0FFF7C0FE641C6D1EA7
:1041D000EEE7FFF7A1FE012070BD000010B504005E
:1041E00064B2082C0DDA0022002164B22148205C60
:1041F000FEF702FA032164B21E48205CFEF7BEFE01
:1042000014E0082004002000441E40B200280DD015
:104210000022002164B21748205CFEF7EDF903216B
:1042200064B21448205CFEF7A9FEECE710BD10B59F
:10423000040064B20F48205CFEF78AFA002801D11E
:10424000002000E0012010BD10B50400200040B2A5
:10425000FFF7EDFF00280AD10A20FFF7F1FB20004D
:1042600040B2FFF7E4FF002801D1002000E0012068
:1042700010BD0000880BFF1F10B5040064B2042CB1
:1042800007DA0122012164B20E48205CFEF7B4F97E
:104290000EE0042004002000441E40B2002807D095
:1042A0000122012164B20748205CFEF7A5F9F2E77C
:1042B00010BD10B5040064B20248205CFEF72CFA71
:1042C00010BD00001004FF1F343536370000000019
:1042D00000000000000000000000000000000000DE
:1042E000000000000000000000004E6F6E4D617382
:1042F0006B61626C65000000004861726446617524
:104300006C740000000000004D656D4D616E6167CA
:10431000656D656E7400004275734661756C74005E
:1043200000000000000055736167654661756C749C
:10433000000000000000000000000000000000007D
:10434000000000000000000000000000000000006D
:10435000000000000000000000000000000000005D
:10436000000000000000000000000000000000004D
:1043700000535643616C6C00000000000000000018
:1043800044656275674D6F6E69746F72000000005E
:104390000000000000000000000000000000506568
:1043A0006E64535600000000000000000053797353
:1043B0005469636B0000000000000000444D413070
:1043C0000000000000000000000000444D413100EA
:1043D00000000000000000000000444D41320000D9
:1043E000000000000000000000444D4133000000C8
:1043F0000000000000000000444D413400000000B7
:1044000000000000000000444D41350000000000A5
:10441000000000000000444D413600000000000094
:104420000000000000444D41370000000000000083
:1044300000000000444D4138000000000000000072
:10444000000000444D413900000000000000000061
:104450000000444D41313000000000000000000029
:1044600000444D4131310000000000000000000018
:10447000444D4131320000000000000000000044C3
:104480004D41313300000000000000000000444DA9
:1044900041313400000000000000000000444D41A4
:1044A000313500000000000000000000444D415F75
:1044B0004572726F720000000000004D434D000015
:1044C000000000000000000000004654464C0000C0
:1044D000000000000000000000526561645F436F4F
:1044E0006C6C6973696F6E004C56445F4C56570094
:1044F000000000000000004C4C57000000000000CD
:104500000000000000005761746368646F6700007A
:104510000000000000524E470000000000000000B4
:10452000000000004932433000000000000000009D
:10453000000000493243310000000000000000008C
:10454000000053504930000000000000000000004F
:10455000005350493100000000000000000000003E
:1045600053504932000000000000000000000043EA
:10457000414E305F4F525F4D425F6275660043416E
:104580004E305F4275735F4F666600000043414ED8
:10459000305F4572726F72000000000043414E3080
:1045A0005F54785F5761726E696E6743414E305F4A
:1045B00052785F5761726E696E6743414E305F5744
:1045C000616B655F557000000052657365727665BA
:1045D00064353100000000005265736572766564D1
:1045E0003532000000000043414E315F4F525F4DB5
:1045F000425F6275660043414E315F4275735F4FA3
:10460000666600000043414E315F4572726F720072
:104610000000000043414E315F54785F5761726E75
:10462000696E6743414E315F52785F5761726E69C0
:104630006E6743414E315F57616B655F5570000097
:1046400000526573657276656435390000000000BC
:10465000526573657276656436300000000000555F
:10466000415254305F52585F545800000000554189
:104670005254305F45525200000000000055415234
:1046800054315F52585F5458000000005541525455
:10469000315F455252000000000000554152543233
:1046A0005F52585F54580000000055415254325F29
:1046B00045525200000000000055415254335F52F1
:1046C000585F54580000000055415254335F455222
:1046D0005200000000000055415254345F52585FB0
:1046E00054580000000055415254345F4552520066
:1046F000000000000055415254355F52585F545835
:104700000000000055415254355F455252000000F0
:1047100000000041444330000000000000000000A1
:104720000000414443310000000000000000000090
:1047300000434D5030000000000000000000000069
:10474000434D503100000000000000000000004315
:104750004D503200000000000000000000004654F0
:104760004D30000000000000000000000046544DE5
:1047700031000000000000000000000046544D32EF
:104780000000000000000000000000434D54000045
:104790000000000000000000000052544300000030
:1047A000000000000000000000526573657276652D
:1047B000643833000000000050495430000000000D
:1047C00000000000000000504954310000000000CB
:1047D00000000000000050495432000000000000BA
:1047E00000000000005049543300000000000000A9
:1047F00000000000504442300000000000000000B3
:10480000000000555342300000000000000000008E
:1048100000005553424443440000000000000000E3
:1048200000454E45545F313538385F54696D6572C7
:10483000454E45545F5472616E736D697400004556
:104840004E45545F52656365697665000000454ECC
:1048500045545F4572726F72000000000049325388
:1048600030000000000000000000000053444843F6
:104870000000000000000000000000444143300040
:10488000000000000000000000004441433100002F
:1048900000000000000000000054534930000000F8
:1048A00000000000000000004D4347000000000031
:1048B000000000000000004C5054696D657200005B
:1048C0000000000000005265736572766564313047
:1048D0003200000000504F52544100000000000020
:1048E00000000000504F5254420000000000000041
:1048F000000000504F525443000000000000000030
:104900000000504F5254440000000000000000001E
:1049100000504F525445000000000000000000000D
:10492000526573657276656431303800000000525C
:104930006573657276656431303900000000526538
:104940007365727665643131300000000052657322
:10495000657276656431313100000000526573651F
:104960007276656431313200000000526573657201
:1049700076656431313300000000526573657276EC
:1049800065643131340000000052657365727665EC
:1049900064313135000000005265736572766564DC
:1049A00031313600000000526573657276656431FE
:1049B00031370000000052657365727665643131ED
:1049C00038000000005265736572766564313139D4
:1049D00000000000010000000DC1110009030CD00F
:1049E0001240173F185019031A783200A00A63E0EA
:1049F000ACFF650C6600670029142C1E2A007E0C93
:104A00007F16802A814E8261836F847B8586868EA5
:104A1000879788A489AF8AC58BD78CE88D204A00F8
:104A2000491347084B144C17460522992303A60443
:104A30009B009CFFAB069E119F020000310000000E
:104A40006A6E6B6C676D4E4F00B0034000B00B4058
:104A5000008003400090034000800B4000F00F40B6
:104A600040F00F4080F00F40C0F00F4000F10F40C9
:104A7000F0000A1D300018003200180160001818FC
:104A80006400181A6E00181F780013187D00131A9E
:104A90008200131C8C000E1296000E15A0000E183A
:104AA000AA000E1BB4000E1EC8000C1CE1000B1E59
:104AB000FA000A1F000109080090044000A0044009
:104AC00000B0044000C0044000D0044000A00640F4
:104AD00000B0064000C0064000D0064000A00E40D6
:104AE00000B00E400030E84600D0E846000000402C
:104AF0009103C03B5839B43C00002041CDCC4C3E22
:104B00000000C84202040101D423FF1F2424FF1F18
:104B1000D423FF1FD423FF1FD423FF1F890CFF1FA3
:104B2000700CFF1F000000000000000000000000EB
:104B30000000000000000000000000000000000075
:104B400000000000DFF800F0F50DFF1F40B2DFF8B5
:104B5000BC1331F8201040B20128C0F27D8140B270
:104B6000112880F27981DFF8A8230023137089B21D
:104B7000312904D2DFF898230023537082E089B2F0
:104B8000612904D2DFF88823012353707AE089B2C7
:104B9000912904D2DFF878230223537072E089B29E
:104BA000C12904D2DFF86823032353706AE089B275
:104BB000F12904D2DFF858230423537062E040F255
:104BC000211289B2914204D2DFF8442305235370A5
:104BD00058E040F2511289B2914204D2DFF83023FA
:104BE000062353704EE040F2811289B2914204D202
:104BF000DFF81C230723537044E040F2B11289B25E
:104C0000914204D2DFF80823082353703AE040F2BF
:104C1000E11289B2914204D2DFF8F42209235370E1
:104C200030E040F2112289B2914204D2DFF8E02252
:104C30000A23537026E040F2412289B2914203D206
:104C4000B34A0B2353701DE040F2712289B29142A6
:104C500003D2AF4A0C23537014E040F2A12289B270
:104C6000914203D2AA4A0D2353700BE040F2D122A5
:104C700089B2914203D2A64A0E23537002E0A44A9D
:104C80000F23537089B21A2903D2A14A00239370CB
:104C90006DE089B2332903D29D4A0123937066E007
:104CA00089B24C2903D29A4A022393705FE089B2F9
:104CB000652903D2964A0323937058E089B27E296E
:104CC00003D2934A0423937051E089B2972903D207
:104CD0008F4A052393704AE089B2B02903D28C4AE7
:104CE0000623937043E089B2C92903D2884A072377
:104CF00093703CE089B2E22903D2854A082393707D
:104D000035E089B2FB2903D2814A092393702EE052
:104D10004FF48A7289B2914203D27D4A0A2393707A
:104D200025E040F22D1289B2914203D2784A0B233A
:104D300093701CE089B2B1F5A37F03D2744A0C23AF
:104D4000937014E040F25F1289B2914203D2704A2C
:104D50000D2393700BE04FF4BC7289B2914203D2E1
:104D60006B4A0E23937002E0694A0F23937089B255
:104D70001A2903D2664A0023D3706DE089B2332921
:104D800003D2634A0123D37066E089B24C2903D26F
:104D90005F4A0223D3705FE089B2652903D25C4A7F
:104DA0000323D37058E089B27E2903D2584A0423E2
:104DB000D37051E089B2972903D2554A0523D370A5
:104DC0004AE089B2B02903D2514A0623D37043E0A6
:104DD00089B2C92903D24E4A0723D3703CE089B275
:104DE000E22903D24A4A0823D37035E089B2FB296D
:104DF00003D2474A0923D3702EE04FF48A7289B256
:104E0000914203D2424A0A23D37025E040F22D1288
:104E100089B2914203D23E4A0B23D3701CE089B27F
:104E2000B1F5A37F03D23A4A0C23D37014E040F2C9
:104E30005F1289B2914203D2354A0D23D3700BE041
:104E40004FF4BC7289B2914203D2314A0E23D3701F
:104E500002E02F4A0F23D370704710B504002000E2
:104E600040B2FFF773FE2B48007810F0FD0029498F
:104E700008702848007850F010002649087026482D
:104E8000B821017025480078C006FBD4234800787B
:104E9000C0F38100C0B20228F8D11D48C3781C4875
:104EA00082781B4841781A480078FFF74BFE64B2BD
:104EB000164810EB8400807810F01F001849087025
:104EC00064B2124810EB8400C07810F01F0050F05C
:104ED000400014490870114800788006FBD50F483F
:104EE00000784006FBD50C48007810F03F000A49D6
:104EF00008700A480078C0F38100C0B20328F8D1D6
:104F000064B2024830F82400C0B210BDB80BFF1FD5
:104F1000FC0BFF1F014006400040064006400640D3
:104F20000440064005400640DFF800F0FF3A00006C
:104F30004B48F02101704A4800780006FBD54848EC
:104F400000787121084201D0002000E00120704764
:104F50004448006850F40020424908604248006814
:104F600050F40020404908603D4800780006FBD519
:104F70003B48F0210170704710B582B00400A4B224
:104F80004FF4006000FB04F00090384809210170E4
:104F90009DF80200364908709DF8010035490870F7
:104FA00035489DF800100170FFF7C2FF002801D1BD
:104FB00000200CE0A4B2002C08D17FF0010240F2E6
:104FC0000C41200080B200F003F800E0012016BD83
:104FD0007CB504000D001600A4B24FF40060ADB221
:104FE00000FB04500190ADB2042095FBF0F101FBF1
:104FF0001051002903D0F5212048FFF795FF40F616
:105000000100ADB2854203D3F7211C48FFF78CFFA6
:105010009DF80600164908709DF8050015490870AE
:1050200015489DF80410017000969DF8030014497E
:1050300008709DF80200134908709DF8010012499C
:10504000087012489DF80010017008480621017090
:10505000FFF76EFF002801D1002000E0012076BD9F
:105060000000024004F0014008F001400700024047
:105070000600024005000240040002408052000089
:105080000B0002400A0002400900024008000240F2
:10509000F0B4114E366834000F4E366856F47F0671
:1050A0000D4F3E600E0616F0706656EA0076170544
:1050B00017F470073E431F0417F470273E43074F51
:1050C0003E6000263500EDB29D4201D26D1CFAE72C
:1050D000014E3460F0BC704700F001404480044051
:1050E00080B500F08FF800F025F800F005F8FEF725
:1050F00019FDFDF72BF9FEE780B50E20FFF7ADFE99
:1051000032490860314800684FF47A7148433049A9
:1051100008602F4800682F490968C1F30361491CE2
:10512000B0FBF1F02C4908605FF4E1310420FDF799
:105130005BFF01BD2DE9F8432848294988420DD07D
:1051400000208046B8F5826F08D22448244951F8DF
:10515000281040F8281018F10108F3E71F48FEF75F
:1051600017FC204807002048060020480400A01B28
:1051700080464046B0F10108002804D030783870ED
:10518000761C7F1CF5E71A4881461A480500B5EBE6
:10519000090080464046B0F10108002805D00020F3
:1051A00089F8000019F10109F4E713481349144A7A
:1051B000531A98464346B3F10108002B04D00B78EC
:1051C0000370491C401CF5E7BDE8F183CC23FF1FA9
:1051D000C823FF1F44800440D023FF1F0000FF1F8F
:1051E000000000001004FF1FC8420000444B0000F4
:1051F000440EFF1F2624FF1F8C0CFF1F284F0000AA
:10520000E050000080B500F009F80C4800884FF627
:10521000FE7108400949088001BD0000EFF31180CC
:1052200072B607494CF220520A8005494DF6281201
:105230000A80C0B2002800D162B670470020054045
:105240000E2005400A2A2A2A2A64656661756C7454
:105250005F69737220656E7465726564206F6E207D
:10526000766563746F722025642A2A2A2A2A0D0A19
:105270000A257320496E746572727570740000009F
:10528000473A5CB1C8C8FC5C32303134B7C9CBBCDA
:10529000BFA8B6FB5CB3CCD0F25C595A365F385C21
:1052A000436869705C7372635C4D4B36305F666C4B
:1052B0006173682E63000000473A5CB1C8C8FC5CAB
:1052C00032303134B7C9CBBCBFA8B6FB5CB3CCD04D
:1052D000F25C595A365F385C436869705C7372637C
:1052E0005C4D4B36305F6770696F2E6300000000C5
:1052F000473A5CB1C8C8FC5C32303134B7C9CBBC6A
:10530000BFA8B6FB5CB3CCD0F25C595A365F385CB0
:10531000436869705C7372635C4D4B36305F7561D6
:1053200072742E6300000000473A5CB1C8C8FC5C90
:1053300032303134B7C9CBBCBFA8B6FB5CB3CCD0DC
:10534000F25C595A365F385C436869705C7372630B
:105350005C4D4B36305F5049542E6300473A5CB188
:10536000C8C8FC5C32303134B7C9CBBCBFA8B6FB6F
:105370005CB3CCD0F25C595A365F385C43686970D4
:105380005C7372635C4D4B36305F6164632E630007
:10539000473A5CB1C8C8FC5C32303134B7C9CBBCC9
:1053A000BFA8B6FB5CB3CCD0F25C595A365F385C10
:1053B000436869705C7372635C4D4B36305F646D3B
:1053C000612E6300473A5CB1C8C8FC5C32303134AE
:1053D000B7C9CBBCBFA8B6FB5CB3CCD0F25C595A02
:1053E000365F385C436869705C7372635C4D4B3642
:1053F000305F66746D2E6300473A5CB1C8C8FC5CD0
:1054000032303134B7C9CBBCBFA8B6FB5CB3CCD00B
:10541000F25C595A365F385C436869705C7372633A
:105420005C6D6973632E630010B5084979441C31C3
:10543000074C7C441A34A14206D0081D0A68511852
:1054400088470146A142F8D110BD00BF740000009A
:1054500080000000417373657274696F6E2066612D
:10546000696C656420696E202573206174206C6905
:105470006E652025640A00000A47657420494420AF
:1054800073756363657373A3AC53454E534F5220DA
:105490004944206973203078257800000A4F563738
:1054A00037323520526567697374657220436F6EB9
:1054B000666967205375636365737321000000009C
:1054C0005FBCFFFFE4150000440EFF1F000000005A
:1054D0000ABDF8D0D0BDE2CBF8B2D9D7F7A3ACC79C
:1054E000EBD6D8D0C2CBA2C8EBB9CCBCFE00000032
:1054F0000A436F6E666967205265676973746572E7
:10550000204E756D6265722069732025642000004D
:105510000ABEAFB8E63A53434342D0B4CAFDBEDD3B
:10552000B4EDCEF3000000000ABEAFB8E63AD0B446
:10553000BCC4B4E6C6F730782578CAA7B0DC000052
:1055400000F009F8002801D0FFF76EFF0020FCF7FB
:10555000FDFE00F002F80120704700F001B80000E5
:105560000746384600F002F8FBE700000149182022
:10557000ABBEFBE72600020038B504460D462846C0
:1055800000F006F8A84218BF0024204632BD0000F3
:105590000149FEF7BDBA00BF4C0CFF1F0ABDF8C899
:1055A000EBCBC0D1ADBBB7B5C8B4FDA3A100000023
:1055B0000ABEAFB8E63AB6C1C8A14944CAA7B0DC32
:1055C00000000000C046C046C046C046FFF7B8FF16
:1055D00000000000000000000000000000000000CB
:1055E000000000000000000000000000FFFFFFFFBF
:1055F000FFFFFFFF000000000000000000000000AF
:10560000000000000000000000000000000000009A
:105610000000000000000000FFFFFFFFFFFF000090
:04000005000055C5DD
:00000001FF
