:10000000F8FF00201104000007340000073400004E
:1000100007340000073400000734000007340000F4
:1000200007340000073400000734000007340000E4
:1000300007340000073400000734000007340000D4
:1000400007340000073400000734000007340000C4
:10040000FFFFFFFFFFFFFFFFFFFFFFFFFEFFFFFFFD
:1004100062B605F087FFFEE710F00702DFF8483C00
:100420001B6819004FF6FF031940DFF8F83A53EA4A
:1004300002231943DFF8303C1960704710B440B212
:100440004109DFF8282C012310F01F04A34042F8D3
:10045000213010BC704740B2002809D540B210F0DE
:100460000F02DFF8C43AD2180B0102F8043C04E092
:1004700040B2DFF8482C0B018354704780B501224D
:100480000121612001F0F6FA00220121822001F011
:10049000F1FA00220121842001F0ECFA002201216E
:1004A000862001F0E7FA00220121872001F0E2FA1C
:1004B000002200216A2001F0DDFA002200216B20D9
:1004C00001F0D8FA002200216D2001F0D3FA01BD1D
:1004D00080B5302001F09CFB102001F099FB01BD9C
:1004E00080B5002344F620620521002001F0ECFCD9
:1004F000002344F620620721002001F0E5FC01BD45
:1005000080B5012001F09EFE022001F09BFE032138
:100510000C2001F071FF03210D2001F06DFF03217C
:100520000A2001F069FF03210B2001F065FF01BDE6
:100530000200914201DA080000E01000704702005A
:100540008A4201DA080000E01000704738B5040064
:100550000D00E4B2002C0ED10121842001F0E1FA5B
:100560000021872001F0DDFAEDB22A0005210020EC
:1005700001F0F6FD10E0E4B2012C0DD10021842041
:1005800001F0CFFA0121872001F0CBFAEDB22A0069
:100590000521002001F0E4FD31BD38B504000D0057
:1005A000E4B2002C0ED10021822001F0BAFA012120
:1005B000862001F0B6FAEDB22A000721002001F0F2
:1005C000CFFD10E0E4B2012C0DD10121822001F019
:1005D000A8FA0021862001F0A4FAEDB22A00072132
:1005E000002001F0BDFD31BD10B400231A0092B20D
:1005F0003C2A12DA0023190089B250290BDA89B299
:1006000092B25023DFF8A84C03FB02430478CC5489
:10061000401C491CF0E7521CE9E700231A0092B283
:100620003C2A25DA0023190089B250291EDA89B242
:1006300092B25023DFF8784C03FB0243CB5CFF2BD4
:1006400009D189B292B25023DFF8644C03FB024314
:100650000124CC5408E089B292B25023DFF8504C08
:1006600003FB02430024CC54491CDDE7521CD6E7AF
:1006700010BC704738B4DFF8403C1B88ADF8003040
:100680001400621E002C3AD00C782300491CDBB207
:10069000DC1100AD645D0470401CC3F38014E4B24F
:1006A00000AD645D0470401CC3F34014E4B200ADBF
:1006B000645D0470401CC3F30014E4B200AD645DDB
:1006C0000470401CC3F3C004E4B200AD645D047068
:1006D000401CC3F38004E4B200AD645D0470401CB0
:1006E000C3F34004E4B200AD645D0470401CDBB2AF
:1006F00013F0010400AD645D0470401CC0E731BC20
:1007000070472DE9F04F83B000275FF0000B002405
:10071000002500208DF8030000208DF80200002045
:100720008DF8010000208DF800005FF0000A00261F
:100730005FF000095FF0000800208DF80500002040
:100740008DF80400DFF86C0BFFF74EFF3B2007002D
:10075000BFB2332F74DB282083461FFA8BFBBBF11B
:100760004F0F1EDA1FFA8BFBBFB25020DFF8401B81
:1007700000FB07101BF8000001280FD11FFA8BFBAC
:10078000BFB25020DFF8281B00FB07101BEB000056
:100790004078002802D15846050002E01BF1010B09
:1007A000DBE71FFA8BFBBBF14F0F01DB502005008D
:1007B000BFB2DFF8080B3D54282083461FFA8BFB9D
:1007C000BBF1000F1FD01FFA8BFBBFB25020DFF828
:1007D000E01A00FB07101BF80000012810D11FFAD7
:1007E0008BFBBFB25020DFF8C81A00FB07101BEBD1
:1007F000000010F8010C002802D15846040002E065
:10080000BBF1010BDAE71FFA8BFBBBF1000F01D143
:1008100001200400BFB2DFF8A80A3C54BFB2DFF8E1
:10082000A00A385CBFB2DFF8941A795C081802217C
:1008300090FBF1F0BFB2DFF8741978547F1E87E7A0
:10084000BFB2002F00F06E81EDB2AB464F21EDB28A
:1008500015F10A00FFF76CFE1FFA8BFB834521DAC6
:100860001FFA8BFBBFB25020DFF8441A00FB0710C1
:100870001BF80000012812D11FFA8BFBBFB25020D9
:10088000DFF82C1A00FB07101BEB00004078002853
:1008900005D158468DF8030018F1010802E01BF15C
:1008A000010BD3E7EDB2AB460021EDB2B5F10A0082
:1008B000FFF745FE1FFA8BFB584522DA1FFA8BFB28
:1008C000BFB25020DFF8E81900FB07101BF800004A
:1008D000002813D11FFA8BFBBFB25020DFF8D019CC
:1008E00000FB07101BEB000010F8010C012805D1DC
:1008F00058468DF8020019F1010902E0BBF1010B25
:10090000D2E75FFA89F9B9F1000F06D15FFA88F8EA
:10091000B8F1000F01D1502005005FFA89F9B9F153
:10092000010F1DD15FFA88F8B8F1010F18D19DF8B9
:1009300002009DF8031051FA80F0EDB2B0EB450FC4
:1009400007DA9DF80300050000208046002081465C
:1009500006E09DF802000500002080460020814648
:100960005FFA89F9B9F1010F0BD15FFA88F8B8F194
:10097000000F06D19DF802000500002080460020EF
:1009800081465FFA88F8B8F1010F0BD15FFA89F957
:10099000B9F1000F06D19DF8030005000020804644
:1009A00000208146BFB2DFF814093D54E4B2A346EB
:1009B0000021E4B2B4F10A00FFF7C1FD1FFA8BFB7E
:1009C000584522DA1FFA8BFBBFB25020DFF8E0183F
:1009D00000FB07101BEB000010F8010C002811D1E0
:1009E0001FFA8BFBBFB25020DFF8C41800FB0710C2
:1009F0001BF80000012805D158468DF800001AF1B7
:100A0000010A02E0BBF1010BD2E7E4B2A3464F2199
:100A1000E4B214F10A00FFF78BFD1FFA8BFB83454C
:100A200021DA1FFA8BFBBFB25020DFF8841800FBDD
:100A300007101BF80000012812D11FFA8BFBBFB270
:100A40005020DFF86C1800FB07101BEB000010F8BB
:100A5000010C002804D158468DF80100761C02E0F4
:100A60001BF1010BD3E75FFA8AFABAF1000F04D148
:100A7000F6B2002E01D1012004005FFA8AFABAF121
:100A8000010F1BD1F6B2012E18D19DF800009DF880
:100A9000011051FA80F0E4B2B0EB440F07DA9DF890
:100AA00001000400002082460020060006E09DF8B8
:100AB0000000040000208246002006005FFA8AFA47
:100AC000BAF1010F09D1F6B2002E06D19DF800004F
:100AD000040000208246002006005FFA8AFABAF17C
:100AE000000F09D1F6B2012E06D19DF801000400D5
:100AF0000020824600200600BFB2DFF8C4073C5445
:100B0000BFB2DFF8BC07385CBFB2DFF8B017795C62
:100B10000818022190FBF1F0BFB2DFF8901678546C
:100B20007F1E8DE6BDE8F78FDFF8C00B0021016066
:100B3000DFF87806407FDFF87416C97F401ADFF8C7
:100B40006C16097F4018DFF8641691F82010401ADF
:100B5000DFF85816C97E4018DFF8501691F82110BA
:100B6000401ADFF84816897E4018DFF8401691F8E1
:100B70002210401ADFF8741B08607047F0B40020A0
:100B800000210022002300242C252800C0B2312897
:100B900080F28880C0B2DFF81456455DC0B250269E
:100BA000DFF80C7706FB0076AD1915F8025C012D15
:100BB00076D1C0B2DFF8F455455DC0B25026DFF8FB
:100BC000F07606FB0076AD19AD78012D68D1DBB269
:100BD000052B2BDA00252A00C0B2DFF8D055455D81
:100BE0002D1F2900C0B2DFF8C455455D1E3DC9B2B6
:100BF0008D421BDAC9B2C0B25025DFF8B46605FBDE
:100C000000654D5D002D00D1521CD2B2002A0BD0E0
:100C1000C9B2C0B25025DFF8986605FB00654D5D8E
:100C2000012D01D1130001E0491EDBE7E4B2052CE0
:100C30002BDA00252A00C0B2DFF87055455D2D1D66
:100C40002900C9B2C0B2DFF86455455D1E35A9421E
:100C50001BDAC9B2C0B25025DFF8546605FB006547
:100C60004D5D002D00D1521CD2B2002A0BD0C9B26A
:100C7000C0B25025DFF8386605FB00654D5D012DDB
:100C800001D1140001E0491CDBE7DBB2052B07DBD7
:100C9000E4B2052C04DBDFF8C45C01262E7001E011
:100CA000401C73E7F0BC704710B500200400E4B2AC
:100CB000062C80F28880E4B2002C26D1032110207B
:100CC00001F0ADF8DFF8301A08600321302001F0A0
:100CD000A6F8DFF8281A0860DFF8240ADFF8181AE7
:100CE00009680160DFF81C0ADFF80C1A0968016066
:100CF000DFF8140ADFF8041A09680160DFF80C0A4B
:100D0000DFF8F819096801605BE00321102001F0A9
:100D100086F8DFF8FC1908600321302001F07FF825
:100D2000DFF8F0190860DFF8D0090068DFF8E01993
:100D300009680818DFF8C0190860DFF8C009006802
:100D4000DFF8D01909680818DFF8B0190860DFF873
:100D5000B0090068DFF8B8190968884206D2DFF8E0
:100D6000A009DFF8AC19096801600DE0DFF8A009FF
:100D70000068DFF890190968884205D2DFF8840915
:100D8000DFF88C1909680160DFF87C090068DFF87A
:100D900084190968884206D2DFF86C09DFF87419F3
:100DA000096801600DE0DFF86C090068DFF85C1984
:100DB0000968884205D2DFF85409DFF85819096834
:100DC0000160641C73E7DFF830090068DFF8301950
:100DD0000968401ADFF82C190968401A8008DFF802
:100DE00030190860DFF814090068DFF81C19096879
:100DF000401ADFF818190968401A8008DFF814193A
:100E0000086010BD38B5DFF80809006801F034FB50
:100E10000100DFF80409006801F04EFBDFF8FC1860
:100E2000096801F0BDFBDFF8F8180860DFF8E40896
:100E3000006801F021FBDFF8EC18096801F03CFBC9
:100E4000DFF8E418096801F0ABFBDFF8E018086090
:100E5000DFF8DC08006801F00FFC04000D00DFF88B
:100E6000C0080068DFF8C818096801F025FB5FF0CA
:100E70007E5101F095FBDFF8BC18096801F024FCF5
:100E8000DFF8A818096801F09DFC01F0F5FBDFF818
:100E9000A02ADFF8A03A01F0D7FC22002B0001F0D5
:100EA000A5FD01F017FEDFF888180860DFF8B00A2A
:100EB000006801F0E1FB04000D00DFF87008006835
:100EC00001F0DAFBDFF8682ADFF8683A01F0BCFCD1
:100ED00022002B0001F08AFD01F0FCFDDFF8801AF2
:100EE000086031BD38B5DFF84808016891F000416D
:100EF000DFF8700A006801F053FB0500DFF82C08EA
:100F0000016891F00041DFF8600A006801F048FBD9
:100F1000290001F057FC0400DFF8500A046031BDDD
:100F2000000000000000FA0518ED00E038B5DFF819
:100F3000400A00680400DFF83C0A00680500200051
:100F4000002101F00FFE06D2DFF82C0A210001F08B
:100F500039FC04000AE02000002101F015FE05D252
:100F6000DFF8180A210001F02DFC04002800002100
:100F700001F0F8FD06D2DFF8000A290001F022FC9A
:100F800005000AE02800002101F0FEFD05D2DFF88F
:100F9000EC09290001F016FC05002000DFF8E0193B
:100FA00001F0E0FD02D8DFF8DC0904002000DFF8E2
:100FB000D81901F0E9FD02D2DFF8CC0904002800BD
:100FC000DFF8BC1901F0CEFD02D8DFF8B809050042
:100FD0002800DFF8B41901F0D7FD02D2DFF8A80924
:100FE00005002000002101F0BDFD08D2200001F025
:100FF000DDFD0100C9B20020FFF7CFFA12E02000AA
:10100000002101F0C1FD0DD2DFF88009210001F0BF
:10101000C7FA0400200001F0C9FD0100C9B2012097
:10102000FFF7BBFA2800002101F09CFD08D2280040
:1010300001F0BCFD0100C9B20020FFF787FA12E001
:101040002800002101F0A0FD0DD2DFF840092900A1
:1010500001F0A6FA0500280001F0A8FD0100C9B2C0
:101060000120FFF773FA31BD0CED00E000E100E074
:1010700038B5DFF8F8080068DFF81419096801F0DE
:101080001BFADFF81019096801F09CFB0400DFF877
:10109000DC080068DFF8F818096801F00DFADFF8DD
:1010A000F418096801F008FA0500DFF8C4080460C4
:1010B000DFF8C0080560FFF739FF31BD00E400E04C
:1010C00070B5DFF8D4080068DFF8D0180968081890
:1010D000400801F0D1F9DFF8C81808600020DFF8F7
:1010E000BC180860DFF8B0180860DFF8B4080068C2
:1010F00001F0C2FADFF83828DFF8A83801F0A4FBC5
:1011000001F0E8FCDFF898180860DFF89C08006838
:10111000DFF88C18096801F0CFF90400DFF88C08BB
:101120000068210001F03CFA0500DFF8840800683F
:10113000210001F035FA0600DFF878080068310078
:1011400001F040FBDFF86C180860DFF86C08DFF88E
:101150006C1809680160DFF85C080068290001F07C
:1011600031FBDFF85818086070BD10B5DFF84C0887
:101170000068DFF84418096801F09EF90400DFF800
:1011800040080068401C01F06DF9210001F008FAE8
:10119000DFF8F01701F098FADFF81C18096801F081
:1011A00011FBDFF8EC17086010BD0000B036FF1F20
:1011B000F8B500240025DFF80C0828210170DFF8BD
:1011C00004080078DFF80018897F401A040004FB47
:1011D00004F0DFF8F8170968B0FBF1F0DFF8F0175A
:1011E0000968081801F048F9DFF8E8170860002CD2
:1011F00001D5012C3ADADFF8E0070068201A050073
:10120000200001F02FF9DFF8CC17096801F0C8F9C8
:1012100001F032FADFF81827DFF8C03701F014FBCD
:1012200001F058FC0600280001F01CF9DFF8B017A7
:10123000096801F0B5F901F01FFADFF8F426DFF8CC
:101240009C3701F001FB01F045FC0700DFF888073F
:101250000460DFF89007DFF890170968016030003C
:10126000390001F0AFFADFF880170860F1BD10B562
:10127000DFF874070068DFF86C17096801F01CF9E3
:101280000400DFF868070068401C01F0EBF821005B
:1012900001F086F9DFF8581701F016FADFF8441765
:1012A000096801F08FFADFF8EC16086010BD000045
:1012B0007823FF1FB810FF1F9E2500003836FF1F40
:1012C0007436FF1F38B5002572B60420FFF7A4F866
:1012D00000215720FFF7BFF801214420FFF7BBF89A
:1012E00002210020FFF7B7F8FFF7C8F8FFF7F0F882
:1012F000FFF7F6F8FFF704F901F07AFC01F002FDC0
:10130000DFF8F00601F0EEFD0FF22D61672001F02D
:10131000FCFE0FF25971102001F0F7FE4FF47A70C5
:1013200001F03AFF0321302000F079FD01F0A4F82C
:10133000DFF8F013086000200400E4B2072C10DA94
:101340000321302000F06BFD80B201F095F8DFF84A
:10135000D413096801F036FADFF8C8130860641C7A
:10136000EBE7DFF8C00300685FF0824101F0ACF901
:10137000DFF8B0130860DFF8800600684FF47A7178
:1013800048434FF47A7190FBF1F1002001F010FF17
:101390000FF2A531542001F0B8FE4420FFF74EF8BB
:1013A0000321102000F03BFDD94908600020040013
:1013B000E4B2072C0BDA0321102000F030FDD449F1
:1013C000096811FA80F0D2490860641CF0E7D0483F
:1013D0000068C008CE490860002001F05DFF0028C9
:1013E00005D16D1C002001F057FF0028FAD0EDB2A6
:1013F000062095FBF0F100FB1150002830D1DFF8FA
:10140000FC250521002001F0D9FC012001F044FF5A
:1014100000280ED1DFF8E80500685FF07E5101F08A
:10142000D1F9DFF8DC150860012001F035FF002854
:10143000FAD0022001F030FF002840F0FE80DFF8F3
:10144000C0050068DFF8441501F0BCF9DFF8B015FD
:101450000860022001F020FF002840F0EE80F8E74D
:10146000EDB2062095FBF0F100FB115001282CD1C4
:10147000DFF890250521002001F0A0FC012001F0FB
:101480000BFF00280CD1A4480068DFF87C1501F0A0
:1014900099F9A1490860012001F0FEFE0028FAD068
:1014A000022001F0F9FE002840F0C7809A48006849
:1014B000DFF8581501F086F997490860022001F01D
:1014C000EBFE002840F0B980F8E7EDB2062095FB6E
:1014D000F0F100FB115002282AD1DFF83425052154
:1014E000002001F06BFC012001F0D6FE00280BD19A
:1014F000DFF8D80400680A30DFF8D0140860012053
:1015000001F0CAFE0028FAD0022001F0C5FE002832
:1015100040F09380DFF8B40400680A38DFF8AC14B8
:101520000860022001F0B8FE002840F08680F8E74D
:10153000EDB2062095FBF0F100FB1150032828D1F5
:10154000DFF8D0240521002001F038FC012001F053
:10155000A3FE00280BD1DFF878040068401DDFF8F7
:1015600070140860012001F097FE0028FAD00220D4
:1015700001F092FE002860D1DFF854040068401F9B
:10158000DFF84C140860022001F086FE002854D1D8
:10159000F9E7EDB2062095FBF0F100FB11500428AD
:1015A0002ED1DFF874240521002001F007FC012072
:1015B00001F072FE00280ED1DFF824040068DFF885
:1015C0005C1401F0FFF8DFF818140860012001F046
:1015D00063FE0028FAD0022001F05EFE00282CD124
:1015E000DFF8FC030068DFF8381401F0EBF8DFF8EF
:1015F000F0130860022001F04FFE00281DD1F9E72A
:10160000EDB2062095FBF0F100FB1150052814D136
:10161000DFF810240521002001F0D0FB022001F0AA
:101620003BFE002809D1DFF800040121017062B6F9
:10163000022001F031FE0028FAD02DA20021002066
:1016400001F0BCFB324802680021232001F0CBFBF3
:1016500028A20121002001F0B1FB2F48006801F011
:1016600033FE02000121232001F0BDFBDFF8BC2383
:101670000221002001F0A2FBDFF88403006801F0E2
:1016800023FE02000221232001F0ADFBCF480268B7
:101690000321002001F0A7FBCD480268032123208D
:1016A00001F0A1FBDFF888230421002001F086FB74
:1016B000CB48006801F008FE02000421232001F05D
:1016C00092FBDFF86403007800283FF469AE01F074
:1016D0006BFC4FF41672C749DFF85803FEF7CAFFD8
:1016E000FFF70FF8FFF720FAEBE700007437FF1F52
:1016F000415A3A00413A00003837FF1F3C37FF1F7C
:101700002837FF1F2C37FF1F3037FF1F3437FF1FCD
:101710004037FF1F4437FF1F980BFF1FA40BFF1F0D
:101720000037FF1F9C0BFF1FA80BFF1F0437FF1F75
:101730000837FF1FA00BFF1F38B5BF48006850F0E7
:101740000100BD490860BD480078401CBB490870D5
:101750009B480068401C9A490860FFF706FDA348B3
:101760000068401CA1490860FFF781FDB34800787C
:1017700005285CD1B14800210170B1480068401CC7
:10178000AF490860AF480078401CAE490870AD48CA
:101790000078042812D1012000F0D7FD7E490860AE
:1017A000022000F0D2FD7D490860012000F0E3FD39
:1017B000022000F0E0FDA34800210170A04800686D
:1017C000B0F57A7FC0F0B2809D484FF47A71016025
:1017D0007548006800F050FF554A564B01F006F975
:1017E00001F078F9704908608548006800F044FF0E
:1017F000954A964B01F028F802000B0014001D00DA
:101800006948006800F038FF22002B0001F06EFDEF
:1018100000F28C807A48006800F02EFF8A4A8B4BD9
:1018200001F012F801F056F95F4908607EE0834844
:101830000078012808D1FFF737FAFFF7E3FAFFF73E
:1018400051FBFFF715FC71E07C480078022811D1AC
:101850007F480068401C7E4908607D480068142865
:1018600064DBFFF72DFC7A48002101605448002119
:1018700001605BE071480078032811D17548006869
:10188000401C744908607348006802284EDBFFF76B
:101890008FFC70480021016054480021016045E040
:1018A00066480078042841D16B480068401C6A49AA
:1018B00008606948006840F6B831884236D3664807
:1018C00040F6B831016065480068052804DA6348CD
:1018D000006810F1040F16DA3348006800F0CCFEFF
:1018E000134A5F4B01F082F801F0F4F82E490860CA
:1018F0005C4800682C49096801F034F903D82A488B
:10190000584909680160FFF739F91448007801283F
:101910000CD14FF4FA7001F03FFC72B600210020A8
:10192000FEF73BFE00210020FEF710FE31BD000057
:101930007B14AE47E17A743F38B500244A48056805
:1019400049485FF0FF3101601D20040035FA04F0C2
:10195000C00701D501F0FCFA31BD0000D437FF1FEC
:101960000C37FF1FAC0BFF1FB00BFF1F4C37FF1FC7
:101970005037FF1F5437FF1F00004042000040C295
:101980000100C8420000C8420000C8C2000080BF79
:101990005837FF1F5C37FF1F6837FF1F6C37FF1F6B
:1019A0001037FF1FE17A943FEC36FF1FB40BFF1F87
:1019B0004837FF1F1437FF1F1837FF1F1C37FF1F43
:1019C000F036FF1FD837FF1FB036FF1FC40BFF1FB5
:1019D000C00BFF1FB80BFF1F7037FF1FE17A843F5A
:1019E000BC0BFF1F2037FF1F2437FF1FF836FF1FD8
:1019F00000002041600EFF1F8037FF1F7C68000041
:101A0000900BFF1F886800000000A0400000A0C0ED
:101A100094680000A0680000AC6800000000A041CD
:101A20000000A0C1B8680000D537FF1FD0680000D3
:101A3000D8680000B810FF1F0C710340D737FF1F94
:101A40006037FF1FD637FF1F9A9999999999B93F27
:101A5000F436FF1FFC36FF1F6437FF1F7437FF1F6C
:101A6000E17A74BF940BFF1FA090044080B501F091
:101A700091FA01BD70B504000D0016004FF480719D
:101A80002000C0B200F096FC6DB2002D11D1E4B27E
:101A900060115D4951F82000E4B261115A4A52F8D0
:101AA00021104969012214F01F039A4091434161BA
:101AB00036E0E4B26011544951F82000E4B26111FB
:101AC000514A52F821104969012214F01F039A402B
:101AD00011434161F6B2002E11D1E4B260114A49BE
:101AE00051F820000068012114F01F029140884342
:101AF000E4B26111444A52F82110086010E0E4B2E7
:101B00006011414951F820000068012114F01F02C2
:101B100091400843E4B261113B4A52F82110086039
:101B200070BD38B504000D00E4B26011364951F8BB
:101B30002000406914F01F01C840C00703D463218E
:101B4000324801F000FCEDB2002D11D1E4B2601179
:101B50002D4951F820000068012114F01F02914026
:101B60008843E4B26111284A52F82110086010E05D
:101B7000E4B26011244951F820000068012114F0FA
:101B80001F0291400843E4B261111F4A52F821102C
:101B9000086031BD10B50400E4B260111A4951F873
:101BA0002000406914F01F01C840C00703D47B2106
:101BB000164801F0C8FBE4B26011134951F8200047
:101BC000012114F01F029140C16010BD10B5040046
:101BD000E4B260110C4951F82000406914F01F0173
:101BE000C840C00703D58C21084801F0ACFBE4B223
:101BF0006011054951F82000006914F01F01C84028
:101C000010F0010010BD0000DC0BFF1FF4650000A8
:101C100038B5040064B26511EDB2002D02D0012D7B
:101C200011D021E0A348006850F00060A14908608D
:101C3000A148006830F090009F4908609E489E4986
:101C40000968016014E09D48006850F000609B49FD
:101C500008609948006830F4104097490860964839
:101C600095490968016003E03321954801F06BFB59
:101C700064B22000002800F08980012800F08680EE
:101C8000032800F0838008284ED0092851D00A2864
:101C900054D00B2857D00C285AD00D285DD00E28D0
:101CA00060D00F2863D0102870D0112864D012287B
:101CB00067D013286AD0142868D01A2866D01D2847
:101CC00064D01E2862D0202861D021285FD023282C
:101CD0005DD024285CD025285FD0262862D0272814
:101CE00065D0282868D029286BD02A286ED02B28C8
:101CF00071D02C2874D02D2877D02E287AD02F2878
:101D00007DD0302800F0858031287DD0322800F049
:101D1000808033287DD034287BD03A2879D03D2864
:101D200077D03E2875D075E00021202000F042FBDE
:101D300074E00021212000F03DFB6FE0002107202E
:101D400000F038FB6AE00021082000F033FB65E07A
:101D50000021222000F02EFB60E00021232000F073
:101D600029FB5BE00021402000F024FB56E000212D
:101D7000412000F01FFB51E00021982000F01AFBE9
:101D80004CE00021992000F015FB47E046E045E0DB
:101D90000021802000F00EFB40E00021812000F0B7
:101DA00009FB3BE00021822000F004FB36E000212B
:101DB000832000F0FFFA31E00021202000F0FAFA41
:101DC0002CE00021212000F0F5FA27E0002124205A
:101DD00000F0F0FA22E00021252000F0EBFA1DE0EF
:101DE0000021262000F0E6FA18E00021272000F06C
:101DF000E1FA13E000212A2000F0DCFA0EE00021D5
:101E00002B2000F0D7FA09E00021112000F0D2FACF
:101E100004E003E09A212A4801F095FA31BDF8B5B3
:101E200004000D0064B266110027290049B22000A9
:101E300040B200F01CF876B2224850F82600006844
:101E40000006F8D576B21F4850F826000069070052
:101E500076B21C4850F82600006830F0800076B258
:101E6000184951F826100860380080B2F2BD30B42D
:101E700040B2421110F01F0352B2124C54F82240EB
:101E800049B28D0015F00C0555F05005A56052B211
:101E90000C4C54F822400425E56052B2094C54F829
:101EA0002240DBB213F01F0555F04005256030BC21
:101EB000704700003C80044018800440308004409B
:101EC00004650000C80BFF1F2DE9F84F04000D004A
:101ED00016001F0064B2002C0DD064B2012C02D099
:101EE00064B2022C02D16DB2022D04DB2E21DFF888
:101EF000B00401F028FADFF8AC0400684FF47A71FE
:101F000048434010B04204D22F21DFF8940401F07E
:101F10001AFA64B2002C03D0022C66D049D380E0B8
:101F2000DFF88404006850F08070DFF87C140860EB
:101F30006DB2002D0BD0022D15D00ED3042D1ED066
:101F400017D3062D27D020D3072D2AD02FE04FF40A
:101F50008061412000F02EFA2AE04FF44071042005
:101F600000F028FA24E04FF44071052000F022FA36
:101F70001EE04FF44071062000F01CFA18E04FF408
:101F80004071072000F016FA12E04FF480616520DE
:101F900000F010FA0CE04FF48061662000F00AFABD
:101FA00006E04FF48061672000F004FA00E0D5E01D
:101FB00037E0DFF8F403006850F00070DFF8E81352
:101FC00008606DB2002D02D0012D06D00BE04FF459
:101FD00040710C2000F0EEF906E04FF440710D2046
:101FE00000F0E8F900E0B9E01BE0DFF8C0030068AA
:101FF00050F08070DFF8B41308606DB2002D02D08D
:10200000012D06D00BE04FF440710A2000F0D2F908
:1020100006E04FF440710B2000F0CCF900E09DE0A9
:10202000FFE7DFF8800300684FF47A7148434010FF
:1020300080465FEA1840B0FBF6F0814600208246F9
:102040001FFA89F959FA0AF0012802DB1AF1010A8C
:10205000F6E75FFA8AFABAF1080F05DB4FF48671EA
:10206000DFF83C0301F06FF938FA0AF0B0FBF6F044
:10207000814664B2002C03D0022C17D00BD320E091
:102080001FFA89F919F1010000FB07F06421B0FB88
:10209000F1F0834615E01FFA89F919F1010000FB00
:1020A00007F06421B0FBF1F083460AE01FFA89F9DA
:1020B00019F1010000FB07F06421B0FBF1F0834649
:1020C000FFE76DB264B2DFF8E80250F8240010EBCD
:1020D000C5006DB264B2DFF8D81251F8241011EBCC
:1020E000C501C96831F00401C1606DB264B2DFF8A6
:1020F000C00250F8240010EBC5002821C16064B272
:10210000DFF8AC0250F824005FFA8AFA1AF00701EF
:1021100051F02801016064B2DFF8940250F8240005
:102120001FFA89F9C0F8089064B2DFF8840250F809
:1021300024000021C1646DB264B2DFF8740250F86B
:10214000240010EBC5001FFA8BFBC0F810B064B27E
:10215000DFF85C0250F8240000214160BDE8F18FF7
:102160002DE9F04104000D0016005FF0000864B294
:10217000002C0ED064B2012C02D064B2022C02D129
:102180006DB2022D05DB40F24711DFF8140201F0B9
:10219000DAF864B2002C03D0022C13D009D31AE071
:1021A000652E05D34FF4A671DFF8F40101F0CBF8EA
:1021B00011E0652E05D34FF4A871DFF8E40101F0BA
:1021C000C2F808E0652E05D34FF4AA71DFF8D001FC
:1021D00001F0B9F8FFE764B2DFF8D40150F8240049
:1021E00080688046B8F1000FF5D064B2002C03D0AF
:1021F000022C13D009D31AE018F1010000FB06F0FD
:102200006421B0FBF1F0070011E018F1010000FBC0
:1022100006F06421B0FBF1F0070008E018F10100BE
:1022200000FB06F06421B0FBF1F00700FFE76DB2A0
:1022300064B2DFF87C0150F8240010EBC5000761A0
:10224000BDE8F08110B5040064B2012C07D064B27F
:10225000022C04D04FF43571514801F074F864B287
:102260002000012802D0022811D021E04E48006849
:1022700050F000704C4908604FF4E0610C2000F011
:1022800099F84FF4E0610D2000F094F815E047480C
:10229000006850F08070454908604FF4C0610A2022
:1022A00000F088F84FF4C0610B2000F083F804E0E0
:1022B0004FF447713A4801F046F864B23C4850F890
:1022C0002400406D50F0040064B2394951F82410E4
:1022D000486564B2364850F82400D0F8800050F0C9
:1022E000080064B2324951F82410C1F8800064B289
:1022F0002F4850F824000021C16464B22C4850F8E3
:1023000024004FF6FF71816064B2294850F8240020
:10231000D0F8800050F0010064B2254951F8241033
:10232000C1F8800064B2224850F82400406D50F09B
:10233000010064B21E4951F82410486564B21C487B
:1023400050F824000021416010BD38B5040064B28B
:10235000012C07D064B2022C04D040F2393110486D
:1023600000F0F1FF64B2124850F824004068050004
:10237000280000B232BD10B5040064B2012C07D0B1
:1023800064B2022C04D040F24731054800F0DBFF74
:1023900064B2074850F824000021416010BD0000DD
:1023A000B86500008037FF1F3C8004403080044047
:1023B000D00BFF1F10B4294A12684FF40073C0B24B
:1023C0004409A3401A43254B1A60C0B24211244B62
:1023D00053F82220012310F01F04A340C2F8A030BC
:1023E000C0B210F01F02C0B243111D4C54F823308C
:1023F00043F8221010BC704710B4184A12684FF40A
:102400000073C0B24409A3401A43144B1A60C0B20F
:102410004211134B53F82220012310F01F04A34054
:10242000C2F8A03031F4E061C0B210F01F02C0B2B7
:1024300043110B4C54F8233053F8222012F4E0627D
:102440001143C0B210F01F02C0B24311044C54F843
:10245000233043F8221010BC70470000388004403D
:10246000380CFF1F002840F10980F446404200F07C
:1024700005F850F000406047002800BF0AD0B0FACD
:1024800080F18840D1F19D01C905020672F1004238
:1024900041EB1020704750F8041B61B150F8042B39
:1024A000D30744BFA9F101039A18002342F8043B63
:1024B000091FFAD1EFE7704790EA010F44BF81F09E
:1024C000004100F087B900BF431A4FF000423EBF01
:1024D0005340C01AC91800BFD3095FEAD05C13EBA0
:1024E000400F34BFB3EB410F40E07CEBD1530CD332
:1024F00042EA012122D8D1EB402009D3400A28BF6B
:102500005FEA500140EBCC507047401A15D04002B2
:10251000B0FA80F2521C9040400A4FEA3C23B3EBE1
:10252000026384BF00EB730007E040F400001A165A
:10253000DB07C2F10102D04018437047182BFCDCC6
:1025400031FA03F202FA03F3591A38BF42F00102DA
:10255000D2EB40203CBF4000ACF1010C5FEACC5C08
:10256000C20572F100414CEB5020704713EB400F55
:102570000FD24B0009D0ACEBD153022B03DB490245
:10258000172BDDDD70479143401A4300D5D1002061
:10259000704713EB410FD0D36FF000007047FF007E
:1025A000FF2212EAD05C1DBF12EAD1539445934238
:1025B0002BE09C44D30780EA01021A4043EA002042
:1025C00043EA0121A1FB0030410038BF40007CF10B
:1025D0007F010BDBFE294ADA5B0842EAC15153EA6C
:1025E000006373F1004C51EB10207047D1F1080CDF
:1025F000DCF120012FDB5B0810FA01F10B4373F1D2
:10260000004120FA0CF05041704794451CBF02EA8B
:10261000D153934280EA010202F000421DD04000F3
:1026200019D0490017D05BB9634514D00902B1FA3B
:1026300081F39940BCEB030CC00140F00040C1E7BE
:102640000002B0FA80FC10FA0CF0B3EB0C0CC901DC
:1026500041F00041B6E71000704740000AD0490041
:1026600008D010F1807F94BF11F1807F02E042F02A
:10267000FF407047D04370475FF0FF0C1CEAD05119
:1026800014BF614506E0C110400721F0E04101F1AF
:102690006051704779B900F0004100020AD0B0FAE9
:1026A00080FC00FA0CF001F16051A1EB0C5101EB40
:1026B000D0214005704741020CBF40F4E0016FF0AB
:1026C000000100207047000010B5FF2313EAD0542A
:1026D0001DBF13EAD1529C429A4239E0A41ADA078C
:1026E00080EA0103134042EA012142EA0020421A33
:1026F0003CBF641E01EB4202090AB2FBF1FE01FB82
:102700001E221202B2FBF1F001FB10226EF30F2029
:102710001202B2FBF1FE4EEA00207F3406DDFE2CF1
:1027200024DA53EA500050EBC45010BDD4F1020437
:1027300001FB1E2240F08071192C1DDC21FA04F0EF
:10274000C4F12004A140114371F10042584110BD71
:102750009C421ABF03EAD1529A420FE080EA010E6E
:102760000EF00043400004D0490016D143F0FF4072
:1027700010BD490008BFD343180010BD9C4205D1CD
:10278000D21AF7D001F00041484010BD4A0212BFF2
:102790000846484000F0004010BD4AB90902B1FAAD
:1027A00081F2914044B1A418C00140F000409EE77E
:1027B000C90141F0004152420002B0FA80F4A04049
:1027C000141B94E790EA010F44BF81F00041FFF72A
:1027D0007BBE00BF421A3CBF801A89184FF0004CE4
:1027E000C0F3C752FF2A24D0C1F3C75313B3D21A80
:1027F000D2F1190327DD4CEA01214CFA03F321EA57
:102800000303D140C20D4CEA0020401834BF20EA37
:102810000C004CEA5000D20553EA006373EB0C0C39
:1028200052EB1020420012F1807F38BF7047C00D7C
:10283000C0057047490212BF9A4200EB5120F8E7E9
:10284000D2F11703D9D57047B0B581EA030C0CF06B
:10285000004C40F2FF7515EA11541DBF15EA1357DD
:10286000AC42AF4239E0E41923EA455343F4801304
:10287000C90241F0004141EA505EC7021100A7FBC6
:10288000020200284FF00000EEFB01204FF0000193
:10289000E3FB072118BF42F0010240180021494123
:1028A000E3FB0E01A4F580640F0302D25200404105
:1028B000494154F101046CDD470872F1004250F1C6
:1028C000000051EB0451A1F580115CBF41EA0C01FD
:1028D000B0BD4CEA05510020B0BD05EA1357AC422B
:1028E00014BFAF4241E050EA410E1CBF52EA430E12
:1028F00002E061460020B0BD24423C441BD15FEAA7
:10290000070EF6D0090302BF01460020AEF1140EF7
:10291000B1FA81F7AEEB070401FA07FE0C37C7F1F5
:10292000200100FA07F7C8404EEA000E23EA45539B
:1029300043F48013A2E733F00043B3FA83F704BFF4
:10294000B2FA82FE77440B3FE41BB7F1200E2FBF93
:1029500002FA0EF3BB40C7F1200E22FA0EFE38BF7A
:1029600043EA0E03BA40641C82E750EA410E14BFEA
:1029700052EA430E6FF000014FF4001717EB430FBC
:102980008ABF194617EB410FB5E74CEA0551002005
:10299000B0BDD4F10104B4F120070FDAC4F120076F
:1029A000520828BF42F0010210FA07F501FA07F7B2
:1029B000E1BF2A43E0403843E1400FE0352C98DC8A
:1029C000C7F1200452EA400220FA07F218BF42F091
:1029D000010231FA07F0A1400A43002172F10042DE
:1029E00050F1000051EB0C01B0BD000070B44FF08D
:1029F000004591EA030C44BF6B4000F02DBD00BFC1
:102A0000841A71EB030603D2001BB1411219734102
:102A10004FF4001C1CEB410F34BF7CEB430443E03C
:102A20000C0DA4EB1356352E50DC45EAC323DB0A0C
:102A300045EAC121C912B6F120050DDD63FA05F69C
:102A4000EB4086EA0305124218BF45F00105C018A5
:102A500051F100010CD213E062FA06F5F240554044
:102A6000F3415A40B340F3405A408018594107D3CC
:102A700049085FEA30005FEA350528BF45F00105E7
:102A800001F58011420875F1004250F1000041EB60
:102A9000045170BC4FF4001C1CEB410F38BF704751
:102AA0000020090D090570471CEB410F10D252EAB6
:102AB00043060BD0BCEB410F05D80C0DAB43661E93
:102AC000342EB5DD02E0AB438018594170BC70472D
:102AD00070BC70474FEAF17CBCF1E04C2CBFBCF5F8
:102AE000001F11E05FEA4C0C34BFBCF17F5F2EE0A9
:102AF0005FEA9C0C4FEA0C1C4FEA3C0CC10071F1E0
:102B000000414CEB50707047C90241EA5051C0027D
:102B100018BF41F0010141F000414FEA6C50C0F193
:102B20000900212810D240EACC7CCCF1200C11FA0B
:102B30000CF070F10040CCF1200C21FA0CF00CF0FC
:102B4000004C40EB0C0070474FEACC7070474900D6
:102B500011F5001F04D84FEACC10FF30C0057047B4
:102B6000C81770474FF0807C1CEB400F94BF1CEBE4
:102B7000410F05E040EA010C5FEA4C0C01D28142B2
:102B8000704718BF884270474FF0807C1CEB400FA5
:102B900094BF1CEB410F05E040EA010C5FEA4C0CCE
:102BA00001D28842704718BF814270474100090E28
:102BB0007F3915D4D1F11F0114D4400007D2C001D0
:102BC00040F00040C84048BF6FF000407047C0016F
:102BD00040F00040C8404CBF4FF0004040427047BA
:102BE0000020704700424FF0004058BFC04370477C
:102BF00080B5002201214B20FEF73CFF002201217D
:102C00004920FEF737FF002201214820FEF732FF5E
:102C1000002201214720FEF72DFF0022012146203E
:102C2000FEF728FF012201214520FEF723FF0021A6
:102C30004B20FEF776FFC82000F0C4FC01214B209A
:102C4000FEF76FFF00214920FEF76BFFC82000F060
:102C5000B9FC01214920FEF764FFC82000F0B2FC56
:102C60000021212000F01BF80021C82000F017F8F7
:102C70000021062000F013F80021132000F00FF8C7
:102C80000021202000F00BF800F03CF800210C207F
:102C900000F005F800214920FEF743FF01BD70B5A3
:102CA00004000D0000214920FEF73BFFEDB2002D8E
:102CB00004D100214820FEF734FF03E00121482021
:102CC000FEF72FFF00200600F6B2082E15DA2006C8
:102CD00004D501214720FEF724FF03E0002147200F
:102CE000FEF71FFF00214620FEF71BFF64000121B5
:102CF0004620FEF716FF761CE6E701214920FEF785
:102D000010FF70BD10B500210C20FFF7C8FF002197
:102D10008020FFF7C4FF00200400A4B2B4F5FC7FBC
:102D200005DA01210020FFF7BAFF641CF5E710BDAA
:102D300038B504000D00002155F04000C0B2FFF787
:102D4000AEFF002154F08000C0B2FFF7A8FF31BDF4
:102D500038B50400203C00200500EDB2062D0CDA49
:102D60000121EDB2E4B20620134A00FB0420285CE6
:102D7000C0B2FFF794FF6D1CEFE731BDF8B504005A
:102D80000D0016002900C9B22000C0B2FFF7D0FF25
:102D9000203E00200700FFB2062F0CDA0121FFB20F
:102DA000F6B20620044A00FB0620385CC0B2FFF7EA
:102DB00076FF7F1CEFE7F1BD2C5F000070B50400CB
:102DC0000D0016002900C9B22000C0B2FFF7B0FF05
:102DD00096F90000002805D03078C0B2FFF7B8FFA0
:102DE000761CF5E770BD2DE9F84F04000D00934601
:102DF00042F21070BBFBF0F03030060042F210706F
:102E0000BBFBF0F100FB11B04FF47A71B0FBF1F0B5
:102E1000303007004FF47A70BBFBF0F100FB11B0CB
:102E20006421B0FBF1F0303080466420BBFBF0F150
:102E300000FB11B00A21B0FBF1F0303081460A20CE
:102E4000BBFBF0F100FB11B0303082462900C9B263
:102E50002000C0B2FFF76CFF3200D2B22900C9B225
:102E60002000C0B2FFF78AFF3A00D2B22900C9B2EF
:102E7000A01DC0B2FFF782FF4246D2B22900C9B2FC
:102E800014F10C00C0B2FFF779FF4A46D2B2290014
:102E9000C9B214F11200C0B2FFF770FF5246D2B2AD
:102EA0002900C9B214F11800C0B2FFF767FFBDE8EE
:102EB000F18F000010B440B24109784A012310F0AC
:102EC0001F04A34042F8213010BC704710B440B238
:102ED0004109734A012310F01F04A34042F8213036
:102EE00010BC704710B504006E48046000F07DF817
:102EF0000028FBD000F002F8002010BDE0B5012052
:102F000002904FF416700190002000901B2365483A
:102F100002686549002000F079FB644800684008B9
:102F20004000624908605720FFF7D0FF6048006802
:102F300050F001005E4908600020FFF7BBFF5D49CB
:102F40001B20FFF737FA5C491D20FFF733FA07BD56
:102F500080B55A4890F90000042814D1574803213D
:102F600001705720FFF7B2FF55485FF00061016024
:102F70004E48006850F001004C49086051484949EA
:102F80000968016005E05720FFF7A0FF4B480221C8
:102F9000017001BD4948012101704548006850F0A9
:102FA000010043490860704780B54448042101701E
:102FB00043485FF0FF3101605720FFF77BFF3F4838
:102FC00090F9000001280FD03C4890F90000022839
:102FD000F5D13A480421017039485FF0FF310160B2
:102FE0005720FFF767FFEAE701BD10B582B0002464
:102FF00000208DF8000000F042FC8021122000F03B
:1030000051FD002804D1304800F0DEFD002043E0EF
:10301000322000F0C1F80B22012100A800F07AFD57
:10302000002804D1294800F0CFFD002034E09DF8AD
:103030000010274800F0C8FD26480178264800F017
:10304000C3FD9DF80000212825D10020040021485F
:103050000078A4B280B2844218D2A4B21F4810EB08
:1030600044004178A4B21D4810F8140080B200F06A
:1030700019FD002808D1A4B2184810F814101848F7
:1030800000F0A2FD002007E0641CE0E7154800F016
:103090009BFD012000E0002016BD000000E100E0E3
:1030A00080E100E05C0EFF1F50F00F400C800040FC
:1030B000248000400301020013010900240BFF1FBC
:1030C000A090044010900040006800006868000074
:1030D0002C6700008C0BFF1FA4670000280BFF1F4C
:1030E000186800005067000010B504004FF400702D
:1030F00094FBF0F101FB1041002903D01E210B4885
:1031000000F021F90A48046010BD38B504000D0034
:10311000074800680749884203D03021034800F07F
:1031200012F964B2034840F8245031BDA86600008B
:1031300008ED00E00000FF1F30B4134C246854F089
:103140008074114D2C60114C246854F001040F4D13
:103150002C600F4C246821000E4C24684FF47A75C3
:1031600094FBF5F404FB00F423005C1822008A426F
:1031700003D2074C2468A242FBD3054C2468944236
:10318000FBD330BC70470000FCED00E0001000E015
:10319000041000E07837FF1F10B504002000441E23
:1031A000002804D04FF47A70FFF7C6FFF6E710BD91
:1031B00038B504000D00002D03D12421174800F07C
:1031C000C2F81748006850F4000015490860154817
:1031D0000021016064B2200113496A1E425064B2AA
:1031E000114810EB0410C06850F0010064B20E49A1
:1031F00011EB0411C86064B20B4810EB0410806836
:103200004008400064B2084911EB0411886064B2C0
:10321000054810EB04100321816031BD30660000C9
:103220003C800440007003400071034010B504006E
:1032300064B2082C0DDA0022002164B22148205C1F
:10324000FEF718FC032164B21E48205CFFF7D4F897
:1032500014E0082004002000441E40B200280DD0D5
:103260000022002164B21748205CFEF703FC032112
:1032700064B21448205CFFF7BFF8ECE710BD10B54E
:10328000040064B20F48205CFEF7A0FC002801D1C6
:10329000002000E0012010BD10B50400200040B265
:1032A000FFF7EDFF00280AD10A20FFF775FF200085
:1032B00040B2FFF7E4FF002801D1002000E0012028
:1032C00010BD00001004FF1F40000DD2010E7F3919
:1032D0000AD4D1F11F0104D4C00140F00040C8401D
:1032E00070477FF000007047002070474FF4001CCB
:1032F0001CEB410F94BF1CEB430F09E041EA030CA8
:1033000050EA4C0C52EA0C0C03D28B4208BF8242AA
:10331000704714BF9942904270470000DFF800F0F8
:10332000CD0CFF1FDFF800F0F50CFF1FBFF34F8F30
:103330003C48006810F4E0603B49084339490860A4
:10334000BFF34F8FFEE738B504000D002A002100BF
:10335000364800F039FCFEE738B504000D002100C6
:1033600049B2042000F04BFD200032BD10B500240E
:103370000420FFF75BFF0420FFF78EFF002841D1F8
:10338000002000F055FD0420FFF786FF012801D141
:1033900001200400002000F068FD254800F014FC26
:1033A0004FF4FA70FFF7F8FEE4B2012CEBD10420E1
:1033B000FFF772FF0028E6D10420FFF76DFF002819
:1033C00006D1002000F051FD6420FFF7E5FEF3E791
:1033D0000420FFF761FF012806D1002000F045FD21
:1033E0003220FFF7D9FEF3E7124800F0EDFBFFF7BC
:1033F00095FF6420FFF7D0FE0020FFF793FFFFF753
:1034000095FFC0E710BD10B50B480478E4B20F205B
:103410000A4900FB0412E4B22100094800F0D4FB81
:1034200010BD00000CED00E00400FA050867000084
:10343000546800008467000004ED00E01C04FF1FD6
:10344000C864000070B44FF0004591EA030F44BF18
:103450006B40FFF7D5BA00BF841A71EB030604D2A4
:103460006E40001BB141121973414FF4001C1CEB5C
:10347000410F34BF7CEB430684E00C0DA4EB1356E4
:10348000362E7DDC012E43DC45EAC32343EA52534A
:1034900012BFD20292025B08240545EAC12141EA2B
:1034A0005051D2EBC020994125D407D1B0FA80F613
:1034B00010FA06F164D00020203608E0B1FA81F657
:1034C000B140C6F1200220FA02F21143B0404FEAA7
:1034D000F474B4EB465434F001064FEA74040AD88D
:1034E000D6F50016760D04F00044F04061FA06F2BD
:1034F0005040F1404840C00A40EA415021F00041AC
:1035000028BF5FEA500550F1000044EBD12137E0BD
:1035100045EAC323DB0A45EAC121C90AB6F1200501
:103520000EDD42EA0242120CC5F1200603FA06F64D
:10353000EB4042EA06056D42984161F100010DE061
:1035400062FA06F5F240554063FA06FC82EA0C0284
:10355000F3405A406D42904161EB030111F4801F2A
:1035600005D1641E620502D06D004041494121F43D
:103570008011430875F1004350F1000041EB045104
:1035800070BC70471CEB410F15D223F0004352EA88
:1035900043060BD04FEA4C0CBCEB410F04D80C0D8A
:1035A000661E342EB7DDEBE7801A994150EA4106DA
:1035B00008BF0021E4E708BF1CEB430F28BF6FF0F2
:1035C0000001DDE710B50400002C15D0B4F1807FB8
:1035D00003D329210948FFF7B6FE094800210160FD
:1035E0000848046008480021016005480521016081
:1035F00003480068C003FBD510BD000088640000CC
:1036000010E000E014E000E018E000E02DE9F44FE5
:1036100082B004000D001E009DF93070DDF834808A
:103620007FB2002F02D15FF0010A0DE07FB2012FBF
:1036300002D15FF0020A07E07FB2022F02D15FF0F1
:10364000040A01E05FF0100A7FB2002F05D178482C
:10365000854202D37748A8421DD27FB2012F09D1FB
:103660007348854206D37448A84203D315F003007B
:10367000032810D17FB2022F09D16D48854206D3AD
:103680006E48A84203D315F00300002803D041215F
:103690006B48FFF758FEB8F5004F03D34321684845
:1036A000FFF751FE6748006850F002006549086066
:1036B0006548006850F002006349086064B2600128
:1036C0006249455064B2600100F1804010F510403D
:1036D0000299016164B2600100F1804010F5104070
:1036E0000021818064B2600100F1804010F510403B
:1036F0005FFA8AFAA0F814A07FB2380210F4E060F2
:103700007FB217F00701084364B2610101F1804103
:1037100011F51041C88064B2600100F1804010F5DD
:10372000104041464904490CC18264B2600100F175
:10373000804010F5104041464904490CC18344487B
:10374000006830F080004249086064B2600100F116
:10375000804010F510405FFA8AFAC0F808A064B201
:10376000600100F1804010F510400021C1600E980A
:10377000C00702D4D8F1000000E0002064B261016B
:1037800001F1804111F51041886164B2600100F1DE
:10379000804010F510404CF20A018183F6B27009A6
:1037A000313050F0800064B22A4960542A49300018
:1037B000C0B2FEF7FFFDA80910F00700C0B240013B
:1037C00083462800103810F03F00C0B2C0008DF8CA
:1037D00000009DF8000010EB0B0B5FFA8AFA1BEB60
:1037E000CA00401E81465FFA89F95FFA8BFBD94512
:1037F0000ED3002200215846C0B2FEF73BF94FF429
:1038000081715846C0B2FEF7D5FD1BF1010BEAE706
:10381000124800680121A1408843104908601048FF
:1038200000680121A14008430D490860BDE8F78FF9
:1038300010F00F4013F10F4012F10F4010F10F4044
:1038400040650000408004403C80044000900040FF
:103850000080004000100240000101000C80004088
:103860002480004001B4BDF80000002805D0BDF858
:103870000000401EADF80000F5E701B0704780B5CC
:10388000012201211A20FEF7F5F801220121192059
:10389000FEF7F0F823211A20FEF7AEFD23211920B0
:1038A000FEF7AAFD01BD80B57A48012101607A4882
:1038B000012101604FF4C870FFF7D4FF7748002161
:1038C000016077480068002804D174480121016034
:1038D000002016E07148012101606E48002101605E
:1038E0004FF4C870FFF7BEFF6B48002101606C48C1
:1038F0000068002804D0694801210160002000E030
:10390000012002BD80B564480021016061480021AA
:1039100001604FF4C870FFF7A5FF5F480121016007
:103920004FF4C870FFF79EFF5A48012101604FF421
:10393000C870FFF797FF01BD80B5574800210160AF
:103940004FF4C870FFF78EFF5248002101604FF41A
:10395000C870FFF787FF5048012101604FF4C8701D
:10396000FFF780FF4C48002101604FF4C870FFF75B
:1039700079FF01BD80B54848002101604FF4C8704F
:10398000FFF770FF4348012101604FF4C870FFF753
:1039900069FF4148012101604FF4C870FFF762FFE1
:1039A0003D48002101604FF4C870FFF75BFF01BD87
:1039B00080B53948002101603848002101604FF48A
:1039C000C870FFF74FFF3448012101604FF4C87001
:1039D000FFF748FF32480068002807D02F48012130
:1039E00001602D4800210160002006E02B480121E4
:1039F0000160294800210160012002BD38B50500A1
:103A000008242000441EC0B2002818D0280603D580
:103A100020480121016002E01E48002101606D0084
:103A20004FF4C870FFF71EFF1B48012101604FF4DF
:103A3000C870FFF717FF184800210160E1E731BDAA
:103A400038B5082400251548002101602000441ED7
:103A5000C0B2002815D06D000F48002101604FF45E
:103A6000C870FFF7FFFE0C48012101604FF4C870D9
:103A7000FFF7F8FE0A4800680028E7D055F0010576
:103A8000E4E7064801210160034800210160EDB22E
:103A9000280032BD6400FE436800FE43E402FE439A
:103AA0006402FE4370B504000D0000262900C9B26F
:103AB000200080B200F00AF8002805D1761CF6B28A
:103AC000142EF3D1002000E0012070BD38B50400B1
:103AD0000D00FFF7E8FE002801D1002019E0422088
:103AE000FFF78CFFFFF764FF002803D1FFF70AFF01
:103AF00000200EE02000C0B2FFF780FFFFF758FF64
:103B00002800C0B2FFF77AFFFFF752FFFFF7FAFE77
:103B1000012032BDF8B504000D0016000027320068
:103B2000D2B2290089B2200000F00AF8002805D19D
:103B30007F1CFFB21E2FF2D1002000E00120F2BD59
:103B400070B504000D001600FFF7ADFE002801D18E
:103B5000002037E04220FFF751FFFFF729FF002840
:103B600003D1FFF7CFFE00202CE03000C0B2FFF7FA
:103B700045FFFFF71DFFFFF7C5FEFFF794FE002886
:103B800001D100201EE04320FFF738FFFFF710FFB0
:103B9000002803D1FFF7B6FE002013E0ADB2002DE0
:103BA0000DD0FFF74DFF2070ADB2012D02D1FFF710
:103BB000E1FE01E0FFF7C0FE641C6D1EEEE7FFF7BB
:103BC000A1FE012070BD00000EB400B582B003A9B3
:103BD0000091024600AB0121034878440A3000F00E
:103BE0004FF906BC5DF810FB492C00002DE9F843A5
:103BF00004000D0064B2002C08D0022C2CD018D385
:103C0000042C4FD03BD3052C5FD071E0DFF80802C5
:103C1000006850F48060DFF8001208604FF44071D3
:103C20006620FEF7C7FB4FF440716720FEF7C2FB2A
:103C30005EE0DFF8E401006850F40060DFF8D811BE
:103C400008604FF440714320FEF7B4FB4FF440711D
:103C50004420FEF7AFFB4BE0DFF8BC01006850F4F6
:103C60008050DFF8B41108604FF440716320FEF714
:103C7000A1FB4FF440716220FEF79CFB38E0DFF8B7
:103C80009801006850F40050DFF88C1108604FF480
:103C900040715020FEF78EFB4FF440715120FEF72B
:103CA00089FB25E0DFF87401006850F48060DFF8DC
:103CB0006C1108604FF440719920FEF77BFB4FF4C4
:103CC00040719820FEF776FB12E0DFF850010068A3
:103CD00050F40060DFF8441108604FF4407189200F
:103CE000FEF768FB4FF440718820FEF763FBFFE7A7
:103CF00064B2DFF82C0150F82400C07810F0F30013
:103D000064B2DFF81C1151F82410C87064B2444842
:103D100050F8240064B2424951F824108978817027
:103D200064B2002C02D064B2012C06D13D48006878
:103D30004FF47A714843814605E03B4800684FF4F0
:103D40007A71484381462801B9FBF0F00600B6B20B
:103D5000B6F5005F02DB41F6FF700600B9FBF5F037
:103D6000B6B2B0EB06100700BFB2202F04DB40F262
:103D700003112E48FFF7E7FA64B2294850F82400EF
:103D8000007810F0E0008046B6B2300A10F01F0054
:103D900050EA080064B2224951F82410087064B255
:103DA0001F4850F82400467064B21D4850F82400A3
:103DB000807A10F0E000804664B2194850F8240080
:103DC00017F01F0151EA0801817264B2144850F8DB
:103DD0002400007C50F0880064B2114951F824108E
:103DE000087464B20E4850F82400C07850F00C00FB
:103DF00064B20B4951F82410C870BDE8F18340B299
:103E0000074A52F8202012791206F8D540B2044A27
:103E100052F82020D171704734800440288004403B
:103E20004C0CFF1F7837FF1F8037FF1F6C660000A8
:103E300010B5040064B2042C07DA0122012164B237
:103E40000E48205CFDF716FE0EE004200400200062
:103E5000441E40B2002807D00122012164B2074865
:103E6000205CFDF707FEF2E710BD10B5040064B258
:103E70000248205CFDF78EFE10BD00001804FF1FF5
:103E80002DE9F04FA1B0824602AE002017461D4634
:103E9000029170620DF144080AE017F8011B0298C4
:103EA000D0470290002800F0DA82706A401C7062ED
:103EB000387808B9706AD4E22528EED10020F06085
:103EC00030617061B061F061306201E040F001008A
:103ED00017F8011F2029F9D023290DD02B2904D050
:103EE0002D2906D030290AD00CE040F0020080B223
:103EF000EEE740F00400FAE740F00800F7E740F092
:103F00001000F4E72A290DD129680A1D2A600968E2
:103F1000F162002904D5494240F00400F16280B208
:103F20007F1C13E00021F1620BE0F16A6FF00043A7
:103F3000994205D001EB810302EB43013039F16274
:103F40007F1C3A78A2F130010A29EED339782E2964
:103F500003D04FF0FF31B1621EE017F8011F2A298C
:103F600006D129680A1D2A607F1C0968B16213E026
:103F70000021B1620BE0B16A6FF00043994205D0B5
:103F800001EB810302EB43013039B1627F1C3A78C7
:103F9000A2F130010A29EED330860FF64840397875
:103FA00000F02EFE08B117F8010B8DF83A009DF8CD
:103FB0003A00682802BF39786829622005D06C2849
:103FC00004BF38786C2803D171208DF83A007F1C2B
:103FD00011A8B0603978B1F1250029D01C3800F063
:103FE000C080001F022840F2BC80133800F0E4803B
:103FF000093800F0B680801E00F07781401E00F086
:104000002081401E022840F2AC80001F00F0198180
:10401000401F7BD0401E00F0CF80401E22D0C01E2B
:104020000BD0801E00F0C880C01E00F0C58064E187
:10403000F068411CF160252169E12868011D2960B3
:104040000068B26A7060002A02D500F0E5FD07E062
:10405000002100F0FDFD00281ABF7168401AB06A07
:10406000306156E12868011D296000210068CDE912
:1040700000014FF03C0E11A87060DDE9000111B99C
:1040800008B9B26ACAB10206120FA0EB02123032AE
:10409000AEF10103D2B29E463A2AA8BF27320009E8
:1040A00003F8082040EA0170090908BF002804D07D
:1040B000726811AB73449A42E5D311A971447160DF
:1040C000CEF13C00B16A3061884207DA081AB0616B
:1040D0004FF6EF71308E084030861AE1002940F12A
:1040E000188196F8301001F01401102940F0118168
:1040F000F16AF268891AB269891AA1EB000EBEF161
:10410000010FC0F20681C6F818E002E19DF83A00FE
:10411000622818D0682806D06A280BD06C2819D0DD
:10412000712807D016E02868011D29600068716AAF
:104130000180EEE02A68101D28601268706AC117BD
:10414000C2E90001E5E02868011D29600068716A84
:104150000170DEE02868011D29600068716A016055
:10416000D7E02868C01D20F00700286000F1080291
:104170002A60D0E90023CDE90023002B04D5F068A4
:10418000421CF2602D220DE0308E820704D5F068CB
:10419000421CF2602B2205E0C00705D5F068421CE6
:1041A000F260202200F80820F06811AA80187060E0
:1041B00000A800F0E3F9ACE09DF83A006C2808BFD5
:1041C0002A6811D0712808BF2A6802D02A686A2894
:1041D0000AD1D21D22F007022A60144604F1080217
:1041E0002A60D4E9002303E0131D2B60002312682A
:1041F000CDE90023682808BF92B207D0622808BF23
:10420000D2B203D0742818BF7A2802D10023CDE996
:10421000002396F8300000075FD5DDE90023002B6E
:1042200008BF002A59D041F02000782855D1F06805
:10423000302200F80820401C421CF26000F80810F0
:104240004BE09DF83A0062280CD0682810D06A280C
:104250001AD06C2823D0712816D074281FD07A2841
:104260000CD01CE02868021D2A6090F900201AE09A
:104270002868021D2A60B0F9002014E02868021D99
:104280002A60002302680FE02868C01D20F00700A4
:10429000286000F108022A60D0E9002304E02868C1
:1042A000021D2A600268D317CDE90023002B04DA2F
:1042B000F068421CF2602D220DE0308E820704D59A
:1042C000F068421CF2602B2205E0C00705D5F068BB
:1042D000421CF260202200F80820F06811AA801821
:1042E000706000A800F0C0F813E0F068411CF160B5
:1042F00029680A1D2A60096809E0F068421CF2601A
:10430000252200F8082021B1F068421CF26000F874
:104310000810F06AF168401AB169401A3169401A10
:10432000F169401A7169401A316AA0EB010996F8E7
:1043300030007F1C400710D420208DF8400000245E
:1043400009E0012310AA00A9504600F034FC00281F
:1043500040F08580641C4C45F3DBF4680DF1440BA0
:104360000AE01BF8011B0298D0470290002876D083
:10437000706A401C7062641E002CF2D130208DF8EF
:1043800040004FF0000BB46909E0012310AA00A916
:10439000504600F010FC002861D10BF1010BA34541
:1043A000F3DB3469D6F804B00AE01BF8011B02986D
:1043B000D0470290002852D0706A401C7062641E80
:1043C000002CF2D130208DF840004FF0000BF46942
:1043D00009E0012310AA00A9504600F0ECFB0028D8
:1043E0003DD10BF1010BA345F3DB306971687469B2
:1043F00000EB010B09E01BF8011B0298D04702906B
:1044000068B3706A401C7062641E002CF3D13020C7
:104410008DF840004FF0000B346A08E0012310AA29
:1044200000A9504600F0C7FBC8B90BF1010BA3452A
:10443000F4DB96F8300040077FF53AAD20208DF888
:104440004000002400E0641C4C45BFF631AD012360
:1044500010AA00A9504600F0AEFB0028F3D04FF0A0
:10446000FF3021B0BDE8F08F2DE9FA47064682B053
:1044700035690A466F2A08BF082705D041F0200099
:10448000782814BF0A271027D6E900013C2480466B
:104490008946642A18BF692A05D1002903DAD8F1B0
:1044A000000869EB4909B9F1000F08BFB8F1000F26
:1044B0000CD1306B50B9082F3BD196F8380000076B
:1044C00037D530203B2485F83B0032E0CDE9008928
:1044D000FB17404649463A4600F0E6FBB846A8FBC3
:1044E0000023DDE90089A8EB02023032A4F1010AC1
:1044F000D2B254463A2A03DB9DF80830513B9A1851
:104500000AF8052080465FEA010908BFB8F1000FEC
:1045100003D0F06861198842D8D3082F09D196F8E2
:104520003800000705D5605D302802D0641E3020B9
:104530006055C4F13C00B0616119F160316B884293
:1045400007DA081A30624FF6EF71308F0840308773
:1045500010E000290ED596F8381001F0140110294A
:1045600008D1716B7269891A326A891A081A01288E
:10457000A8BF306204B0BDE8F08700002DE9F24F1B
:1045800004468EB0D4E90001CDE9020104AE9DF8E5
:10459000380040F02000009061280AD0206B0028ED
:1045A00048BF062004D404BF0098672801D1012029
:1045B00020636168C1F30A5040F2FF7290421CD13F
:1045C000080304BF2068002809D10320A0619DF8DA
:1045D000380061381A2836D30FF21C6108E0032036
:1045E000A0619DF8380061381A2829D30FF20061C4
:1045F000E068032200F0D0FBB5E1012816DA20467E
:1046000000F005FC012811DB00270020009961293A
:1046100020D1E168302201F8012B4A1CE2609DF8AC
:104620003820612A0CBF782258220FE0626840F2DD
:10463000FE3161F31E52471A62604FF0FF30E5E72A
:104640000FF2A851D4E70FF2AC51D1E70A706169BB
:10465000891C616110B9002500277BE10098612861
:1046600040F09680206B00284CBF2125451CDDE9D9
:1046700002012DB26E1CD4E900890022002300F053
:10468000E7FB3ABF89F00040CDE90280CDE902891D
:104690003F1F8DF810200DF1110801E000F207080E
:1046A000012E32DBDDE9020100220023FEF71EFEAF
:1046B0002BD21C2102A800F0E3FBDDE9020100F08F
:1046C00065FCF61F8146012E09DB00F08BFC0246DB
:1046D0000B46DDE90201FEF7B5FECDE9020108F265
:1046E0000700072105E009F00F0200F8012D4FEA4D
:1046F0002919B9F1010F01DB491EF4D5491E5CBF30
:10470000002200F8012DF9D5C8E70DF11100A8EB42
:1047100000010DF11106A942B8BF0D462DB22800C7
:104720002FD4884206DA04A9411849780829A8BF7D
:104730000F2100DA002104AA821800E06D1E12F891
:104740000139401E8B42F9D00F2904D104A9411828
:104750004A78521C4A70002802D504AE6D1C3F1DD9
:104760002DB2681E0DD481190A783032D2B23A2A9D
:1047700003DB9DF838303A3B9A1801F80129401EB6
:10478000F2D5206B002840F1E580681E2063E1E04F
:10479000DDE902010022002300F05AFB3CBF81F05A
:1047A0000041CDE902013FB247F2975078434849B2
:1047B000DFF820B190FBF1F73FB2C7F10706924650
:1047C000012E19DBDDE90289F00707D552465B4669
:1047D00040464946FEF738F88046894676105046EE
:1047E000594652465B46FEF72FF882468B46002E0E
:1047F000EAD1CDE9028921E076429046DFF8D890EF
:1048000012E0F00707D552465B4640464946FEF7A0
:104810001BF88046894676105046594652465B46FC
:10482000FEF712F882468B46002EEAD1DDE902013E
:1048300042464B4600F0EEFBCDE9020100986628A7
:104840000CBF07F10A000620216B4518142DA8BFE4
:10485000132530208DF810000DF11106DFF87C9043
:10486000012D3DDBDDE9020100F0A6FB06F10801A8
:1048700004220A23B0FBF3F303EB8306A0EB46000C
:10488000303001F8010D0A20B3FBF0F000EB800698
:10489000A3EB4603303301F8013D521EE9D1083D38
:1048A00001F10806012DDBDBDDE9020100F084FBEC
:1048B00000F0A2FB02460B46DDE90201FEF7C2FD55
:1048C00000224B46FDF7C0FFCDE90201CAE700BF59
:1048D000A0860100000024400000F03F84D79741EB
:1048E0000DF11100301A0DF1110602E0401E7F1E7D
:1048F000761C31783029F9D00099662902D13FB26F
:10490000791C03E065290CBF01210021226B8D1861
:104910002DB2A842B8BF05462DB229001AD4814253
:1049200004DA885D3528A8BF392000DA30208A19DA
:10493000521E00E06D1E12F80139491E8342F9D063
:10494000392802D1885D401C8855002902D5761E81
:104950006D1C7F1C3FB29DF8381000972BB2324679
:10496000204600F003F80FB0BDE8F08F2DE9F047C6
:1049700086B006468A4690461D4600F08CFC406A8A
:10498000376B90F80090012D02DA01250FF26C28A8
:104990004AF02000BDF93840662808BF641C12D0D8
:1049A000672875D114F1040F78DBBC4276DA96F8EB
:1049B0003800641C000702D4BD42B8BF2F4624B2A1
:1049C0003F1B48BF0027F068B16924B2012C21DAEF
:1049D00030234A1C0B54012F03DA96F838100907CC
:1049E00002D502F80090521CB261E742B8BF7C4287
:1049F00024B26142E7197162AF42B8BF3D462DB2A1
:104A0000F5612A46B3694146181800F0C5F9781BCC
:104A1000B062B9E00818A54216DA2A46414600F00D
:104A2000BBF9B1696918B161601B7062012F03DACB
:104A300096F83800000705D5F06801F80090F06995
:104A4000401CF061B7629FE02246414600F0A4F9A5
:104A5000B06920182D1B012F03DA96F838100907CA
:104A600003D5F16800F80190401C2DB2B061AF424F
:104A7000B8BF3D46F3682DB22A4604EB0801C018C2
:104A800000F08AF9B0692818B061781B70627BE089
:104A9000BAF1610F14D14FF0700A16E0BD4204DA8A
:104AA00096F83810090758BF2F467F1E48BF0027C9
:104AB000BAF1670F14BF4FF0450A4FF0650A04E0E2
:104AC000BAF1410F08BF4FF0500AB169F06818F809
:104AD000013B0B544A1C012F05DA96F838100907E0
:104AE00058BFB26115D502F80090531CB361012F75
:104AF0000FDB6D1E2DB2AF42B8BF3D462DB22A4628
:104B00004146181800F048F9B0692818B061781BC0
:104B10007062B069F16800EB0108200008F801AB91
:104B200003D42B2008F8010B03E02D2108F8011B0A
:104B30006442002502AF08E00A2200A800F0C4FB8E
:104B4000019807F8010B6D1C009C21B20129F3DAD2
:104B5000022D06DA4AF02000652804BF302008F84C
:104B6000010B4DB9302008F8010B07E06D1E02A8BB
:104B7000285C303008F8010B012DF7DAB069F168D4
:104B80004018A8EB0000F06196F8380000F014001F
:104B900010280DD17069B1690818716A0818F16997
:104BA0000818B16A0818716B8842BCBF081A3062D5
:104BB00006B0BDE8F087F8B504460D4616461F4618
:104BC000002004E0E86A401CE8627F1E002047B134
:104BD00016F8011BA868A047A8600028F2D14FF082
:104BE000FF30F2BD686A6C747A4C00006E616E0032
:104BF0004E414E00696E6600494E4600300000008E
:104C00000278C9B28A421AB11CBF10F8012FF9E725
:104C100018BF00207047000000F10103810704D095
:104C200010F8011B89B18107FAD10268B2F1013194
:104C3000914311F0803F04BF50F8042FF6E710F8BD
:104C4000011B11B110F8011BFBE7C01A70470000EF
:104C5000C9B2830706D0521E22D310F8013B9942F5
:104C6000F7D11FE0083A13D302F1040241EA01210F
:104C700041EA014150F8043B121F21BF4B40A3F110
:104C8000013C2CEA030C1CF0803FF3D0C9B2001F9A
:104C9000083210F8013B521E28BF91EA030FF8D8E2
:104CA00018BF0120401E70471B4213D1094236D164
:104CB0002AB18446B0FBF2F002FB10C2704700F04C
:104CC0000BBBFCD30022002370470B000200002125
:104CD00000207047904271EB030CF6D370B5B1FA27
:104CE00081F4B3FA83F52C1BA340C4F1200532FAFA
:104CF00005F63343A2405FF00046E64002E05B0861
:104D00005FEA3202841A71EB030524BF204629466C
:104D10007641F4D302000B003000002170BD012A5F
:104D2000CFD970B5140C20D0B1FA81F4B2FA82F563
:104D3000C4F120046419B4F12006D6D3B2405FF068
:104D40000044F440002502E052085FEA3303C61A2B
:104D500071EB020E24BF3046714664416D41F3D3BE
:104D600002000B002000290070BD0C46B1FBF2F1DF
:104D700002FB11452D0445EA1045B5FBF2F402FB98
:104D8000145580B240EA0545B5FBF2F002FB105223
:104D900040EA044070BD000062B38B0708D0521E89
:104DA00011F8013B00F8013B00F024808B07F6D19D
:104DB000830740F0208000BF103A07D330B4B1E839
:104DC0003810103AA0E83810F9D230BC530724BF8D
:104DD000B1E80810A0E8081044BF51F8043B40F8BF
:104DE000043BD20724BF31F8022B20F8022B44BF2A
:104DF0000B7803707047083A07D3B1E80810083AF7
:104E000040F8043B40F804CBF7D25307E4E730B452
:104E1000436803F0004201211B031B0B436004BFE6
:104E20000368002B08D10DE00368DD0F45EA440458
:104E300044605B000360491E4468E302F4D5230329
:104E40001B0B436043681A434260084630BC7047FE
:104E50004FF4001C1CEB410F94BF1CEB430F09E007
:104E600041EA030C50EA4C0C52EA0C0C03D2994272
:104E700008BF9042704714BF8B42824270470000C7
:104E800070B504460D466068C0F30A5040F2FF71E9
:104E9000884207D16068000304BF2068002817D04B
:104EA000022070BD20B92046FFF7B1FF012867DA64
:104EB000012D0FDB40F2FF71091A8D420AD36068A1
:104EC000002847BF00202F4900202F49C4E90001D6
:104ED000012070BD4142A942616806DA6FF31E519C
:104EE000401941EA0050606041E0401E63680122C1
:104EF000451962F31F5305F1350001F0004163606D
:104F0000352803D361600020206070BD002215F1B8
:104F10001F0F04DA22682360002020356060684299
:104F200013D0521E25689241C0F12003D2439D4008
:104F300045EAD27225686668C54006FA03F32B433A
:104F40002360636823FA00F0606060680843606073
:104F5000B2F1004F03D80DD12078C0070AD52068E0
:104F6000401C2060206828B96068401C60604FF0D9
:104F7000FF3070BD6068884204BF20680028F6D109
:104F8000002070BD0000F0FF0000F07FF446400DEF
:104F900040EAC120490006D200F014F8004248BFA0
:104FA0006FF00040604700F00DF84FF0004188427C
:104FB0008CBF084640426047400D40EAC12049008E
:104FC00080F00D8040F00040490DA1F58061491C42
:104FD00005D4D1F11F0154BFC840C01770474FF02E
:104FE00000007047010040F10980F446404200F0A3
:104FF00005F851F000416047010000BF09D0B0FA48
:1050000080F18840C91CC1F58461090501EBD021FC
:1050100040057047F0B540F2FF7581EA030C0CF0D3
:10502000004C15EA11541DBF15EA1357AC42AF42AC
:10503000E5E0BC41C1F31301C3F31303801A9941A6
:1050400043F4801304D2641E400049418018594142
:10505000C90241EA5051B1FBF3F603FB1611A2FB62
:105060000675D7EBC020A94102D2761E801859419F
:10507000C90241EA5051B1FBF3FE03FB1E11A2FB32
:105080000E75D7EBC020A94103D2AEF1010E8018F6
:105090005941890241EA9051760546EA8E2EB1FBCC
:1050A000F3F603FB1611A2FB0675D7EB8020A9418E
:1050B00002D2761E80185941C90241EA50514EEA87
:1050C000060EB1FBF3F603FB1611A2FB0675D7EB38
:1050D000C020A94102D2761E80185941C90241EA76
:1050E0005051B1FBF3F703FB1711A2FB0735D3EBCC
:1050F000C020A94167F100070CBF004247F001073B
:1051000066F3D5274FEA1E31B80814F5806412DD26
:10511000BD0775F1004250EB0E5051EB045111F5F3
:10512000801F5CBF41EA0C01F0BD4CF07F6141F093
:10513000E0410020F0BDBD076D0840EA0E5041F48B
:105140008011D4F10104B4F120060ADAC4F120067A
:105150000200E04001FA06F3E1401843B240154373
:105160000EE0342C13DCC6F1200445EA40056D083E
:1051700020FA06F2154321FA06F0A1400D43002162
:1051800075F1004250F1000051EB0C01F0BD002020
:105190005FEA0C01F0BDCFB992185B41B3FA83F717
:1051A00004BFB2FA82F6BF190B3FB7F120062FBF3A
:1051B00002FA06F3BB40C7F1200622FA06F638BF12
:1051C0003343BA401CB1E419641E33E77F4231F027
:1051D0000041B1FA81F404BFB0FA80F6A4190B3C87
:1051E000B4F120062FBF00FA06F1A140C4F1200659
:1051F00020FA06F638BF3143A0403C1B1AE7AC4208
:105200001ABF05EA1357AF4212E050EA41061CBF2D
:1052100052EA4306BFE750EA4107304661461CBFE9
:1052200041EA0551F0BD52EA430C08BFC143F0BD4D
:1052300000204FF4001616EB410F98BF16EB430FFA
:1052400008BF16EB410F24BFC14305E016EB430F27
:105250000CBF61464CEA0551F0BD000080B5134813
:1052600000F03BF80FF24801016041608160C160CD
:105270000161416181610FF23C0242628162C1625F
:10528000016341630FF2300282630FF23402C263A2
:105290000164416401BD10B5044800F01EF80446E5
:1052A000206808B9FFF7DAFF204610BDDC37FF1F82
:1052B000000000002E00000066616C7365000000B5
:1052C000747275650000000091FBF2F303FB12118C
:1052D000C0E9003170470000704770476A6B6D6C21
:1052E000676E4E4F34353637000000000000000076
:1052F00000000000000000000000000000000000AE
:105300000000000000004E6F6E4D61736B61626CB7
:105310006500000000486172644661756C740000AD
:10532000000000004D656D4D616E6167656D656ED5
:105330007400004275734661756C740000000000D3
:10534000000055736167654661756C74000000006C
:10535000000000000000000000000000000000004D
:10536000000000000000000000000000000000003D
:10537000000000000000000000000000000000002D
:105380000000000000000000000000000053564331
:10539000616C6C0000000000000000004465627554
:1053A000674D6F6E69746F720000000000000000AE
:1053B0000000000000000000000050656E645356BD
:1053C0000000000000000000005379735469636B13
:1053D0000000000000000000444D413000000000CB
:1053E00000000000000000444D41310000000000BA
:1053F000000000000000444D4132000000000000A9
:105400000000000000444D41330000000000000097
:1054100000000000444D4134000000000000000086
:10542000000000444D413500000000000000000075
:105430000000444D41360000000000000000000064
:1054400000444D4137000000000000000000000053
:10545000444D4138000000000000000000000044FE
:105460004D41390000000000000000000000444DE4
:1054700041313000000000000000000000444D41B8
:10548000313100000000000000000000444D4131B7
:105490003200000000000000000000444D413133A4
:1054A00000000000000000000000444D41313400C5
:1054B000000000000000000000444D4131350000B4
:1054C0000000000000000000444D415F4572726F13
:1054D000720000000000004D434D0000000000007D
:1054E0000000000000004654464C00000000000090
:1054F0000000000000526561645F436F6C6C69736B
:10550000696F6E004C56445F4C5657000000000017
:105510000000004C4C57000000000000000000009C
:1055200000005761746368646F670000000000004A
:1055300000524E4700000000000000000000000084
:105540004932433000000000000000000000004924
:105550003243310000000000000000000000535002
:1055600049300000000000000000000000535049D6
:1055700031000000000000000000000053504932DC
:10558000000000000000000000000043414E305FBA
:105590004F525F4D425F6275660043414E305F423D
:1055A00075735F4F666600000043414E305F457281
:1055B000726F72000000000043414E305F54785F0C
:1055C0005761726E696E6743414E305F52785F5724
:1055D00061726E696E6743414E305F57616B655F04
:1055E0005570000000526573657276656435310050
:1055F0000000000052657365727665643532000004
:1056000000000043414E315F4F525F4D425F627573
:10561000660043414E315F4275735F4F666600001E
:105620000043414E315F4572726F7200000000000E
:1056300043414E315F54785F5761726E696E6743C4
:10564000414E315F52785F5761726E696E674341B8
:105650004E315F57616B655F557000000052657396
:105660006572766564353900000000005265736527
:1056700072766564363000000000005541525430A7
:105680005F52585F54580000000055415254305F3B
:1056900045525200000000000055415254315F5203
:1056A000585F54580000000055415254315F455234
:1056B0005200000000000055415254325F52585FC2
:1056C00054580000000055415254325F4552520078
:1056D000000000000055415254335F52585F545847
:1056E0000000000055415254335F45525200000003
:1056F00000000055415254345F52585F5458000026
:10570000000055415254345F4552520000000000E1
:105710000055415254355F52585F54580000000004
:1057200055415254355F455252000000000000417F
:10573000444330000000000000000000000041442D
:1057400043310000000000000000000000434D5005
:10575000300000000000000000000000434D503108
:105760000000000000000000000000434D50320027
:105770000000000000000000000046544D30000012
:1057800000000000000000000046544D3100000001
:10579000000000000000000046544D3200000000F0
:1057A00000000000000000434D5400000000000015
:1057B0000000000000005254430000000000000000
:1057C000000000000052657365727665643833002E
:1057D00000000000504954300000000000000000AC
:1057E000000000504954310000000000000000009B
:1057F000000050495432000000000000000000008A
:105800000050495433000000000000000000000078
:10581000504442300000000000000000000000552D
:10582000534230000000000000000000000055530B
:1058300042444344000000000000000000454E4583
:10584000545F313538385F54696D6572454E455443
:105850005F5472616E736D69740000454E45545F0C
:1058600052656365697665000000454E45545F45A5
:1058700072726F7200000000004932533000000065
:1058800000000000000000005344484300000000F6
:105890000000000000000044414330000000000010
:1058A00000000000000044414331000000000000FF
:1058B00000000000005453493000000000000000C8
:1058C000000000004D434700000000000000000001
:1058D0000000004C5054696D65720000000000002B
:1058E00000005265736572766564313032000000E5
:1058F00000504F5254410000000000000000000022
:10590000504F5254420000000000000000000050C0
:105910004F52544300000000000000000000504FB0
:1059200052544400000000000000000000504F529C
:10593000544500000000000000000000526573653F
:10594000727665643130380000000052657365720C
:1059500076656431303900000000526573657276F7
:105960006564313130000000005265736572766500
:1059700064313131000000005265736572766564F0
:105980003131320000000052657365727665643112
:105990003133000000005265736572766564313101
:1059A00034000000005265736572766564313135EC
:1059B000000000005265736572766564313136000F
:1059C00000000052657365727665643131370000FE
:1059D00000005265736572766564313138000000ED
:1059E00000526573657276656431313900000000DC
:1059F000010000000DC1110009030CD01240173F37
:105A0000185019031A783200A00A63E0ACFF650C45
:105A10006600670029142C1E2A007E0C7F16802A3F
:105A2000814E8261836F847B8586868E879788A46A
:105A300089AF8AC58BD78CE88D204A004913470867
:105A40004B144C17460522992303A6049B009CFF88
:105A5000AB069E119F020000310000000000A8412B
:105A60009A99993F00E0EC4600D0E84600000040DB
:105A70009103C03B5839B43C00002041CDCC4C3E92
:105A80000000C8420000A042000016435000000081
:105A90001E00000000B0034000B00B400080034037
:105AA0000090034000800B4000F00F4040F00F409A
:105AB00080F00F40C0F00F4000F10F40F0000A1DD1
:105AC0003000180032001801600018186400181A1D
:105AD0006E00181F780013187D00131A8200131C23
:105AE0008C000E1296000E15A0000E18AA000E1BB8
:105AF000B4000E1EC8000C1CE1000B1EFA000A1FA9
:105B0000000109080090044000A0044000B00440D7
:105B100000C0044000D0044000A0064000B0064091
:105B200000C0064000D0064000A00E4000B00E406D
:105B3000020401018437FF1FD437FF1F8437FF1F82
:105B40008437FF1F8437FF1FA10CFF1F880CFF1F26
:105B50000000000000000000000000000000000045
:105B60000000000000000000000000000000000035
:105B7000DFF800F00D0EFF1F40B2DFF8941331F88C
:105B8000201040B20128C0F2698140B2112880F291
:105B90006581DFF880230023137089B2312904DA8C
:105BA000DFF870230023537076E089B2612904DAAC
:105BB000DFF86023012353706EE089B2912904DA83
:105BC000DFF850230223537066E089B2C12904DA5A
:105BD000DFF84023032353705EE089B2F12904DA31
:105BE000DFF830230423537056E089B2B1F5907F7B
:105BF00004DCDFF82023052353704DE089B2B1F5B2
:105C0000A87F04DCDFF80C230623537044E089B23C
:105C1000B1F5C07F04DCDFF8FC22072353703BE0C2
:105C200089B2B1F5D87F04DCDFF8E822082353708D
:105C300032E089B2B1F5F07F03DCB64A0923537034
:105C40002AE089B2B1F5047F03DCB24A0A2353701B
:105C500022E089B2B1F5107F03DCAE4A0B2353700A
:105C60001AE089B2B1F51C7F03DCAA4A0C235370F9
:105C700012E089B2B1F5287F03DCA64A0D235370E8
:105C80000AE089B2B1F5347F03DCA24A0E235370D7
:105C900002E0A04A0F23537089B21A2903DA9D4A01
:105CA0000023937069E089B2332903DA994A01230A
:105CB000937062E089B24C2903DA964A022393700A
:105CC0005BE089B2652903DA924A0323937054E0BA
:105CD00089B27E2903DA8F4A042393704DE089B29A
:105CE000972903DA8B4A0523937046E089B2B029DD
:105CF00003DA884A062393703FE089B2C92903DAA0
:105D0000844A0723937038E089B2E22903DA814A92
:105D10000823937031E089B2FB2903DA7D4A092315
:105D200093702AE089B2B1F58A7F03DA794A0A23AF
:105D3000937022E089B2B1F5967F03DC754A0B239C
:105D400093701AE089B2B1F5A37F03DA714A0C238C
:105D5000937012E089B2B1F5AF7F03DC6D4A0D2379
:105D600093700AE089B2B1F5BC7F03DA694A0E2369
:105D7000937002E0674A0F23937089B21A2903DAFD
:105D8000644A0023D37069E089B2332903DA614A97
:105D90000123D37062E089B24C2903DA5D4A022301
:105DA000D3705BE089B2652903DA5A4A0323D370C2
:105DB00054E089B27E2903DA564A0423D3704DE0B9
:105DC00089B2972903DA534A0523D37046E089B292
:105DD000B02903DA4F4A0623D3703FE089B2C929BC
:105DE00003DA4C4A0723D37038E089B2E22903DA98
:105DF000484A0823D37031E089B2FB2903DA454AC7
:105E00000923D3702AE089B2B1F58A7F03DA414AC7
:105E10000A23D37022E089B2B1F5967F03DC3D4AB4
:105E20000B23D3701AE089B2B1F5A37F03DA394AA4
:105E30000C23D37012E089B2B1F5AF7F03DC354A91
:105E40000D23D3700AE089B2B1F5BC7F03DA314A81
:105E50000E23D37002E02F4A0F23D370704710B582
:105E60000400200040B2FFF787FE2B48007810F0B6
:105E7000FD00294908702848007850F01000264994
:105E800008702648B821017025480078C006FBD468
